:100000000C943E000C9402260C945B000C945B0054
:100010000C945B000C945B000C945B000C945B00F4
:100020000C945B000C945B000C945B000C945B00E4
:100030000C945B000C945B000C945B000C945B00D4
:100040000C947C050C945B000C945B000C945B009E
:100050000C945B000C945B000C945B000C945B00B4
:100060000C945B000C945B000C944A280C945B008D
:100070000C945B000C945B000C945B0011241FBE7D
:10008000CFEFD0E1DEBFCDBF14E0A0E0B1E0ECEDFA
:10009000F8E502C005900D92A438B107D9F71BE02E
:1000A000A4E8B4E001C01D92A738B107E1F70E94AF
:1000B000A0050C946C2C0C9400000F931F93CF930D
:1000C000DF9300D000D0CDB7DEB78C0140E050E028
:1000D000BA010E94731DC80160E071E02EE030E0BB
:1000E00040E050E08E010F5F1F4F0E944E1A0F90AC
:1000F0000F900F900F90DF91CF911F910F91089566
:100100000F931F93CF93DF9300D000D0CDB7DEB70E
:100110008C014EE050E060E070E00E94731DC80169
:100120006EE071E02CE730E040E050E08E010F5FC0
:100130001F4F0E944E1A0F900F900F900F90DF915B
:10014000CF911F910F910895EEE6F0E080818260DB
:10015000808384B5826084BD85E787BD85B5856071
:1001600085BD80EC87B982EF8AB908951CBC8FEEFB
:1001700085B98FE484B908958EBD0DB407FEFDCF17
:100180008EB5089582E3809384048FEF0E94BC00B3
:100190008F3F21F0909184049923B9F721E030E05A
:1001A0008F3F11F020E030E0822F932F08952C9A9A
:1001B0008FEF0E94BC0008952C988FEF0E94BC0026
:1001C0000E94C200009729F40E94D70080E090E0CE
:1001D000089581E090E00895CF92DF92EF92FF9230
:1001E000CF93DF93EC016A017B0184E18093850466
:1001F0008FEF0E94BC008F3F39F4809185048823E3
:10020000B9F780E090E028C08E3F21F58FEF8EBDDA
:100210000DB407FEFDCF9EB598838EBD0DB407FECD
:10022000FDCF9EB5998322962EEF3FEF4FEF5FEF04
:10023000C20ED31EE41EF51EC114D104E104F10464
:1002400031F78FEF0E94BC008FEF0E94BC0081E06D
:1002500090E002C080E090E0DF91CF91FF90EF90BE
:10026000DF90CF9008951F93CF93DF93EC01162F6B
:100270000E94C200009741F1812F0E94BC001D3FE7
:1002800031F1CE0180509E4F28812EBD0DB407FE66
:10029000FDCF29812EBD22960DB407FEFDCF8C1710
:1002A0009D0791F78FEF0E94BC008FEF0E94BC006A
:1002B0008FEF0E94BC008F7121E030E0853011F09B
:1002C00020E030E0C90105C080E090E002C081E09C
:1002D00090E0DF91CF911F910895FF920F931F93AC
:1002E000CF93DF93C82FD42F152F062FF72E8823F7
:1002F0004CF487E340E050E0BA010E946D01823087
:1003000068F5CF770E94D7000E94DC00009729F1A2
:100310008C2F80640E94BC008F2D0E94BC00802F17
:100320000E94BC00812F0E94BC008D2F0E94BC0047
:10033000CC23F1F0C830C1F081E00E94BC00CC3089
:1003400019F48FEF0E94BC00CAE08FEF0E94BC003E
:10035000882324F4C150C9F701C08FEFDF91CF91FA
:100360001F910F91FF90089587E80E94BC00ECCF89
:1003700085E90E94BC00E8CFCF92DF92EF92FF9216
:100380000F931F93CF93DF9300D000D0CDB7DEB78C
:10039000882309F0A8C00E94B60080918A0181FFDD
:1003A00003C080918A01A0C080E185B980EB84B947
:1003B00081E58CBD82E58CBD0AE08FEF0E94BC0018
:1003C0000150D9F780E040E050E0BA010E946D0191
:1003D000813009F09CC084E68093850488E04AEA75
:1003E00051E060E070E00E946D01813009F042C090
:1003F0006E010894C11CD11C8E010B5F1F4F76014A
:100400008FEF0E94BC00F70181937F01E017F10795
:10041000B9F78B81813009F07AC08C818A3A09F072
:1004200076C080918504882349F089EA40E050E055
:1004300060E070E40E946D01882399F78091850443
:10044000882309F464C08AE340E050E0BA010E94C6
:100450006D01882309F05BC004E08FEF0E94BC00AF
:10046000F60181936F010150C1F7898186FD49C072
:1004700084E048C089EA40E050E0BA010E946D0182
:10048000823018F412E009EA02C011E001E0809124
:100490008504882341F0802F40E050E0BA010E949B
:1004A0006D018823A1F780918504882381F180E183
:1004B00040E052E060E070E00E946D01882339F571
:1004C000109386040E94D700112341F080918A0185
:1004D0008E7F80938A0180E58CBD02C00E94B600A9
:1004E00080918A0101C081E00F900F900F900F90D2
:1004F000DF91CF911F910F91FF90EF90DF90CF9000
:1005000008958CE0809386040E94D700DFCF10927C
:1005100086040E94D700E2CF882319F480918A01D3
:10052000089581E008950F93CF93DF93EB01882323
:1005300009F04AC0002309F449C080918A0180FD76
:1005400047C08091860483FD09C0012E19E0220F67
:10055000331F441F551F1A95D1F7102D013089F410
:1005600081E1BA01A9010E946D01882331F5CE0114
:1005700040E052E060E070E00E94EC000097E1F49F
:100580001CC082E1BA01A9010E946D018823A9F46F
:10059000CE0140E052E060E070E00E94EC00009785
:1005A00021F0C050DE4F015099F78CE040E050E060
:1005B000BA010E946D0101C000E00E94D70081E0F5
:1005C000002339F480E005C084E003C084E001C06A
:1005D00083E0DF91CF910F910895CF92DF92EF9258
:1005E000FF920F93CF93DF93EB0169017A01882388
:1005F00009F057C0002309F456C080918A0180FD9C
:1006000054C080918A0182FD52C08091860490E09E
:1006100083FD09C00B2EB9E0CC0CDD1CEE1CFF1CC9
:10062000BA95D1F7B02D013071F488E1B701A60178
:100630000E946D01882371F5CE016EEF0E94330197
:10064000009729F527C086709070009739F0402FE9
:1006500050E060E070E087E90E946D0189E1B70138
:10066000A6010E946D018823A9F4CE016CEF0E94BF
:100670003301009721F0C050DE4F0150B1F780E008
:1006800090E06DEF0E943301009719F003C000E085
:1006900001C001E00E94D70081E0002349F480E01E
:1006A00007C084E005C084E003C083E001C082E0AD
:1006B000DF91CF910F91FF90EF90DF90CF90089551
:1006C000EF92FF920F931F93CF93DF93CDB7DEB7D7
:1006D00060970FB6F894DEBF0FBECDBF7A018823B6
:1006E00009F0DAC1653089F4FA018081882321F0AC
:1006F000813009F0D3C104C00E94B60000E0D1C12E
:1007000081E0FA01818300E0CCC180918A0180FD03
:10071000C7C16A3009F444C16B3058F46130F9F054
:100720006130A0F0623009F498C0633009F094C1E0
:100730009BC06C3009F44FC16C3008F437C16D3088
:1007400009F45EC16E3009F087C170C10E94DC00FF
:10075000009709F483C10E94D70000E09AC189E0A4
:1007600040E050E0BA010E946D01882309F078C191
:10077000CE01019640E150E060E070E00E94EC00A4
:10078000009709F46FC1898182958695869583705B
:10079000813051F5488550E060E070E04F73507053
:1007A00060707070BA01552744274F5F5F4F6F4FDD
:1007B0007F4F998580E02A85820F911DA0E0B0E0EF
:1007C000840F951FA61FB71F072E7AE0880F991F69
:1007D000AA1FBB1F7A95D1F7702DF70180839183F3
:1007E000A283B38300E055C12985229526952695DD
:1007F0002370888590E0880F991F880F991F820FBA
:10080000911D01962F8130E023703070322F222706
:10081000330F330F820F931FAC0160E070E09E81B5
:100820009F708B85881F8827881F980F9E5F8A85F9
:100830008370880F890F90E009978A019B0104C09B
:10084000000F111F221F331F8A95D2F7F701008373
:1008500011832283338300E01CC180E092E0FA011F
:100860009183808300E015C10091860402FF31C0AE
:100870008DE840E050E0BA010E946D01882309F044
:10088000F3C08FEF0E94BC00CE01019640E150E022
:1008900060E070E00E94EC00009709F4E7C000E31C
:1008A0008FEF0E94BC000150D9F72B8522952F7045
:1008B00080E190E0A0E0B0E004C0880F991FAA1F7B
:1008C000BB1F2A95D2F7F70180839183A283B3835C
:1008D000E0C089E040E050E0BA010E946D01882349
:1008E00009F0C6C0CE01019640E150E060E070E042
:1008F0000E94EC00009709F4BDC001FF25C08C8563
:10090000881F8827881F90E001962B8530E02F7381
:100910003070220F331F280F391F8E8582958695E0
:100920008695837090E00197890102C0000F111F26
:100930008A95E2F7C801A0E0B0E0F70180839183D7
:10094000A283B38300E0A5C08C85482F50E043709C
:100950005070440F551F440F551F440F551F82956B
:1009600086958770480F511D4F5F5F4F2B8530E094
:100970002C77307035952795359527952F5F3F4F0C
:10098000429FC001439F900D529F900D1124A0E003
:10099000B0E0F70180839183A283B38300E079C044
:1009A00080918604FA01808300E073C089E040E012
:1009B00050E0BA010E946D01882309F05DC0C701B3
:1009C00040E150E060E070E00E94EC00009709F028
:1009D00055C001E05EC08AE040E050E0BA010E94EC
:1009E0006D01882309F04CC0C70140E150E060E090
:1009F00070E00E94EC00009709F044C001E049C09B
:100A00008AE340E050E0BA010E946D018823E1F5DD
:100A100087010C5F1F4F8FEF0E94BC00F70181938D
:100A20007F01E017F107B9F700E033C08DE840E03F
:100A300050E0BA010E946D01882341F58FEF0E94BA
:100A4000BC00C70140E450E060E070E00E94EC00B0
:100A50000097F1F401E01DC004E01BC001E019C0E3
:100A600001E017C001E015C001E013C001E011C0B2
:100A700001E00FC001E00DC001E00BC000E009C0C3
:100A800001E007C000E005C001E003C001E001C0D3
:100A900000E00E94D70005C004E003C004E001C0EC
:100AA00003E0802F60960FB6F894DEBF0FBECDBF77
:100AB000DF91CF911F910F91FF90EF90089580915A
:100AC0008504882319F081508093850480918404E3
:100AD000882319F081508093840480918A01189BA7
:100AE00002C0846001C08B7F199902C08D7F01C054
:100AF000836080938A0108951F920F920FB60F9220
:100B000011242F933F934F935F936F937F938F9312
:100B10009F93AF93BF93EF93FF930E945F05FF9165
:100B2000EF91BF91AF919F918F917F916F915F9165
:100B30004F913F912F910F900FBE0F901F901895DE
:100B4000CF92DF92EF92FF920F931F93CF93DF9399
:100B500000D000D0CDB7DEB719821A821B821C826A
:100B60000E94D528789488EE92E09093840B80932D
:100B7000830B24B714BE00D000D0EDB7FEB731967A
:100B80008BE891E0ADB7BEB712969C938E93119708
:100B9000228313820E9474290F900F900F900F9060
:100BA0008EEA91E00E9489290E94A4008EEB91E0D8
:100BB0000E9489290E94DD2780E065ED78E00E948F
:100BC000E21600D000D0EDB7FEB731962FEC31E041
:100BD000ADB7BEB712963C932E93119782831382C2
:100BE0000E9474290F900F900F900F9083E994E06A
:100BF00065EE71E04AE00E94F816182F00D000D090
:100C0000EDB7FEB731968EEE91E0ADB7BEB7129656
:100C10009C938E931197128313820E9474290F90D4
:100C20000F900F900F90112379F080E090E00F90DB
:100C30000F900F900F90DF91CF911F910F91FF9028
:100C4000EF90DF90CF9008950F2EF3E9EF2EF4E0B0
:100C5000FF2EF02DC7016EEF71E020E130E040E0A3
:100C600050E08E010F5F1F4F0E944E1AC7010E9475
:100C7000071D88E192E00E9489290E94D5260E94E2
:100C8000782600D000D0EDB7FEB7319626E332E0EB
:100C9000ADB7BEB712963C932E9311978283138201
:100CA0000E9474290F900F900F900F908EE592E0A4
:100CB0000E94892902E712E0C701B8014AE00E94B8
:100CC000F81600D000D0EDB7FEB731960F2EFDE735
:100CD000CF2EF2E0DF2EF02DADB7BEB71296DC922C
:100CE000CE921197828313820E9474290F900F90E5
:100CF0000F900F90C70148E75DE562E070E00E9449
:100D0000731D8FE892E00E948929C70140E050E0FE
:100D1000BA010E94731DC7010E94071D00D000D0B8
:100D2000EDB7FEB7319624EA32E0ADB7BEB7129602
:100D30003C932E931197828313820E9474290F9003
:100D40000F900F900F90C701B80142E00E94F81673
:100D500000D000D0EDB7FEB73196ADB7BEB7129652
:100D6000DC92CE921197828313820E9474290F9095
:100D70000F900F900F9088EB92E00E948929C70195
:100D80000E945D008AEC92E00E948929C7010E94BE
:100D900080000E94BA268AE890E00E9402278823F9
:100DA000D1F78CED92E00E948929FFCFE62FF72F33
:100DB000BA01A901411551056105710559F0AE2F20
:100DC000BF2FE82FF92F8D91819341505040604003
:100DD0007040C9F70895A62FBA01A9014115510520
:100DE0006105710541F0E82FF92FA1934150504062
:100DF00060407040D1F708950F931F93DC01FB0111
:100E0000938D80E0028D10E0082B192B20E030E05C
:100E10008C91833079F4558940E0848990E0842B6B
:100E2000952BA0E0B0E0DC0199278827082B192B2F
:100E30002A2B3B2B602F712F822F932F1F910F9105
:100E40000895FC01428F538FAB0166277727448BAF
:100E5000558B0895EF92FF920F931F93CF93DF93DB
:100E6000FC017B018B01075F1F4F86859785A08959
:100E7000B1890097A105B10509F465C0C289D3897C
:100E80002881203299F0DE011196F80180E090E08F
:100E900035EE04C02D910196203241F0253009F441
:100EA000232F21938F0187309105A1F78885803208
:100EB00081F08EE2F80180838885803209F04CC091
:100EC0000F5F1F4F06C08C0104C0F80123830C5F25
:100ED0001F4F8B85F70180878F8D90E0A0E0B0E0F9
:100EE000B82FAA27992788274E8D50E060E070E040
:100EF000BA0155274427482B592B6A2B7B2B8C8D05
:100F000090E0A0E0B0E0482B592B6A2B7B2B9D8D05
:100F100080E0A0E0B0E0842B952BA62BB72B80833C
:100F20009183A283B383398D20E0888D90E0822B5A
:100F3000932B958384839F8980E02E8930E0822BD8
:100F4000932B97838683F8011082DF91CF911F91B5
:100F50000F91FF90EF900895F8018183C8010296E8
:100F60002985203209F4AFCF2283C80103962A8550
:100F7000203209F0AACFA7CFDC01ED91FC911197A7
:100F8000309799F08081882391F0268137811296DD
:100F90008D919C9113972817390759F481810E94EC
:100FA0008C0280FF08C083E0089589E0089589E0FD
:100FB000089589E0089580E008950F93CF93DF931B
:100FC000EC019A01AB01BC016E5C7F4F898101E0AD
:100FD0000E949302882309F083C0FE01EF5CFD4F5D
:100FE000908180E0FE01E05DFD4F208130E0822BAA
:100FF000932B2AEA8535920709F074C0FE01E55962
:10100000FF4F808190E0A0E0B0E0B82FAA27992799
:101010008827FE01E659FF4F408150E060E070E014
:10102000BA0155274427482B592B6A2B7B2BFE01ED
:10103000E859FF4F808190E0A0E0B0E0482B592BA9
:101040006A2B7B2BFE01E759FF4F908180E0A0E0E7
:10105000B0E0482B592B6A2B7B2B7070463481E40F
:10106000580784E5680780E07807F1F1FE01E95749
:10107000FF4F808190E0A0E0B0E0B82FAA27992729
:101080008827FE01EA57FF4F408150E060E070E0A2
:10109000BA0155274427482B592B6A2B7B2BFE017D
:1010A000EC57FF4F808190E0A0E0B0E0482B592B37
:1010B0006A2B7B2BCB57DF4F988180E0A0E0B0E01C
:1010C000482B592B6A2B7B2B707081E0463491E4BE
:1010D000590794E5690790E0790739F480E005C085
:1010E00083E003C082E001C080E0DF91CF910F91E7
:1010F00008952F923F924F925F926F927F928F92BC
:101100009F92AF92BF92CF92DF92EF92FF920F9396
:101110001F93CF93DF93CDB7DEB760970FB6F894E8
:10112000DEBF0FBECDBF8B01D42EDC01ED91FC9153
:101130001197408150E040535040662757FD60951D
:10114000762F4A3051056105710548F481818A3353
:1011500031F4CF01029611969C938E9305C0409175
:10116000890450E060E070E0F801118210824115BE
:1011700051056105710509F0A3C3E0908704F09063
:101180008804E114F10409F49DC3F182E082D701DF
:101190008C91882369F011968C910E948C0280FDBD
:1011A00007C0DD2009F490C382FD90C380E0AFC387
:1011B000F7011082118280E00E94BC0180FD88C38B
:1011C000DD2011F082FD86C3C70140E050E0BA0186
:1011D0000E94DD078130E9F5F701EC50FE4F808178
:1011E000882309F479C3F701E550FE4F808190E030
:1011F000A0E0B0E0B82FAA2799278827F701E6508A
:10120000FE4F408150E060E070E0BA01552744276E
:10121000842B952BA62BB72BF701E850FE4F40816E
:1012200050E060E070E0482B592B6A2B7B2BF701D4
:10123000E750FE4F908180E04C01AA24BB24842A11
:10124000952AA62AB72AC701B501A4010E94DD0785
:1012500003C0882499245401833009F43FC38823B0
:1012600009F03EC3D701DE969C91DE9780E0DD96C3
:101270002C91DD9730E0822B932BB2E080309B07DE
:1012800009F030C3F701E75BFF4F308120E0F70141
:10129000E85BFF4F808190E0822B932B2C0166242A
:1012A0007724411451046104710489F5F701E75A68
:1012B000FF4F408150E060E070E0742F66275527B3
:1012C0004427F701E85AFF4F808190E0A0E0B0E0AA
:1012D000DC0199278827482B592B6A2B7B2BF70198
:1012E000EA5AFF4F808190E0A0E0B0E0482B592BF4
:1012F0006A2B7B2BF701E95AFF4F908180E0A0E039
:10130000B0E02A013B01482A592A6A2A7B2AF701C0
:10131000468E578E60A271A2EE5BFF4FC080D70150
:101320001396CC9213978C2D8150823008F0DCC23A
:10133000DF96DC90DF971296DC921297DD2009F49D
:10134000D5C28D2D90E09C01215030408223932303
:10135000009709F0CDC2F701EC5BFF4F308120E030
:10136000F701ED5BFF4F808190E01901282A392AAF
:10137000F70131862086C1018F709070009709F0C7
:10138000B9C2EA5BFF4F308120E0F701EB5BFF4F12
:10139000808190E0822B932B8C0120E030E0098348
:1013A0001A832B833C830115110521053105A9F50D
:1013B000F701EB5AFF4F808190E0A0E0B0E0782F7A
:1013C000662755274427F701EC5AFF4F808190E0AC
:1013D000A0E0B0E0DC0199278827482B592B6A2B25
:1013E0007B2BF701EE5AFF4F808190E0A0E0B0E048
:1013F000482B592B6A2B7B2BF701ED5AFF4F90811D
:1014000080E0A0E0B0E08A019B01082B192B2A2B79
:101410003B2B09831A832B833C83F701EF5BFF4F40
:10142000308120E0F701E05CFF4F808190E089018E
:10143000082B192B0115110509F45EC22C2D30E083
:1014400040E050E0C301B2010E9433296D877E87DE
:101450008F87988B980140E050E029873A874B8727
:101460005C87C101929582958F7089279F7089272B
:10147000A0E0B0E0820F931FA41FB51F0D851E854D
:101480002F853889080F191F2A1F3B1F0D831E83C4
:101490002F83388789819A81AB81BC81801791071E
:1014A000A207B30708F42AC2BC01CD01601B710B6F
:1014B000820B930B2D2D30E040E050E00E9452292A
:1014C00089019A01D901C8010115110521053105CC
:1014D00009F416C2063FEFE01E07E0E02E07E0E049
:1014E0003E0718F4DD24D39403C0DD246894D1F8BA
:1014F000863FFFEF9F07F0E0AF07F0E0BF0708F07F
:101500001FC2B901A8014E5F5F4F6F4F7F4FD701D8
:101510005A964D935D936D937C935D978D819E81DB
:10152000AF81B885880D991DAA1DBB1DF70182A743
:1015300093A7A4A7B5A789859A85AB85BC85880D97
:10154000991DAA1DBB1D82A393A3A4A3B5A3F3E079
:10155000DF1609F041C02114310409F0D3C1F701AD
:10156000EF59FF4F808190E0A0E0B0E0382F2227B4
:1015700011270027F701E05AFF4F808190E0A0E09B
:10158000B0E0DC0199278827082B192B2A2B3B2B4D
:10159000F701E25AFF4F808190E0A0E0B0E0082B15
:1015A000192B2A2B3B2BF701E15AFF4F908180E04A
:1015B000A0E0B0E0802B912BA22BB32BF70186A3E8
:1015C00097A3A0A7B1A7440F551F661F771F440F0D
:1015D000551F661F771F2FC02114310409F494C1D1
:1015E0000D851E852F853889800F911FA21FB31F7F
:1015F000F70186A397A3A0A7B1A7F2E0DF1629F40D
:10160000440F551F661F771F16C0DB01CA01880FE4
:10161000991FAA1FBB1F840F951FA61FB71FB69542
:10162000A795979587954170507060707070480FBE
:10163000591F6A1F7B1FDB01CA0181509E4FAF4FAC
:10164000BF4F072E79E0B695A795979587957A9520
:10165000D1F7702D481659066A067B0608F456C164
:101660008FEF9FEFDC01F70186879787A08BB18B07
:101670001286138614861586B3E0DB1609F003C1C3
:101680001582ED59FF4F308120E0F701EE59FF4FF1
:10169000808190E0822B932BA0E0B0E0A501940123
:1016A000280F391F4A1F5B1FD70152962D933D9378
:1016B0004D935C935597B7016E5C7F4F11968C915B
:1016C00001E00E949302882309F0DDC0F701EF5C7E
:1016D000FD4F308120E0F701E05DFD4F808190E01B
:1016E000822B932BBAEA85359B0709F0CCC0F70112
:1016F00045A950E060E070E0742F66275527442725
:1017000084A990E0A0E0B0E0DC0199278827482B6D
:10171000592B6A2B7B2B82A990E0A0E0B0E0482BEC
:10172000592B6A2B7B2B93A980E0A0E0B0E0842B9F
:10173000952BA62BB72B8235F2E59F07F1E6AF0775
:10174000F1E4BF0709F09FC0F701E75EFD4F80811C
:1017500090E0A0E0B0E0B82FAA2799278827F701EA
:10176000E85EFD4F408150E060E070E0BA0155272F
:101770004427842B952BA62BB72BF701EA5EFD4F50
:10178000408150E060E070E0482B592B6A2B7B2BA6
:10179000F701E95EFD4F908180E0A0E0B0E0842B8E
:1017A000952BA62BB72B823702E7900701E4A00701
:1017B00001E6B00709F067C0F701EF5DFD4F8081DA
:1017C00090E0A0E0B0E0B82FAA2799278827F7017A
:1017D000E05EFD4F408150E060E070E0BA015527C7
:1017E0004427842B952BA62BB72BF701E25EFD4FE8
:1017F000408150E060E070E0482B592B6A2B7B2B36
:10180000F701E15EFD4F908180E0A0E0B0E0842B25
:10181000952BA62BB72BF70182879387A487B587D3
:10182000E35EFD4F808190E0A0E0B0E0B82FAA27F2
:1018300099278827F701E45EFD4F408150E060E082
:1018400070E0BA0155274427842B952BA62BB72B84
:10185000F701E65EFD4F408150E060E070E0482B0C
:10186000592B6A2B7B2BF701E55EFD4F908180E0C1
:10187000A0E0B0E0842B952BA62BB72BF701868731
:101880009787A08BB18BD701DC9280918A049091CD
:101890008B04019690938B0480938A0417969C93F3
:1018A0008E931697F70116A617A610AA11AA1482EE
:1018B00056961D921D921D921C92599780E027C04A
:1018C0008BE025C08CE023C080E021C08AE01FC0EF
:1018D00083E01DC08AE01BC08DE019C081E017C005
:1018E0008DE015C08DE013C08DE011C08DE00FC0FC
:1018F0008DE00DC08DE00BC08DE009C08DE007C00C
:101900008DE005C08DE003C08DE001C08DE06096E4
:101910000FB6F894DEBF0FBECDBFDF91CF911F9100
:101920000F91FF90EF90DF90CF90BF90AF909F907E
:101930008F907F906F905F904F903F902F90089581
:10194000B901A8014E5F5F4F6F4F7F4FF701428F84
:10195000538F648F758F8D819E81AF81B885880D7F
:10196000991DAA1DBB1D82A793A7A4A7B5A789850A
:101970009A85AB85BC85880D991DAA1DBB1D82A3C8
:1019800093A3A4A3B5A30F2EF3E0DF2EF02DE3CD98
:101990004F925F926F927F928F929F92AF92BF927F
:1019A000CF92DF92EF92FF920F93CF935C012A01C7
:1019B0003B01FC01C6A4D7A4E0A8F1A8C416D50633
:1019C000E606F70609F454C084818823D1F10F2E6E
:1019D000F2E38F2E9924F02D8A0C9B1C8181B40197
:1019E000A701960101E00E94ED02882309F042C0A0
:1019F000F5011482468D578D60A171A182A193A13A
:101A0000A4A1B5A1840F951FA61FB71FC816D9069C
:101A1000EA06FB06B0F4C381C23098F0F501868D6A
:101A2000978DA0A1B1A1C80ED91EEA1EFB1E81810F
:101A3000B401A701960101E00E94ED02C150C1303E
:101A400069F74114510461047104B1F0B5016E5C91
:101A50007F4FF5018181A301920101E00E94930271
:101A6000882361F4F50146A657A660AA71AA07C0AB
:101A700080E005C081E003C080E001C081E0CF913B
:101A80000F91FF90EF90DF90CF90BF90AF909F901D
:101A90008F907F906F905F904F900895EF92FF929C
:101AA0000F931F93CF937C0140E050E0BA010E9456
:101AB000C80CC82F882309F078C0F70180818330D3
:101AC00009F06AC08581882309F466C016A617A6A6
:101AD00010AA11AA87010E5C1F4FC80160E070E0D8
:101AE00020E032E040E050E00E94EB06F701E05DCC
:101AF000FD4F85E58083F701EF5CFD4F8AEA808327
:101B000082E5F70182AB83AB81E684AB91E495ABD0
:101B1000EA5EFD4F22E72083F701E95EFD4F208357
:101B2000F701E85EFD4F9083F701E75EFD4F80838C
:101B3000F7013685278590898189E65EFD4F3083E0
:101B4000F701E55EFD4F2083F701E45EFD4F9083D2
:101B5000F701E35EFD4F8083F7013285238594858D
:101B60008585E25EFD4F3083F701E15EFD4F208306
:101B7000F701E05EFD4F9083F701EF5DFD4F80833D
:101B8000F70122893389448955898181B80101E0AF
:101B90000E94ED02F7011582F701818160E040E0CB
:101BA00050E00E9460038111C1E08C2FCF911F9102
:101BB0000F91FF90EF90089560E070E0CB010895E1
:101BC0000F931F93CF93DF93EC01DB01CA010297C0
:101BD000A109B1094A8D5B8D6C8D7D8D42505040BD
:101BE0006040704084179507A607B70798F42A81CC
:101BF00030E040E050E0BC01CD010E9433298B0170
:101C00009C018AA59BA5ACA5BDA5080F191F2A1F7D
:101C10003B1F03C000E010E09801602F712F822F5E
:101C2000932FDF91CF911F910F9108958F929F92E3
:101C3000AF92BF92CF92DF92EF92FF920F931F93DA
:101C4000CF93DF93EC016A017B01423051056105BE
:101C5000710508F4F4C08A8D9B8DAC8DBD8D48173D
:101C600059076A077B0708F0EFC08881823009F4C2
:101C700081C0833009F4A0C0813009F0EAC04A0174
:101C80005B01B694A79497948794840E951EA61E24
:101C9000B71EB501A401032E39E0769567955795D7
:101CA00047953A95D1F7302D8AA19BA1ACA1BDA152
:101CB000480F591F6A1F7B1FCE010E94C80C882342
:101CC00009F0CBC0D501C4019170A070B070FE01C5
:101CD000E80FF91F12A90894811C911CA11CB11CCA
:101CE000B501A401032E39E0769567955795479580
:101CF0003A95D1F7302D8AA19BA1ACA1BDA1480F87
:101D0000591F6A1F7B1FCE010E94C80C882309F04F
:101D1000A8C0412F50E060E070E08FEF91E0A0E0BC
:101D2000B0E088229922AA22BB22FE01E80DF91D0B
:101D300092A980E08C01222717FD2095322F402B9D
:101D4000512B622B732B91E0C922DD24C114D104E5
:101D500059F08A019B01689413F8369527951795D9
:101D600007951694D1F788C08A019B011F702070D7
:101D7000307082C0452F562F672F77278AA19BA1ED
:101D8000ACA1BDA1480F591F6A1F7B1FCE010E9445
:101D9000C80C882309F069C0F601EE0FFF1FF1702F
:101DA000CE0FDF1F9BA980E00AA910E0802B912BAA
:101DB0008C0120E030E060C0689416F87695679555
:101DC000579547951694D1F78AA19BA1ACA1BDA1C7
:101DD000480F591F6A1F7B1FCE010E94C80C882321
:101DE00009F047C0F601EE0FFF1FEE0FFF1FF17065
:101DF000CE0FDF1F0DA910E020E030E0302F2227AA
:101E0000112700278CA990E0A0E0B0E0DC01992721
:101E10008827082B192B2A2B3B2B8AA990E0A0E0BE
:101E2000B0E0082B192B2A2B3B2B9BA980E0A0E0CC
:101E3000B0E0082B192B2A2B3B2B3F701DC001E073
:101E400010E020E030E018C001E010E020E030E0D9
:101E500013C00FEF1FEF98010FC00FEF1FEF980196
:101E60000BC00FEF1FEF980107C00FEF1FEF980196
:101E700003C00FEF1FEF9801602F712F822F932F58
:101E8000DF91CF911F910F91FF90EF90DF90CF9056
:101E9000BF90AF909F908F900895EF92FF920F9315
:101EA0001F93CF93DF93EC018B017D836C834E8175
:101EB0005F8168857985413051056105710509F4B7
:101EC0009FC0E881F981828D938DA48DB58D4817CF
:101ED00059076A077B0708F095C041155105610550
:101EE000710569F58081833049F446A157A160A549
:101EF00071A5411551056105710509F51A861B8605
:101F00001C861D86808591850817190708F07CC0FE
:101F1000C801929582958F7089279F708927AC019F
:101F200060E070E086A197A1A0A5B1A5840F951FE0
:101F3000A61FB71F8E879F87A88BB98B4EC0828143
:101F400090E07C01EE0CFF1CEE0CFF1CEE0CFF1C65
:101F5000EE0CFF1C0E151F0528F1888199810E9447
:101F6000160EAB01BC014F3F8FEF58078FEF68078C
:101F70008FEF780709F44AC04230510561057105B9
:101F800008F446C0E881F981828D938DA48DB58DCA
:101F9000481759076A077B07E8F50E191F090E1540
:101FA0001F05D8F64A875B876C877D878881998172
:101FB0000E94E00DAB01BC01C801929582958F7023
:101FC00089279F708927A0E0B0E0840F951FA61F86
:101FD000B71F8E879F87A88BB98B88819981C296FE
:101FE0000F701070000F111F02951295107F1027AF
:101FF000007F1027800F911F9B8B8A8B80E00BC086
:1020000082E009C082E007C082E005C081E003C031
:1020100082E001C082E0DF91CF911F910F91FF908C
:10202000EF900895CF93DF93EC016C817D810E9446
:102030004D0F882391F44E855F8568897989888161
:1020400099810E94C80C882341F4EA89FB8995EEA6
:102050009083E881F98191E09483DF91CF91089595
:102060004F925F926F927F928F929F92AF92BF92A8
:10207000CF92DF92EF92FF920F931F93CF93DF9354
:10208000EC016A017B0148015901423051056105AB
:10209000710508F4E0C08A8D9B8DAC8DBD8D48170D
:1020A00059076A077B0708F0D8C08881823009F495
:1020B00080C0833009F498C0813009F0C8C0DB01CA
:1020C000CA01B695A795979587952C013D01440EB9
:1020D000551E661E771EB301A201032E39E07695C8
:1020E0006795579547953A95D1F7302D8AA19BA1D1
:1020F000ACA1BDA1480F591F6A1F7B1FCE010E94D2
:10210000C80C882309F0A4C0C201917031E0C32239
:10211000DD24C114D10451F0FE01E80FF91F22A9FA
:102120002F70382D3295307F232B01C0282DFE01D2
:10213000E80FF91F22AB0894411C511C611C711C53
:1021400081E08C83B301A201032E39E07695679577
:10215000579547953A95D1F7302D8AA19BA1ACA10F
:10216000BDA1480F591F6A1F7B1FCE010E94C80CDA
:10217000882309F06DC0EFEFF1E04E225F22C11419
:10218000D10449F0689413F8B694A794979487946F
:102190001694D1F709C0FE01E40DF51D22A9207F98
:1021A000992D9F70822E892A4C0E5D1EF20182AA03
:1021B0004FC0452F562F672F77278AA19BA1ACA12F
:1021C000BDA1480F591F6A1F7B1FCE010E94C80C7A
:1021D000882309F03DC0F601EE0FFF1FF170EC0FF0
:1021E000FD1F82AA93AA34C0689416F87695679565
:1021F000579547951694D1F78AA19BA1ACA1BDA193
:10220000480F591F6A1F7B1FCE010E94C80C8823EC
:10221000F9F49601220F331F220F331F3170FE0194
:10222000E20FF31F45A950E060E070E0742F6627CD
:1022300055274427407050706070707F4829592995
:102240006A297B2942AB53AB64AB75AB01C082E01A
:1022500091E09C8303C082E001C082E0DF91CF91D6
:102260001F910F91FF90EF90DF90CF90BF90AF90B4
:102270009F908F907F906F905F904F9008952F92D6
:102280003F924F925F926F927F928F929F92AF9206
:10229000BF92CF92DF92EF92FF920F931F93CF9353
:1022A000DF9300D000D0CDB7DEB71C0149835A833D
:1022B0006B837C834115510561057105C1F4DC0117
:1022C0001A968D909D90AD90BC901D9781149104AD
:1022D000A104B10451F15A968D919D910D90BC913C
:1022E000A02D88169906AA06BB0620F527C04981AD
:1022F0005A816B817C810E94160E8B019C01623099
:1023000071058105910508F4ADC0F101828D938DB1
:10231000A48DB58D081719072A073B0708F4B6C026
:1023200089809A80AB80BC8009C08824992454019C
:10233000839404C088249924540183947501640112
:10234000442455243201689441F80894C11CD11CDE
:10235000E11CF11CF101828D938DA48DB58DC81601
:10236000D906EA06FB0648F0F2E08F169104A104B4
:10237000B10408F47CC073016201C101B701A60178
:102380000E94160E8B019C01611571058105910556
:10239000A9F00F3F8FEF18078FEF28078FEF38074F
:1023A00009F474C0013011052105310509F46EC02E
:1023B000C814D904EA04FB0441F65DC08C2C4D2CF2
:1023C000BE2CAF2CC1014C2D5D2D6E2D7F2D0FEF3E
:1023D0001FEF2FEF3FE00E9430108823E9F589813D
:1023E0009A81AB81BC810097A105B10569F0C1015B
:1023F00049815A816B817C810C2D1D2D2E2D3F2D05
:102400000E943010882341F5D1011A968C921A97B8
:102410001B964C921B971C96BC921C971D96AC92D7
:102420001D971E968D919D910D90BC91A02D8F3F73
:10243000EFEF9E07EFEFAE07EFEFBE0701F1019759
:10244000A109B109F10186879787A08BB18B81E043
:102450008583970186011AC08130A1F40FEF1FEF29
:10246000980114C001E010E020E030E00FC000E06F
:1024700010E098010BC000E010E0980107C0970140
:10248000860104C001E010E020E030E0602F712FF1
:10249000822F932F0F900F900F900F90DF91CF917D
:1024A0001F910F91FF90EF90DF90CF90BF90AF9072
:1024B0009F908F907F906F905F904F903F902F9064
:1024C00008958F929F92AF92BF92CF92DF92EF9238
:1024D000FF920F931F93CF93DF938C01EB01DC01ED
:1024E0001496ED90FC9015970894E11CF11CE114F2
:1024F000F10409F40BC11E968D919D910D90BC9134
:10250000A02D0097A105B10509F402C10F2EFFE02F
:10251000CF2EDD24F02DCE20DF20C114D10409F010
:10252000DAC00196A11DB11DF80186879787A08B9F
:10253000B18B4285538564857585411551056105CB
:10254000710551F40190F081E02D80859185E816A8
:10255000F90608F0DFC0BFC00190F081E02D828154
:1025600090E001979701329522952F7023273F70B5
:10257000232782239323009709F0ADC0CF010E9447
:10258000160E4B015C01623071058105910508F45E
:10259000C3C06F3FEFEF7E07EFEF8E07EFEF9E07B1
:1025A00009F4BCC0D801ED91FC91828D938DA48D6E
:1025B000B58D88169906AA06BB0608F47AC020973E
:1025C00009F4AEC0D8011A964D915D916D917C9140
:1025D0001D97CF010E943F114B015C0161157105F0
:1025E0008105910509F49EC0613071058105910551
:1025F00009F49AC06F3FEFEF7E07EFEF8E07EFEF22
:102600009E0709F493C0D8018D919C9140E050E061
:10261000BA010E94C80C882309F08AC0F8018081A1
:102620009181C29660E070E020E032E040E050E04E
:102630000E94EB06D801CD91DC91CE01B501A40139
:102640000E94E00DDC01CB018EA79FA7A8ABB9AB20
:10265000C0E0D1E01BC0D483F8018081918140E0CB
:1026600050E0BA010E94C80C882309F063C0D80169
:10267000ED91FC9186A597A5A0A9B1A90196A11DF0
:10268000B11D86A797A7A0ABB1ABCF5FD801ED91E5
:10269000FC9111978281C817F0F286A597A5A0A991
:1026A000B1A98C1B9109A109B10986A797A7A0AB75
:1026B000B1ABF80182869386A486B586808191812C
:1026C000B501A4010E94E00DDC01CB01F801868771
:1026D0009787A08BB18BD8011596FC92EE92149738
:1026E0008D919C911197C296CC0CDD1CCC0CDD1CFD
:1026F000CC0CDD1CCC0CDD1CCC0CDD1C8C0D9D1D14
:1027000053969C938E93529780E015C084E013C03B
:1027100084E011C084E00FC082E00DC081E00BC0F6
:1027200084E009C087E007C082E005C081E003C003
:1027300081E001C081E0DF91CF911F910F91FF9067
:10274000EF90DF90CF90BF90AF909F908F900895C3
:102750002F923F924F925F926F927F928F929F92B1
:10276000AF92BF92CF92DF92EF92FF920F931F939F
:10277000CF93DF93CDB7DEB72B970FB6F894DEBFBC
:102780000FBECDBF8C012B01DB018C918F3211F07C
:102790008C3549F40894411C511CF80116821782AB
:1027A000108611860CC0D801ED91FC91868997891D
:1027B000A08DB18DF80186839783A087B187D20160
:1027C0008C91803248F4C80160E070E00E944D0FA7
:1027D000F801138A128AA5C1F8E0FA831B821C82D1
:1027E0001D822BE02E831F8218861986F2019F011D
:1027F00081918F32E1F38C35D1F33B872A87D80161
:1028000054962D903C905597C10160E270E02BE00A
:1028100030E040E050E00E94EB06EA85FB858081D5
:102820008E3289F5EEE2D101EC93AA85BB85119633
:102830002C9111972E3261F4F101218312962C9183
:1028400012972E3271F083E090E0A0E0B0E004C077
:1028500082E090E0A0E0B0E02F3259F02C3549F052
:1028600004C083E090E0A0E0B0E0213208F048C16D
:1028700071C14A845B84480E591E80E2D1011B96C7
:102880008C931B9774C1CC24DD24760140E050E08A
:10289000BA01882499245401689483F81982EA853E
:1028A000FB85E40FF51F20812A013B010894411CA0
:1028B000511C611C711C213208F495C02F3209F49F
:1028C0004FC12C3509F44CC12E3229F0C814D9045B
:1028D000EA04FB04C8F0F8E08F169104A104B104E7
:1028E00009F010C12E3209F00FC12981220F220FE9
:1028F0002983B301A201CA80DB80EC80FD808E8039
:102900009F80A884B984CBCF22231CF48981836063
:102910008983822F81588F3118F08F558D3190F532
:10292000EA85FB85E40DF51D3081832F80548F33BC
:1029300020F080548D3708F0E9C0D501C40101971B
:10294000A109B109C816D906EA06FB0608F0E0C0DD
:102950004E5F5F4F6F4F7F4FF101EC0DFD1D2083E8
:10296000D701C6010196A11DB11D820D931DDC0189
:102970003C9382E090E0A0E0B0E0C80ED91EEA1ED1
:10298000FB1E8DCF422F50E04232510509F4C2C0E8
:10299000E7EFF2E06A857B858191882331F090E052
:1029A00048175907C9F786E0BCC07B876A87822F22
:1029B00081548A3120F499819260998308C0822FD2
:1029C00081568A3120F4A981A160A9832052F101A6
:1029D000EC0DFD1D20830894C11CD11CE11CF11CD1
:1029E000B301A2015CCFEA85FB854E0E5F1E898193
:1029F00044E0C114D104E104F10409F48DC0D10113
:102A00009C91953E11F4E5E0EC93F8E08F1691046B
:102A1000A104B10419F4880F880F89832981822FBA
:102A200090E09C01237030702130310509F4406141
:102A30008C7090708430910509F44860D1011B9628
:102A40004C931B9794C0F80146855785608971891E
:102A5000808191810E94C80C882331F5D80152965B
:102A60006D917C915397FB019081992309F490C05B
:102A7000938593FD12C054964D915C9155979B019F
:102A8000255F3F4FDA016B0104C0E217F30709F439
:102A900077C061919D916917C1F3C80160E070E052
:102AA0000E946112882379F2D8015496ED91FC912D
:102AB000559793858430A9F595FF0BC0F8011682D0
:102AC000178210861186138A128A92FF8FCE80E0B9
:102AD00028C092FF23C084E024C0DB011B968C91A8
:102AE0001B9784FF1DC0F801808191810E94FC0624
:102AF000DC01CB01F80186839783A087B18776CE6E
:102B000086E00FC086E00DC086E00BC086E009C0FD
:102B100086E007C086E005C086E003C085E001C00E
:102B200085E02B960FB6F894DEBF0FBECDBFDF91C8
:102B3000CF911F910F91FF90EF90DF90CF90BF90BA
:102B4000AF909F908F907F906F905F904F903F904D
:102B50002F9008954A845B84480E591E84E28ECEDD
:102B60008A859B85480E591E898140E042CFC80165
:102B700060E070E00E944D0F882309F464CF94CF89
:102B8000B601DA011B969C911B9792FFA6CFC9CF85
:102B9000D8015496ED91FC91559793858DCFEF9286
:102BA000FF920F931F93CF938C0160E070E00E941F
:102BB0004D0FC82F882309F03FC0D8011E964D91B4
:102BC0005D916D917C9151978D919C910E94C80C63
:102BD000C82F882389F5D8015296ED91FC9153971F
:102BE0008081853E81F1882371F1C80161E070E048
:102BF0000E946112C82F882301F31EC0F801E288E9
:102C0000F388C70160E070E020E230E040E050E08F
:102C10000E94EB06D80154966D917C915597C7019F
:102C20002BE030E040E050E00E94D606D801ED9164
:102C3000FC91119781E084838C2FCF911F910F918C
:102C4000FF90EF900895F801468557856089718956
:102C5000808191810E94C80CC82F882369F7CECF4C
:102C6000CF93DF93EC0184E017C0888199810E94A3
:102C7000C80C8823E1F4EA89FB8990819923F1F05B
:102C8000953E19F0938593FF16C0CE0160E070E089
:102C90000E946112882359F44E855F85688979897D
:102CA000411551056105710501F7882321F01E8644
:102CB0001F86188A198ADF91CF91089584E0F7CF93
:102CC0007F928F929F92AF92BF92CF92DF92EF92BC
:102CD000FF920F931F93CF93DF93EC014A015B01A7
:102CE000423051056105710508F455C08A8D9B8DF0
:102CF000AC8DBD8D481759076A077B0708F04DC09A
:102D000003C04601570102C077247394CE01B50178
:102D1000A4010E94160E6B017C01611571058105ED
:102D20009105E9F191E0C916D104E104F104C9F17A
:102D30008FEFC8168FEFD8068FEFE8068FEFF806F3
:102D400091F1CE01B501A40100E010E098010E94CC
:102D50003010882349F54E855F85688979894F3F12
:102D60009FEF59079FEF69079FEF790749F04F5F82
:102D70005F4F6F4F7F4F4E875F87688B798B7D8268
:102D80004A8D5B8D6C8D7D8DC416D506E606F706E3
:102D900008F4B7CF09C082E007C082E005C080E038
:102DA00003C082E001C081E0DF91CF911F910F91BC
:102DB000FF90EF90DF90CF90BF90AF909F908F905B
:102DC0007F900895882391F4E0918704F09188041E
:102DD000309709F010826115710511F0FB01108226
:102DE000709388046093870480E008958BE00895D1
:102DF0004F925F926F927F928F929F92AF92BF920B
:102E0000CF92DF92EF92FF920F931F93CF93DF93B6
:102E1000CDB7DEB7A4970FB6F894DEBF0FBECDBF17
:102E20007C017CA36BA3009709F4EAC0FC0111822A
:102E30001082042F0F714E71CE018396BE016F5F19
:102E40007F4F0E947908182F882309F0DAC0CE013D
:102E500047969E8B8D8B6BA17CA1CE0101960E9423
:102E6000A813CB88DC88882321F4C114D10409F489
:102E700086E0402F50E09A012C7130702115310509
:102E800009F45BC0882371F0843009F0B7C0CE012B
:102E900001960E94CF15CB88DC88882309F0AEC04C
:102EA000086007C0F6018385817109F0C2C002FD88
:102EB000C2C003FFC6C00E94DC0DF601668777879B
:102EC000808B918B1386148E158E168E178E8981AA
:102ED0009A81B6010E94FC064B015C01C60140E0EC
:102EE00050E0BA010E942107E981FA8181E08483E0
:102EF00081149104A104B10409F4A3C046A457A409
:102F000060A871A8CF01B501A4010E9460168823B2
:102F100009F074C0E981FA81D501C4010197A109C2
:102F2000B10982879387A487B587CF01B301A20136
:102F30000E94C80C882369F061C0882309F05EC034
:102F4000F601838584FD79C001FF7BC080FD77C0D9
:102F500078C00062A980BA80F50186A597A5A0A9CE
:102F6000B1A9F701828F938FA48FB58FD78EC68EAC
:102F70000483C501B6010E94FC06DC01CB01F70108
:102F800086879787A08BB18BF601878D90E0A0E0B4
:102F9000B0E0782F662755274427868D90E0A0E083
:102FA000B0E0DC0199278827482B592B6A2B7B2B13
:102FB000848D90E0A0E0B0E0482B592B6A2B7B2B4E
:102FC000958D80E0A0E0B0E0842B952BA62BB72B4D
:102FD000F70182879387A487B587168217821086A8
:102FE0001186168A178A108E118EB182A082F50181
:102FF00086819781F7019383828303C0182F01C0D4
:1030000019E0812FA4960FB6F894DEBF0FBECDBF96
:10301000DF91CF911F910F91FF90EF90DF90CF90B4
:10302000BF90AF909F908F907F906F905F904F90E8
:10303000089587E0E3CF88E0E1CF84E0DFCF87E049
:10304000DDCF03FF87CF85CF2F923F924F925F92C4
:103050006F927F928F929F92AF92BF92CF92DF92A8
:10306000EF92FF920F931F93CF93DF93CDB7DEB70D
:1030700029970FB6F894DEBF0FBECDBF9C838B831C
:10308000A62E972EC22EF32EE42ED52E1801D8018F
:103090001D921D921D921C9213970E94BC07B82E80
:1030A000882309F0E1C1EB81FC81848188230CF441
:1030B000D3C180FFD5C142855385648575858681DE
:1030C0009781A085B185481B590B6A0B7B0B4C2C53
:1030D0005F2C6E2C7D2C441555056605770510F484
:1030E0002A013B01411451046104710409F4BCC17B
:1030F000A9829A820B811C81005E1F4F1E830D8363
:10310000BF822B813C81398728873C822B82A8850E
:10311000B98516964D915D916D917C911997DB0162
:10312000CA019170A070B0700097A105B10509F0B7
:103130003FC1A885B985ED91FC91DB01CA01072E3D
:1031400079E0B695A795979587957A95D1F7702DE3
:1031500002810150082309F044C041155105610561
:10316000710539F4E885F98586859785A089B18947
:103170000DC0A885B98552964D915D916D917C9158
:103180005597CF010E94160EDC01CB0182309105CC
:10319000A105B10548F4E885F985848180688483B8
:1031A000BB246894B1F860C18F3FFFEF9F07FFEF2A
:1031B000AF07FFEFBF0779F4088519851C830B83E0
:1031C000D80114968C911497806814968C93149758
:1031D000BB24B39449C1E885F985828B938BA48B7A
:1031E000B58BA885B9852D903C90119752964D913D
:1031F0005D916D917C915597C1010E94E00DDC01BC
:10320000CB010097A105B10549F4E885F9858481D2
:1032100080688483BB246894B1F826C1402F50E0B5
:1032200060E070E04C015D01840E951EA61EB71E85
:10323000730162010B2EB9E0F694E794D794C7941A
:10324000BA95D1F7B02DC114D104E104F10409F409
:1032500060C0D10112962C91D701C601840F951F31
:10326000A61FB71F422F50E060E070E048175907D3
:103270006A077B0748F4822F90E0801B91096C015C
:10328000EE24D7FCE094FE2CF101818169817A81E2
:10329000A50194010C2D0E949302882379F00885E2
:1032A00019851C830B83D80114968C911497806820
:1032B00014968C931497BB24B394D6C0E885F985F3
:1032C000848186FF1CC086899789A08DB18D88195D
:1032D0009909AA09BB098C159D05AE05BF0578F4AF
:1032E000982F8827990F09811A81800F911F6D816E
:1032F0007E8120E032E040E050E00E94D6060B2EB6
:10330000B9E0CC0CDD1CEE1CFF1CBA95D1F7B02D3A
:1033100079C0A885B98556960D911D912D913C9146
:103320005997081519052A053B05D1F114968C917A
:10333000149786FF1FC0F10181816D817E81A901F3
:10334000980101E00E94ED02882379F00885198533
:103350001C830B83D80114968C9114978068149663
:103360008C931497BB24B3947FC0E885F98584813E
:103370008F7B8483A885B985ED91FC9181816D81D6
:103380007E81A501940101E00E949302882341F00F
:10339000E885F985848180688483BB24B39464C004
:1033A000A885B98556968D929D92AD92BC925997FB
:1033B000E885F9854681578160857185DB01CA0101
:1033C0009170A070B07000E012E020E030E0081BC7
:1033D000190B2A0B3B0B7301620104151505260519
:1033E000370510F468017901BA017170605E7F4F92
:1033F00028853985620F731F89819A81A7019601FB
:103400000E94D60689819A818C0D9D1D9A8389839D
:10341000E885F98586819781A085B1858C0D9D1DF4
:10342000AE1DBF1D86839783A087B187EB81FC818A
:1034300080819181A281B3818C0D9D1DAE1DBF1D28
:1034400080839183A283B3834C185D086E087F0844
:1034500009F05DCEBF8008C0BB246894B1F804C0F9
:103460000F2EF7E0BF2EF02D8B2D29960FB6F89476
:10347000DEBF0FBECDBFDF91CF911F910F91FF90A7
:10348000EF90DF90CF90BF90AF909F908F907F9004
:103490006F905F904F903F902F9008952F923F92A2
:1034A0004F925F926F927F928F929F92AF92BF9254
:1034B000CF92DF92EF92FF920F931F93CF93DF9300
:1034C000CDB7DEB729970FB6F894DEBF0FBECDBFDC
:1034D0002C01C62EF72E49015A011A830983D801FF
:1034E0001D921D921D921C9213970E94BC07182FCB
:1034F000882309F017C2F201848188230CF40FC2DB
:1035000081FF0FC282859385A485B585B501A4018D
:10351000480F591F6A1F7B1F481759076A077B0707
:1035200008F4E2C181149104A104B10409F4DCC1DE
:10353000CB82FC829201205E3F4F3E832D831F830E
:1035400059864886A885B98516964D915D916D91ED
:103550007C911997DB01CA019170A070B07000973F
:10356000A105B10509F060C1E885F98520813181A7
:10357000DB01CA01072E79E0B695A7959795879547
:103580007A95D1F7702DF90112811150182309F0A5
:1035900057C04115510561057105C9F4E885F985E4
:1035A00086859785A089B1890097A105B10509F5A0
:1035B000C90140E050E0BA010E943F11DC01CB019B
:1035C000E885F98586879787A08BB18B0DC0A88584
:1035D000B98552964D915D916D917C915597C90138
:1035E0000E943F11DC01CB010097A105B10509F450
:1035F00078C181309105A105B10541F44884598411
:10360000F20184818068848312E08CC18F3FFFEFD8
:103610009F07FFEFAF07FFEFBF0761F448845984AE
:10362000D20114968C911497806814968C931497F9
:1036300011E078C1E885F985828B938BA48BB58BDB
:10364000A885B98514968C91149786FF21C0ED91B9
:10365000FC91119756962D913D914D915C91599702
:1036600081816D817E8101E00E94ED02882341F01D
:1036700048845984F20184818068848311E052C1B6
:10368000A885B98514968C9114978F7B14968C938A
:10369000E885F9852080318042895389648975895C
:1036A000C1010E94E00DDC01CB010097A105B1052D
:1036B00061F448845984D20114968C9114978068DF
:1036C00014968C93149712E02DC1412F50E060E0C6
:1036D00070E02C013D01440E551E661E771E7501DB
:1036E00064010B2EB9E0F694E794D794C794BA9589
:1036F000D1F7B02DC114D104E104F10409F460C084
:10370000F1012281D701C601840F951FA61FB71FA3
:10371000422F50E060E070E0481759076A077B07C6
:1037200048F4822F90E0811B91096C01EE24D7FCB4
:10373000E094FE2CD10111968C916B817C81A301C8
:1037400092010C2D0E94ED02882341F04884598497
:10375000F20184818068848311E0E4C0E885F98502
:1037600086899789A08DB18D84199509A609B70915
:103770008C159D05AE05BF05C8F4BC01762F6627E4
:10378000770F0B811C81600F711F8D819E8120E05E
:1037900032E040E050E00E94D606A885B985149634
:1037A0008C9114978F7B14968C9314970B2EB9E001
:1037B000CC0CDD1CEE1CFF1CBA95D1F7B02D65C0FA
:1037C000E885F98586899789A08DB18D8415950541
:1037D000A605B70509F186819781A085B185428547
:1037E00053856485758584179507A607B707A0F4E8
:1037F000D10111968C916D817E81A301920101E02E
:103800000E949302882341F048845984F201848104
:103810008068848311E086C0A885B98556964D924C
:103820005D926D927C925997E885F9854681578122
:1038300060857185DB01CA019170A070B07000E0F5
:1038400012E020E030E0081B190B2A0B3B0B75013E
:103850006401081519052A053B0510F46801790172
:10386000CA019170809628853985820F931F6B81DC
:103870007C81A70196010E94D606A885B985149679
:103880008C911497806414968C93EB81FC81EC0DE1
:10389000FD1DFC83EB83E885F98586819781A085F2
:1038A000B1858C0D9D1DAE1DBF1D86839783A0879E
:1038B000B187E981FA8180819181A281B3818C0DE8
:1038C0009D1DAE1DBF1D80839183A283B3838C1881
:1038D0009D08AE08BF0809F035CE1F814884598481
:1038E00003C01F8148845984F20186819781A08595
:1038F000B1854285538564857585481759076A07E0
:103900007B0720F482879387A487B587D20114961A
:103910008C911497806214968C93149703C012E0D4
:1039200001C017E0812F29960FB6F894DEBF0FBEB5
:10393000CDBFDF91CF911F910F91FF90EF90DF905E
:10394000CF90BF90AF909F908F907F906F905F903F
:103950004F903F902F9008950F931F93CF93DF9335
:10396000EC010E94BC07882309F04CC09C8195FFA4
:1039700049C096FF12C0E881F981BE01605E7F4FA9
:103980002E893F89488D598D818101E00E94ED0289
:103990008823B9F58C818F7B8C834A8D5B8D6C8DF0
:1039A0007D8D888199810E94C80C882359F50E8DE0
:1039B0001F8DF8018385806283878A85848F8B853C
:1039C000858F8C85868F8D85878F4E855F856889ED
:1039D0007989C8010E9421070E94DC0DF801668BDD
:1039E000778B808F918F128A138A8C818F7D8C8345
:1039F000E881F98181E08483888199810E944E0D5C
:103A000001C081E0DF91CF911F910F910895CF9375
:103A1000DF93EC010E94AC1C882311F419821882F8
:103A2000DF91CF910895882319F4109289040895A5
:103A30008BE00895EF92FF921F93CF93DF93CDB762
:103A4000DEB7A4970FB6F894DEBF0FBECDBF9CA320
:103A50008BA3CE018396BE016F5F7F4F40E00E9433
:103A60007908182F882381F5CE0147969E8B8D8B80
:103A70006BA17CA1CE0101960E94A813182F882368
:103A800001F5EB89FC89309759F4E981FA818F813E
:103A90009885A985BA85868B978BA08FB18F14C026
:103AA000838584FF1EC0E980FA80C701BF010E94A0
:103AB000FC06DC01CB01F701868B978BA08FB18FC1
:103AC00003C0843009F415E0812FA4960FB6F89452
:103AD000DEBF0FBECDBFDF91CF911F91FF90EF9062
:103AE000089515E0F1CF2F923F924F925F926F921F
:103AF0007F928F929F92AF92BF92CF92DF92EF927E
:103B0000FF920F931F93CF93DF9300D000D000D08C
:103B1000CDB7DEB79E838D836A017B010E94BC070F
:103B2000182F882309F0E6C1AD81BE8114962C912F
:103B3000149722230CF4DDC11A968D919D910D905E
:103B4000BC91A02D8C159D05AE05BF0520F421FD6F
:103B500002C06C017D01ED81FE8146815781608547
:103B600071851682178210861186C114D104E10472
:103B7000F10409F4BFC120803180F101828190E01D
:103B8000A0E0B0E04C015D01072E79E0880C991CA3
:103B9000AA1CBB1C7A95D1F7702D41155105610502
:103BA0007105F1F12A013B010894410851086108AF
:103BB0007108C701B6016150704080409040A50176
:103BC00094010E94522929833A834B835C83C30169
:103BD000B201A50194010E94522989819A81AB8189
:103BE000BC8182179307A407B507D0F088279927CF
:103BF000DC0188199909AA09BB0984219521A6210C
:103C0000B721ED81FE8186839783A087B187C81A8B
:103C1000D90AEA0AFB0A428953896489758942C034
:103C2000AD81BE811E964D915D916D917C915197B4
:103C3000411551056105710569F5C10140E050E08C
:103C4000BA010E943F11AB01BC0141305105610531
:103C5000710539F4ED81FE8184818068848312E0EE
:103C600049C14F3FFFEF5F07FFEF6F07FFEF7F0790
:103C700059F4AD81BE8114968C9114978068149686
:103C80008C93149711E036C1ED81FE8146875787EA
:103C9000608B718BAD81BE8152964D935D936D9318
:103CA0007C935597411551056105710509F4AAC02A
:103CB0008C149D04AE04BF0408F068C04D805E8083
:103CC000F201848181FF0CC0808191810E943F11AB
:103CD000AB01BC01411551056105710539F452C0B4
:103CE000808191810E94160EAB01BC014F3FBFEF56
:103CF0005B07BFEF6B07BFEF7B0741F45E824D822E
:103D0000F20184818068848311E0F4C0423051055F
:103D10006105710560F0D201ED91FC91828D938D6A
:103D2000A48DB58D481759076A077B0740F05E825E
:103D30004D82F20184818068848312E0DBC0D2016D
:103D400052964D935D936D937C93559716968D91F6
:103D50009D910D90BC91A02D880D991DAA1DBB1D94
:103D6000F20186839783A087B187C818D908EA082B
:103D7000FB088C149D04AE04BF0408F4A1CF5E823E
:103D80004D8204C05E824D8275016401ED81FE8129
:103D900086819781A085B1858C0D9D1DAE1DBF1DAF
:103DA00086839783A087B187D701C6019170A070E1
:103DB000B0700097A105B10549F1808191810E9401
:103DC000E00DDC01CB010097A105B10559F4AD81EF
:103DD000BE8114968C911497806814968C931497D6
:103DE00012E088C046015701072E79E0B694A794E7
:103DF000979487947A95D1F7702D880E991EAA1EF4
:103E0000BB1E07C088249924540103C08824992428
:103E10005401ED81FE8186819781A085B1859170E5
:103E2000A070B0700097A105B10509F44BC0C68819
:103E3000D788E08CF18CC814D904EA04FB0409F497
:103E400041C0848186FF1FC00190F081E02D6D810B
:103E50007E81605E7F4F8181A701960101E00E9413
:103E6000ED02882359F0AD81BE8114968C91149790
:103E7000806814968C93149711E03CC0ED81FE810C
:103E800084818F7B8483AD81BE81ED91FC911197FC
:103E9000BD01605E7F4F8181A501940101E00E9418
:103EA0009302882339F0ED81FE81848180688483C8
:103EB00011E020C0AD81BE8156968D929D92AD924B
:103EC000BC925997ED81FE8186819781A085B1854D
:103ED0004285538564857585481759076A077B07AE
:103EE00048F482879387A487B5878481806284831E
:103EF00001C012E0812F26960FB6F894DEBF0FBEE8
:103F0000CDBFDF91CF911F910F91FF90EF90DF9088
:103F1000CF90BF90AF909F908F907F906F905F9069
:103F20004F903F902F900895EF92FF920F931F9321
:103F3000CF93DF93CDB7DEB72E970FB6F894DEBFE1
:103F40000FBECDBF8C017E876D87009709F44CC0F2
:103F5000CE010D96B80140E00E947908D801ED909D
:103F6000FC9011978823E1F5CE01019655969C931C
:103F70008E9354976D857E85C8010E94A81388236F
:103F800011F5D8015296ED91FC915397309771F04D
:103F9000838584FF1BC0C701BF010E94FC06DC01B2
:103FA000CB01F80186839783A087B187D701169646
:103FB0008D919C911797F80193838283C80160E0EB
:103FC00070E00E944D0F843011F404C085E0882316
:103FD00061F001C085E0D80111961C921E9205C0C7
:103FE000F8011182108201C089E02E960FB6F89474
:103FF000DEBF0FBECDBFDF91CF911F910F91FF901C
:10400000EF900895CF92DF92EF92FF921F93CF939C
:10401000DF93CDB7DEB72C970FB6F894DEBF0FBE97
:10402000CDBF7C016B010E94BC07182F882381F54E
:10403000C114D10439F4C70160E070E00E944D0F53
:10404000182F26C0CE010196F701958B848BC701EE
:104050000E943016843031F4F70116861786108AD4
:10406000118A02C0882389F4C701B6010E942A0779
:10407000C70160E070E00E946112843041F4F701F2
:1040800016861786108A118A03C0182F01C0182FB0
:10409000812F2C960FB6F894DEBF0FBECDBFDF91F7
:1040A000CF911F91FF90EF90DF90CF900895EF9206
:1040B000FF921F93CF93DF93CDB7DEB7A4970FB6D0
:1040C000F894DEBF0FBECDBF9CA38BA37B01CE01B6
:1040D0008396BE016F5F7F4F40E00E947908182FE2
:1040E0008823C1F4CE0147969E8B8D8B6BA17CA15A
:1040F000CE0101960E94A813182F882359F48B89AA
:104100009C89009731F0CE010196B7010E942A07E1
:1041100001C016E0812FA4960FB6F894DEBF0FBE43
:10412000CDBFDF91CF911F91FF90EF9008952F9217
:104130003F924F925F926F927F928F929F92AF9237
:10414000BF92CF92DF92EF92FF920F931F93CF9384
:10415000DF93CDB7DEB72C970FB6F894DEBF0FBE56
:10416000CDBF9A83898378876F838A01CE010196B8
:10417000BA0140E00E947908B82ED8018D909C9039
:104180001197882309F003C1F40186859785A089DA
:10419000B189C28CD38CE48CF58CB701A601425056
:1041A000504060407040481759076A077B0738F055
:1041B000EF81F88580839183A283B383E8C0A080D8
:1041C000B1E0AB16D9F5CC24DD2476016894C1F8B2
:1041D000442455243201C401B701A6010E94160EE1
:1041E000DC01CB018F3FEFEF9E07EFEFAE07EFEF64
:1041F000BE0709F4B0C081309105A105B10509F4ED
:10420000ADC00097A105B10529F40894411C511CCB
:10421000611C711C0894C11CD11CE11CF11CF4012F
:10422000828D938DA48DB58DC816D906EA06FB063E
:1042300090F246865786608A718AA2C082A193A1B5
:10424000A4A1B5A18B839C83AD83BE83E0E0F0E0A5
:1042500000E010E09801442455243201A4014E5C92
:104260005F4F5C874B870115110521053105D9F496
:10427000C4014B815C816D817E810E94C80C8823C2
:1042800009F070C08B819C81AD81BE810196A11D1A
:10429000B11D8B839C83AD83BE83EB85FC8500E0E1
:1042A00012E020E030E092E0A916B1F4A181AA87E3
:1042B0001986808190E049855A85842B952B00973B
:1042C00029F40894411C511C611C711C3296025047
:1042D00010402040304033C0838190E0A0E0B0E047
:1042E000782F662755274427828190E0A0E0B0E030
:1042F000DC0199278827482B592B6A2B7B2B80813F
:1043000090E0A0E0B0E0842B952BA62BB72B31805A
:104310002224A10160E070E0842B952BA62BB72B03
:10432000BF700097A105B10529F40894411C511CE8
:10433000611C711C34960450104020403040089499
:10434000C108D108E108F108C114D104E104F10465
:1043500009F089CF08C0BB24B39405C0BB2468947E
:10436000B1F801C0B82ED4011E964D925D926D92A7
:104370007C925197B3E0AB1619F481E0F401858388
:10438000AF81B8854D925D926D927C9213978B2D83
:104390002C960FB6F894DEBF0FBECDBFDF91CF9144
:1043A0001F910F91FF90EF90DF90CF90BF90AF9053
:1043B0009F908F907F906F905F904F903F902F9045
:1043C0000895CF92DF92EF92FF920F931F93CF93B6
:1043D000DF93EC01009709F469C00E94BC078823B1
:1043E00009F065C09C81992324F091FD69C087E0A4
:1043F0005EC082E05CC04A875B876C877D878C816A
:1044000080628C83411551056105710569F44E8503
:104410005F8568897989888199810E9460161E86E6
:104420001F86188A198A3CC04A895B896C897D89F4
:10443000888199810E94160E6B017C0181E0C8166B
:10444000D104E104F10409F44AC081E09FEFC916E8
:104450009FEFD9069FEFE9069FEFF90609F080E08C
:10446000882301F5E881F981428D538D648D758D26
:10447000C416D506E606F706D0F44A895B896C892E
:104480007D89CF010FEF1FEF2FEF3FE00E9430102B
:10449000882341F488819981B701A6010E946016A2
:1044A000882329F09C8190689C8301C089E0DF917A
:1044B000CF911F910F91FF90EF90DF90CF900895D3
:1044C0004E815F81688579850A851B852C853D85B0
:1044D000401751076207730708F48DCFE8CF82E0D9
:1044E000E1CFCF92DF92EF92FF921F93CF93DF93B2
:1044F000CDB7DEB7EA970FB6F894DEBF0FBECDBFDB
:104500009AAF89AFCE01C996BE016F5F7F4F41E080
:104510000E947908882309F063C0CE018D969E8B96
:104520008D8B69AD7AADCE0101960E94A8138823C8
:1045300009F056C0ED89FE89838585FF5FC086E05E
:104540004FC0FB01138510FF60C087E049C086E0C3
:1045500047C0F2E0CF16D104E104F10408F45EC0D4
:10456000CE014796BE016F5F7F4F26E130E040E00D
:1045700050E00E94D606CD8EDE8EEF8EF8A2CE01E0
:10458000479662E070E00E944D0F882349F5CE0106
:1045900047960E943016882371F0E981FA81468996
:1045A0005789608D718D4C155D056E057F0529F06D
:1045B0008430B1F115C087E013C087E011C0C11489
:1045C000D104E104F10441F089819A81B701A60187
:1045D0000E946016882321F489819A810E944E0DE1
:1045E000EA960FB6F894DEBF0FBECDBFDF91CF9134
:1045F0001F91FF90EF90DF90CF9008956B897C8999
:104600006115710509F09DCFA2CF89819A810E9421
:10461000FC066B017C0114FD9CCF02C082E0E0CF60
:10462000CE0101960E941210882349F2D9CF2F9211
:104630003F924F925F926F927F928F929F92AF9232
:10464000BF92CF92DF92EF92FF920F931F93CF937F
:10465000DF93CDB7DEB7A8970FB6F894DEBF0FBED5
:10466000CDBF9CA38BA30E94DC0D6B017C01CE010E
:104670008396BE016F5F7F4F41E00E947908182F3B
:10468000882309F0F6C0CE0147969E8B8D8B6BA1D7
:104690007CA1CE0101960E94A813882349F08430A2
:1046A00041F4ED89FE89838585FFFDC086E001C068
:1046B00088E0182FDEC081E04816510461047104BF
:1046C00009F401C1EFEF4E16EFEF5E06EFEF6E0655
:1046D000EFEF7E0609F4F9C001C017E0112309F0DD
:1046E000A8C089819A8140E050E0BA010E94C80CBC
:1046F000182F882309F09DC009811A81C801B301D0
:10470000A2010E94E00D4B015C010F2EF2E32F2E5F
:104710003324F02D200E311EC10160E070E020E056
:1047200032E040E050E00E94EB06C10160E270E040
:104730002BE030E040E050E00E94EB068EE2F80112
:1047400082AB80E185AFCDA2E85BFF4FC0828D2DAB
:1047500099278EA3F801E75BFF4F8083C701AA2743
:10476000BB278FA3F801E65BFF4F8083CF2CDD24AE
:10477000EE24FF24C8A6F801E55BFF4FC082C1010B
:10478000B301A2010E9421070F2EF2E5CF2EDD24F6
:10479000F02DC00ED11EC601B10120E230E040E094
:1047A00050E00E94D606F801ED5AFF4F8EE280835A
:1047B0004F81588569857A85E981FA8180818330C6
:1047C00061F486A197A1A0A5B1A584179507A607B6
:1047D000B70719F440E050E0BA01C6010E94210772
:1047E000E981FA810281002309F471C0CC24C394C9
:1047F00089819A81FC0186A697A6A0AAB1AA0894ED
:10480000811C911CA11CB11CC48240E050E0BA0183
:104810000E94C80C182F882361F4C10160E070E089
:1048200020E032E040E050E00E94EB06015001F74A
:104830004EC089819A81B301A2010E94601619C0FD
:10484000EB89FC8980E183878DA1868B8EA1878B84
:104850008FA1808F88A5818FCF01B301A2010E9413
:10486000210789819A8121E0FC0124830E944E0D59
:10487000182F812FA8960FB6F894DEBF0FBECDBFBC
:10488000DF91CF911F910F91FF90EF90DF90CF902C
:10489000BF90AF909F908F907F906F905F904F9060
:1048A0003F902F90089589819A8140E050E0BA01AD
:1048B0000E943F112B013C01611571058105910595
:1048C00009F40BCFF8CE12E0B4CF11E0B2CFCE0195
:1048D00001960E94CF15182F882309F4B1CFA9CFD4
:1048E0000F931F93CF93DF93CDB7DEB7A4970FB687
:1048F000F894DEBF0FBECDBF9CA38BA3062F142F51
:10490000CE018396BE016F5F7F4F41E00E94790820
:10491000882329F5CE0147969E8B8D8B6BA17CA1B8
:10492000CE0101960E94A8138823C9F4ED89FE895F
:10493000838585FF1FC086E012C01772912F909566
:10494000838589230123182F102B138789819A814E
:1049500021E0FC0124830E944E0D01C086E0A49654
:104960000FB6F894DEBF0FBECDBFDF91CF911F9180
:104970000F910895EB89FC893097F9F6EFCF0F93EB
:104980001F93CF93DF93CDB7DEB7A4970FB6F894FC
:10499000DEBF0FBECDBF9CA38BA38B01CE01839640
:1049A000BE016F5F7F4F41E00E947908882361F567
:1049B000CE0147969E8B8D8B6BA17CA1CE0101967B
:1049C0000E94A813882301F5ED89FE89838585FF60
:1049D00026C086E019C0D80116968C911697868B52
:1049E00017968C911797878B14968C911497808FBC
:1049F00015968C91818F89819A8121E0FC01248315
:104A00000E944E0D01C086E0A4960FB6F894DEBF5A
:104A10000FBECDBFDF91CF911F910F910895EB890C
:104A2000FC893097C1F6EFCFEF92FF920F931F935F
:104A3000CF93DF93CDB7DEB7CF54D0400FB6F89405
:104A4000DEBF0FBECDBF60969FAF8EAF60978B016C
:104A5000CE01825B9F4FBE016F5F7F4F41E00E949E
:104A60007908882309F0B7C089819A81988F8F8B44
:104A7000CE018E5B9F4F9E8B8D8B60966EAD7FAD12
:104A80006097CE0101960E94A813882309F0A3C065
:104A9000ED89FE89838585FFACC086E09CC0655F9B
:104AA0007F4FCE018D9625E130E040E050E00E943E
:104AB000D606CE014796BE016F5F7F4F26E130E0FC
:104AC00040E050E00E94D606CE014796B8010E9411
:104AD000A813882309F47CC0843009F07CC0CE017F
:104AE00047960E94CF15882309F075C009A51AA51D
:104AF000C8010D96BE01615D7F4F23E130E040E0CB
:104B000050E00E94D6068DA58062F8018387E98077
:104B1000FA8081E0F70184834F81588569857A8521
:104B20008D8D9E8DAF8DB8A1481759076A077B07F9
:104B300009F443C0F801838584FF3FC0C701B80171
:104B40000E94FC06AB01BC01C7010E94E00DAB0155
:104B5000BC01411551056105710509F451C0C7013A
:104B60000E94C80CE981FA818823A9F5DF01AD5ABA
:104B7000BF4F8C918E3209F58081833069F44D8D61
:104B80005E8D6F8D78A186A197A1A0A5B1A54817CC
:104B900059076A077B0729F04D8D5E8D6F8D78A1CF
:104BA00003C040E050E0BA01CF018E5A9F4F0E94EF
:104BB0002107E981FA8181E08483CE0101960E9478
:104BC0001210882341F489819A810E944E0D03C0FE
:104BD00088E001C084E0C15BDF4F0FB6F894DEBF10
:104BE0000FBECDBFDF91CF911F910F91FF90EF903E
:104BF00008956B897C896115710509F050CFEACF62
:104C000082E0E9CF1F920F920FB60F9211248F937B
:104C10009F938091D3089091D4088130910559F4E5
:104C20005E9A8091D3089091D40801969093D4080D
:104C30008093D3080DC08091D3089091D40882301E
:104C4000910511F45E9804C01092D4081092D30814
:104C50009F918F910F900FBE0F901F901895CF933B
:104C6000DF9300D000D0CDB7DEB792E499838A837A
:104C70006B83CE01019663E00E94F2270E94E72732
:104C80008823E1F780918C0481700F900F900F9032
:104C90000F90DF91CF9108950F931F93CF93DF93E0
:104CA00000D000D0CDB7DEB78B0192E499838A8320
:104CB000CE01019662E00E94F22783E48983CE014F
:104CC000019662E00E94F227CE01019662E00E9406
:104CD00028288A81F801808380918C0481700F904C
:104CE0000F900F900F90DF91CF911F910F9108952A
:104CF0000F931F93CF93DF931092D4081092D30891
:104D000052985A9A81E08DBB82E08093690082E1DB
:104D100060E80E942F268823F1F08FE295E7019743
:104D2000F1F700C00000C6E3D3E004E814E0FE01A0
:104D30003197808168810E942F26882371F087EB4C
:104D40009BE00197F1F700C000002296C017D10741
:104D500071F780E003C081E001C081E0DF91CF9175
:104D60001F910F9108955F985D985C9A5C985D9A89
:104D70005F9A08958091D3089091D4080097D1F755
:104D80005F9887EB9BE00197F1F700C000005F9A06
:104D900087EB9BE00197F1F700C0000081E090E015
:104DA0009093D4088093D30808958AB1806F8AB90C
:104DB0005F985C9846985D9A5E9888E28A95F1F7CC
:104DC0005C9A88E28A95F1F75C985D9888E28A950A
:104DD000F1F75C9A88E28A95F1F75C985D9A88E22F
:104DE0008A95F1F75F9A80E0089511B85C9A80B1D6
:104DF0005C98382F20E05C9A80B15C9890E0822B20
:104E0000932B08954F925F926F927F928F929F9211
:104E1000AF92BF92CF92DF92EF92FF920F931F93C8
:104E2000CF93DF93CDB7DEB7C454D1400FB6F8941B
:104E3000DEBF0FBECDBF2091D3083091D408223001
:104E4000310509F0A1C05D985C9A5C985D9AA7EB6A
:104E5000BBE01197F1F700C000002C01662457FC5D
:104E60006094762C0F2EF0E08F2EF8E59F2EF2E066
:104E7000AF2EF0E0BF2EF02D840C951CA61CB71CA5
:104E80000F2EF6E8EF2EF2E0FF2EF02DEC0EFD1EB9
:104E90000F2EF3E9CF2EF4E0DF2EF02D4AC00E9452
:104EA000F526F80131971082F80180830E5F1F4FBD
:104EB0000E151F05A1F7C601B501A4010E94731DBF
:104EC000C601BE016B5F7F4F20E832E040E050E05A
:104ED0008E010F5F1F4F0E944E1A8823E9F000D009
:104EE00000D0EDB7FEB7319625E033E0ADB7BEB7E1
:104EF00012963C932E931197828313820E947429F9
:104F00001092D4081092D3080F900F900F900F902A
:104F10000E94B32681E039C080E89DEFAFEFBFEF7C
:104F2000880E991EAA1EBB1E481459046A047B04ED
:104F300021F08E010A5F1F4FB2CF5D985C9A5C989A
:104F40005D9A1092D4081092D3088AE193E00E94EF
:104F5000892983E994E00E94071D00D000D0EDB7B5
:104F6000FEB7319623E233E0ADB7BEB712963C935D
:104F70002E931197828313820E9474290F900F90B1
:104F80000F900F9080E001C082E0CC5BDE4F0FB647
:104F9000F894DEBF0FBECDBFDF91CF911F910F916F
:104FA000FF90EF90DF90CF90BF90AF909F908F9049
:104FB0007F906F905F904F90089584E38093B80046
:104FC0008FEF8093BB0084E08093BC0008958091B4
:104FD000BC00817008950E94E7278823E1F7809143
:104FE000830408950F931F93CF938C01C62F0E94C3
:104FF000E7278823E1F7C0938D04F801808180932F
:105000008E0480FD0CC0C23050F0D8011196EFE83C
:10501000F4E081E09D9191938F5F8C17D9F7109206
:105020008C0488EF8093830485EA8093BC00CF9141
:105030001F910F9108950E94E7278823E1F71092AE
:105040008C0488EF8093830485EA8093BC000895E4
:105050001F93CF93DF93D82F192FC62F0E94E727D6
:105060008823E1F780918C0480FF0DC0CC2359F098
:10507000AEE8B4E09D2FED2FF12F8D9181938E2F0F
:10508000891B8C17D0F380918C048170DF91CF91B4
:105090001F9108951F920F920FB60F9211242F9314
:1050A0003F938F939F93EF93FF938091B900883242
:1050B000D1F0893240F48031A1F08831A1F08830FC
:1050C00009F061C00EC08034B9F1813420F4883316
:1050D00009F059C054C0803519F1883509F053C022
:1050E0003DC0109292048091920490918D04891792
:1050F00070F4E82FF0E0E257FB4F90819093BB00F3
:105100008F5F8093920485E88093BC0043C08091B8
:105110008C04816080938C0484E98093BC003AC045
:10512000809192049091BB00E82FF0E0E257FB4F92
:1051300090838F5F809392042091920430E080915D
:105140008D0490E001972817390724F485EC8093AB
:10515000BC0020C085E88093BC001CC08091BB00CF
:10516000E0919204F0E0E257FB4F808380918C0441
:10517000816080938C0484E98093BC000BC085EA35
:105180008093BC0007C08091B9008093830484E0C1
:105190008093BC00FF91EF919F918F913F912F9150
:1051A0000F900FBE0F901F9018951092C5008CE0C5
:1051B0008093C40088E18093C10086E08093C200A0
:1051C0000895E0ECF0E0908195FFFDCF8093C6005C
:1051D0000895E0ECF0E080818823ECF78091C60030
:1051E0000895CF93C82F8A3019F48DE00E94E128EA
:1051F0008C2F0E94E12880E090E0CF910895EF92FB
:10520000FF920F931F93CF93DF937C01F894C0E03C
:10521000D0E08B01015010400E94E9288D30A9F0A8
:10522000883031F42097C1F321970E94E128F4CF10
:10523000803290F3C017D1077CF7F701EC0FFD1F08
:10524000808321960E94E128E7CFCE0DDF1D1882D2
:105250008AE00E94E1287894DF91CF911F910F910D
:10526000FF90EF900895629FD001739FF001829F9D
:10527000E00DF11D649FE00DF11D929FF00D839FE5
:10528000F00D749FF00D659FF00D9927729FB00D82
:10529000E11DF91F639FB00DE11DF91FBD01CF0195
:1052A00011240895A1E21A2EAA1BBB1BFD010DC0FB
:1052B000AA1FBB1FEE1FFF1FA217B307E407F507C6
:1052C00020F0A21BB30BE40BF50B661F771F881FA2
:1052D000991F1A9469F760957095809590959B0138
:1052E000AC01BD01CF010895A0E0B0E0EAE7F9E22A
:1052F0000C94452CFE013596619171918091830B40
:105300009091840BAF010E94B7292096E2E00C94A3
:10531000612C0F931F93CF93DF938C01E091830B4C
:10532000F091840B838181FF1AC0C0E0D0E005C0FA
:105330000995009711F0CFEFDFEFF80181918F0110
:105340006091830B7091840BDB011896ED91FC91B9
:105350001997882369F78AE00995009711F0CFEF34
:10536000DFEFCE01DF91CF911F910F910895ADE056
:10537000B0E0EDEBF9E20C94352C3C017D876C87B5
:105380005A01FC0117821682838181FFC8C12E0158
:105390000894411C511CF3019381EC85FD8593FD1C
:1053A000859193FF8191FD87EC87882309F4B3C130
:1053B000853241F493FD859193FF8191FD87EC87C0
:1053C000853229F490E0B3010E94AB2BE4CFFF2497
:1053D000EE2410E01032B0F48B3269F08C3228F4F5
:1053E000803251F0833271F40BC08D3239F080334A
:1053F00049F411602CC01260146029C0186027C0E5
:10540000106125C017FD2EC0282F20532A3098F494
:1054100016FF08C08F2D880FF82EFF0CFF0CF80E1A
:10542000F20E15C08E2D880FE82EEE0CEE0CE80E55
:10543000E20E10620CC08E3221F416FD6CC11064B5
:1054400006C08C3611F4106802C0883659F4EC8519
:10545000FD8593FD859193FF8191FD87EC878823DE
:1054600009F0B8CF982F9554933018F0905293309C
:1054700038F424E030E0A20EB31E3FE339830FC0BE
:10548000833631F0833781F0833509F05AC022C06A
:10549000F5018081898322E030E0A20EB31E21E075
:1054A000C22ED12C420114C092E0292E312C2A0C9C
:1054B0003B1CF5018080918016FF03C06F2D70E0CA
:1054C00002C06FEF7FEFC4010E94A02B6C0151015D
:1054D0001F7715C082E0282E312C2A0C3B1CF501C9
:1054E0008080918016FF03C06F2D70E002C06FEFC7
:1054F0007FEFC4010E94952B6C011068510113FDD0
:105500001CC006C080E290E0B3010E94AB2BEA947D
:105510008E2D90E0C816D906A8F30FC0F40117FD30
:10552000859117FF81914F0190E0B3010E94AB2B51
:10553000E110EA940894C108D108C114D10471F7AC
:10554000E7C0843611F0893651F5F50117FF07C021
:1055500080819181A281B38124E030E008C0808104
:105560009181AA2797FDA095BA2F22E030E0A20EE4
:10557000B31E012F0F76B7FF08C0B095A095909588
:1055800081959F4FAF4FBF4F0068BC01CD01A20175
:105590002AE030E00E94D72BD82ED4183FC08537A0
:1055A00021F41F7E2AE030E020C0197F8F36A9F059
:1055B000803720F4883509F0AEC00BC0803721F069
:1055C000883709F0A8C001C0106114FF09C0146039
:1055D00007C014FF08C0166006C028E030E005C010
:1055E00020E130E002C020E132E0F50117FF07C002
:1055F000608171818281938144E050E006C06081C6
:10560000718180E090E042E050E0A40EB51EA2015E
:105610000E94D72BD82ED418012F0F7706FF09C070
:105620000E7FDF1430F404FF06C002FD04C00F7EBD
:1056300002C01D2D01C01F2D802F90E004FF0CC063
:10564000FE01ED0DF11D2081203311F4097E09C00A
:1056500002FF06C01E5F05C086789070009709F0B3
:105660001F5F802E992403FD12C000FF0DC0FD2C8A
:105670001E1550F4FE0CF11A1E2D06C080E290E0BB
:10568000B3010E94AB2B1F5F1E15C0F304C01E1593
:1056900010F4E11A01C0EE2484FE0FC080E390E014
:1056A000B3010E94AB2B82FE1FC081FE03C088E5C0
:1056B00090E010C088E790E00DC0C401867890703B
:1056C000009791F081FC02C080E201C08BE207FDEF
:1056D0008DE290E0B3010E94AB2B06C080E390E026
:1056E000B3010E94AB2BFA94DF14C0F3DA94F201F9
:1056F000ED0DF11D808190E0B3010E94AB2BDD2008
:10570000A9F706C080E290E0B3010E94AB2BEA94B7
:10571000EE20C1F740CEF3018681978102C08FEF62
:105720009FEF2D96E2E10C94512CFC010590615005
:1057300070400110D8F7809590958E0F9F1F0895A7
:10574000FC016150704001900110D8F78095909550
:105750008E0F9F1F08950F931F93CF93DF938C019C
:10576000EB018B8181FF1BC082FF0DC02E813F8129
:105770008C819D812817390764F4E881F9810193B0
:10578000F983E88306C0E885F985802F099500979D
:1057900031F48E819F8101969F838E8302C00FEF2B
:1057A0001FEFC801DF91CF911F910F910895FA016A
:1057B000AA27283051F1203181F1E8946F936E7F50
:1057C0006E5F7F4F8F4F9F4FAF4FB1E03ED0B4E041
:1057D0003CD0670F781F891F9A1FA11D680F791F82
:1057E0008A1F911DA11D6A0F711D811D911DA11D93
:1057F00020D009F468943F912AE0269F11243019A3
:10580000305D3193DEF6CF010895462F4770405D3D
:105810004193B3E00FD0C9F7F6CF462F4F70405DEC
:105820004A3318F0495D31FD4052419302D0A9F747
:10583000EACFB4E0A6959795879577956795BA9541
:10584000C9F700976105710508959B01AC010A2E07
:1058500006945795479537952795BA95C9F7620FDE
:10586000731F841F951FA01D08952F923F924F9282
:105870005F926F927F928F929F92AF92BF92CF92E0
:10588000DF92EF92FF920F931F93CF93DF93CDB7E9
:10589000DEB7CA1BDB0B0FB6F894DEBF0FBECDBF61
:1058A00009942A88398848885F846E847D848C8432
:1058B0009B84AA84B984C884DF80EE80FD800C813B
:1058C0001B81AA81B981CE0FD11D0FB6F894DEBF1E
:0C58D0000FBECDBFED010895F894FFCF8E
:1058DC00424D8A580200000000008A0000007C0043
:1058EC00000040010000F000000001001000030067
:1058FC00000000862500130B0000130B00000000B5
:10590C0000000000000000F80000E00700001F008D
:10591C00000000000000010000000000000000007A
:10592C00000000000000000000000000000000006B
:10593C00000000000000000000000000000000005B
:10594C000000000000000000000003000000000048
:10595C0000000000000000000000010A0A496C2051
:10596C004D6174746F204475616C2043616D657278
:10597C00610A4D43555352203D2025780A00496E4B
:10598C00697469616C6973696E6720494F00496E6F
:10599C00697469616C6973696E6720545749004476
:1059AC0069736B20496E697469616C697365203A1F
:1059BC002025640A002F6C6F672E747874004F706A
:1059CC00656E2046696C65203A2025640A0053797F
:1059DC007374656D205374617274757020436F6DB0
:1059EC00706C6574652E0A005374617274696E670D
:1059FC002043616D65726120496E697469616C69DF
:105A0C0073652E2E2E004F56373637305F30206997
:105A1C006E697469616C6973656420776974682058
:105A2C006578697420636F64652025640A00496D8C
:105A3C006167652066696C65206F70656E696E675D
:105A4C002E00696D616765312E626D700046696C60
:105A5C0065204F70656E6564203A2025640A004607
:105A6C00696C652053697A65206578657263697322
:105A7C0065642E00436C6F73696E672046696C65B4
:105A8C0020313A2025640A00577269746520424D12
:105A9C0050204865616465722E00577269746520E8
:105AAC00444942204865616465722E0050686F74E9
:105ABC006F2054616B656E00000000020000000056
:105ACC00F12800000000222A2B2C3A3B3C3D3E3FA3
