:100000000C94D7010C94F4010C94F4010C94F401B9
:100010000C94F4010C94F4010C94F4010C94F4018C
:100020000C94F4010C94F4010C94F4010C94F4017C
:100030000C94F4010C94F4010C94F4010C94F4016C
:100040000C94F4010C94F4010C94F4010C94F4015C
:100050000C94F4010C94F4010C94F4010C94F4014C
:100060000C94F4010C94F4010C94F4010C94F4013C
:100070000C94F4010C94F4010C94F401257520699E
:1000800074656D2873290A0025396C752020257345
:100090000A002020203C4449523E20202025730A9B
:1000A0000066707472203D20256C75283078256CB0
:1000B00058290A00456E746572206C696E6573205C
:1000C000746F2077726974652E204120626C616EB6
:1000D0006B206C696E652066696E616C697A65205B
:1000E000746865207772697465206F7065726174D9
:1000F000696F6E2E0A00256C752062797465732015
:100100007772697474656E2E0A00202020202020EA
:10011000202020204A574258500A4D435553523A06
:1001200020000A5F5F5F5F5F5F5F5F5F5F5F5F5FD2
:100130005F5F5F5F5F5F5F5F5F5F5F5F5F5F5F5FCF
:100140005F5F5F5F5F5F5F5F5F5F5F5F5F5F5F5FBF
:100150005F5F5F5F5F5F5F5F5F5F5F5F5F5F5F0A04
:10016000205F2020205F2020202020202020202011
:100170005F5F202020205F5F20202020205F5F2005
:100180002020205F5F5F5F5F5F5F20205F5F5F5FBA
:100190005F5F5F2020205F5F5F5F20200A7C207C04
:1001A000207C207C20202020202020207C20205CFF
:1001B00020202F20207C2020202F20205C20207C2D
:1001C0005F5F2020205F5F7C7C5F5F2020205F5F7F
:1001D0007C202F202020205C200A7C207C207C207A
:1001E0007C20202020202020207C2020205C2F200C
:1001F00020207C20202F202F5C205C202020207CB1
:10020000207C2020202020207C207C2020207C207E
:10021000202F5C20207C0A7C207C207C207C2020DD
:100220002020202020207C207C5C20202F7C207C13
:10023000207C207C5F5F7C207C2020207C207C2018
:1002400020202020207C207C2020207C207C20203E
:100250007C207C0A7C207C207C207C20202020208C
:100260002020207C207C205C2F207C207C207C2077
:10027000205F5F20207C2020207C207C20202020EC
:1002800020207C207C2020207C207C20207C207C46
:100290000A7C207C207C207C5F5F5F202020202047
:1002A0007C207C202020207C207C207C207C202026
:1002B0007C207C2020207C207C2020202020207C72
:1002C000207C2020207C20205C2F20207C0A7C5F4A
:1002D0007C207C5F5F5F5F5F7C202020207C5F7CD8
:1002E000202020207C5F7C207C5F7C20207C5F7C29
:1002F0002020207C5F7C2020202020207C5F7C2010
:100300002020205C5F5F5F5F2F200A5F5F5F5F5F81
:100310005F5F5F5F5F5F5F5F5F5F5F5F5F5F5F5FED
:100320005F5F5F5F5F5F5F5F5F5F5F5F5F5F5F5FDD
:100330005F5F5F5F5F5F5F5F5F5F5F5F5F5F5F5FCD
:100340005F5F5F5F5F5F5F0A0A0072633D25640A5B
:100350000020200072633D25752046525F25530A18
:10036000004F4B004449534B5F455252004E4F548F
:100370005F5245414459004E4F5F46494C45004E3F
:100380004F5F50415448004E4F545F4F50454E45CB
:1003900044004E4F545F454E41424C4544004E4F41
:1003A0005F46494C455F53595354454D0000112455
:1003B0001FBECFEFD8E0DEBFCDBF11E0A0E0B1E0BF
:1003C000E0E1F5E202C005900D92A430B107D9F743
:1003D00011E0A4E0B1E001C01D92AB38B107E1F734
:1003E0000E94A1020C9486120C940000CF92DF921E
:1003F000EF92FF921F93CF93DF936C017901CB01B2
:10040000BA0140E128EF0E94461180E20E942E11BD
:1004100010E00EC080E20E942E11CC0DDD1D68811F
:1004200070E080E090E040E12EEF0E9446111F5FF7
:10043000C12FD0E0CE15DF056CF381E593E00E947B
:100440003F1110E00CC0EC0DFD1D9081892F8052F2
:100450008F3508F09EE2892F0E942E111F5FE12F39
:10046000F0E0EE15FF057CF38AE00E942E11DF918B
:10047000CF911F91FF90EF90DF90CF900895482F7C
:1004800021E633E090E007C0F9012F5F3F4FE49190
:10049000EE23D1F79F5F941721F0F901849188230F
:1004A00099F700D000D000D0EDB7FEB7319684E5C3
:1004B00093E0ADB7BEB712969C938E93119742838B
:1004C0001382358324830E948111EDB7FEB73696DF
:1004D0000FB6F894FEBF0FBEEDBF0895EF92FF92E6
:1004E0000F931F93CF93DF93EC0110E0E62EFF24D0
:1004F0000894E108F1080E941B11082F0E941311B3
:100500000D3091F0083021F41123A9F31150F3CFED
:10051000003288F3E12FF0E0EE15FF0564F7EC0FF1
:10052000FD1F00831F5FE7CFC10FD11D18828AE036
:100530000E941311DF91CF911F910F91FF90EF90C7
:1005400008952F923F924F925F926F927F928F9277
:100550009F92AF92BF92CF92DF92EF92FF920F9352
:100560001F93DF93CF93CDB7DEB7CE55D0400FB6F4
:10057000F894DEBF0FBECDBFE4B614BE80E185B9EE
:1005800080EB84B90E94C81083E191E190930A0145
:100590008093090182E291E00E943F118AE091E09C
:1005A0000E943F11FF2400E010E0C801B70142E0C3
:1005B00028EF0E9446118AE00E942E113BE0832E14
:1005C00031E0932E14010894211C311C25E0622E89
:1005D000712C6C0E7D1E97E0492E512C4C0E5D1E29
:1005E0005E010894A11CB11C8EE30E942E118BE0C9
:1005F00091E060E80E946E0280910B013A822982AC
:10060000843619F0863681F762C080910C012DE0A6
:1006100031E03A832983843629F0893629F70E940C
:1006200079061DC0C501B2010E94DF118823E1F2E5
:10063000C501BE01655F7F4F0E94DF118823A1F2D3
:10064000EB84FC844F81588569857A85C1010197C7
:10065000970100E810E00E941D06882381F000D079
:1006600000D0EDB7FEB731962AE433E0ADB7BEB7A0
:1006700012963C932E9311978283138217C280E8BF
:10068000C82ED12CCE0CDF1C9A82898200E810E0A3
:100690001AC098010131110510F020E130E03C83CF
:1006A0002B83A70160E070E089819A810E94F601A6
:1006B00080E190E0E80EF91E89819A8140969A8344
:1006C000898300511040EC14FD0418F38DCF809104
:1006D0000C01ADE0B1E0BA83A9838C3609F46CC19A
:1006E0008D3648F4853609F426C18936A1F0843662
:1006F00009F07ACF21C0803709F4F3C0813720F4A4
:100700008F3609F071CF0FC0843709F455C0873791
:1007100009F06ACF63C0CE01C5960E948B0F58C105
:100720003196FA83E983E981FA8180818032C1F3CD
:10073000CF010E94A90C4CC12F968CAD9DADAEADE2
:10074000BFAD2F978B879C87AD87BE87C10101976F
:1007500060E870E0AE014D5F5F4F0E940F0D88238F
:1007600009F036C19A82898222C09C0181319105AB
:1007700010F020E130E0821B930B9C838B834B8530
:100780005C856D857E8589819A810E94F6018981CB
:100790009A8140969A8389838B859C85AD85BE8599
:1007A0004096A11DB11D8B879C87AD87BE878B812D
:1007B0009C810097D1F618CF80E090E060E070E86F
:1007C000AE014D5F5F4F0E940F0D882309F000C1FD
:1007D0008B819C818050904879F306CFC501B2018E
:1007E0000E94DF11882309F4FFCEC501BE01655FB9
:1007F0007F4F0E94DF11882309F4F6CE2B85EBE0B2
:10080000F1E080E090E002C02193019680389105EC
:10081000D8F39C838B831B861C861D861E8634C062
:100820008C018038910558F080589040A040B0402D
:100830008F839887A987BA8700E810E004C01F82D9
:10084000188619861A868BE091E0B801A3010E94F0
:100850005F0EE82F6D817E819B0140E050E08B852B
:100860009C85AD85BE85820F931FA41FB51F8B8706
:100870009C87AD87BE87EE2321F08E2F0E943F021A
:100880000BC00617170741F48F819885A985BA8593
:100890000097A105B10521F680E090E060E070E0EE
:1008A000A3010E945F0E182F0E943F02112309F03E
:1008B0009BCE00D000D000D026EF30E0EDB7FEB7E1
:1008C000328321838B859C85AD85BE85838394830C
:1008D000A583B6830E9481112DB73EB72A5F3F4F93
:1008E00062C084EB90E00E943F118BE091E060E8F1
:1008F0000E946E0280910B018823A9F08BE091E0A9
:1009000060E071E00E947B12F40101900020E9F7A1
:100910003197EB50F1408BE091E0BF01A3010E94C1
:100920005F0E882311F380E090E060E070E0A301A7
:100930000E945F0E4DC0C501B2010E94DF118823E5
:1009400009F452CE6F81788589859A850E9459096C
:10095000182F0E943F02112309F046CE2F968CAD2E
:100960009DADAEADBFAD2F97EDB7FEB73A970FB6C1
:10097000F894FEBF0FBEEDBF4DB75EB74F5F5F4F40
:1009800021EA30E032832183FA0182839383A483B6
:10099000B58386839783A087B1870E9481112DB785
:1009A0003EB7265F3F4F0FB6F8943EBF0FBE2DBF38
:1009B0001BCE3196FA83E983E981FA818081803206
:1009C000C1F3CE010F96BF010E94530C882319F08A
:1009D0000E943F0209CE1C821B82CE010F96BE01EF
:1009E000615E7F4F0E94890A882319F00E943F02AE
:1009F00051C088A5882309F44DC08FA184FF19C078
:100A000000D000D0E2E9F0E0ADB7BEB71296FC939B
:100A1000EE93119728E230E02C0F3D1F14963C9383
:100A20002E9313970E9481110F900F900F900F90AB
:100A30002BC08DB79EB708970FB6F8949EBF0FBE18
:100A40008DBFEDB7FEB7319628E830E0ADB7BEB741
:100A500012963C932E9311978F8D98A1A9A1BAA1BC
:100A600082839383A483B58388E290E08C0F9D1FDB
:100A7000978386830E948111ADB7BEB718960FB6D3
:100A8000F894BEBF0FBEADBF8B819C8101969C8345
:100A90008B83A3CF00D000D02CE730E0EDB7FEB7BA
:100AA000328321838B819C81948383830E94811173
:100AB0000F900F900F900F9097CDDF92EF92FF92D3
:100AC0000F931F93D82E7A018B0187FF0BC087E706
:100AD00040E050E060E070E00E945D05823098F5F3
:100AE0008FE7D8222C9A0E94C1102C980E94C11026
:100AF0008D2D0E94BB10812F9927AA27BB270E940A
:100B0000BB10C801AA27BB270E94BB10BB27A12F7F
:100B1000902F8F2D0E94BB108E2D0E94BB1080E461
:100B2000D81611F485E906C088E4D81611F487E8D0
:100B300001C081E00E94BB101AE00E94C11087FF33
:100B400002C01150D1F71F910F91FF90EF90DF90ED
:100B500008950F931F93CF93DF938C010097D9F0E3
:100B6000EA010FC0F80181918F010E94BB108091B2
:100B70000401909105010197909305018093040170
:100B80002197209709F452C08091040190910501AA
:100B9000892B41F74BC04115510561057105F9F0ED
:100BA0008091060183FD07C039E0440F551F661F81
:100BB000771F3A95D1F788E50E945D05882311F0EB
:100BC00011E035C08FEF0E94BB108EEF0E94BB106A
:100BD00080E092E0909305018093040127C0C091CA
:100BE0000401D0910501229604C080E00E94BB1050
:100BF00021972097D1F70E94C1108F71853089F419
:100C0000C8E8D3E103C00E94AF1021970E94C11031
:100C10008F3F19F02097B9F704C0CD2B11F010E0E9
:100C200001C011E02C9A0E94C11001C010E0812F78
:100C3000DF91CF911F910F910895CF92DF92EF92A4
:100C4000FF920F931F93CF93DF937C0169018091F3
:100C5000060183FD07C0E9E0440F551F661F771F9B
:100C6000EA95D1F781E50E945D058823A1F5C0E4EE
:100C7000DCE90E94C1108F3F19F42197D1F72BC0F6
:100C80008E3F49F5C114D10429F0E6010E94C1103C
:100C90002197E1F7E114F10449F0E8010E94C11045
:100CA000F70181937F012197C9F707C0E8010E94EE
:100CB000C1100E9413112197D1F7CC27DD27CC1941
:100CC000DD09CE5FDD4FC01BD10B0E94C110219703
:100CD000E1F710E001C011E02C9A0E94C110812FB1
:100CE000DF91CF911F910F91FF90EF90DF90CF9008
:100CF0000895CF92DF92EF92FF920F931F93DF93AD
:100D0000CF9300D000D0CDB7DEB780910601882305
:100D100051F02C9908C080E090E040E050E060E0A5
:100D200070E00E94A9050E94B4102C9A1AE00E945B
:100D3000C1101150E1F780E440E050E060E070E065
:100D40000E945D05813009F069C088E44AEA51E0FB
:100D500060E070E00E945D058130E1F56E0108946D
:100D6000C11CD11C76018E010B5F1F4F0E94C11068
:100D7000F70181937F01E017F107C1F78B81813083
:100D800009F04CC08C818A3A09F048C000E117E2B2
:100D900006C00E94AF100150104009F43FC089EE18
:100DA00040E050E060E070E40E945D05882389F730
:100DB0004CC00E94C110F60181936F01EE15FF0532
:100DC000C1F7898186FD03C004E0F02E28C01CE035
:100DD000F12E25C089EE40E050E060E070E00E9416
:100DE0005D05823028F0B1E4EB2EFF24F39404C0BB
:100DF000A9EEEA2EF2E0FF2E00E117E205C00E9404
:100E0000AF100150104051F08E2D40E050E060E0F6
:100E100070E00E945D05882391F722C0FF24F092C4
:100E200006012C9A0E94C11080E0FF2009F481E0A5
:100E30000F900F900F900F90CF91DF911F910F9116
:100E4000FF90EF90DF90CF9008958AE740E050E068
:100E500060E070E00E945D05882309F4AACFDECF30
:100E600080E540E052E060E070E00E945D0588238C
:100E7000A9F6D5CFCF92DF92EF92FF920F931F93F7
:100E8000CF93DF936C01C0910701D0910801FC0161
:100E900011821082248135814681578121303105AC
:100EA0004105510509F45BC08E819F81A885B985F4
:100EB000281739074A075B0708F051C0211531058B
:100EC0004105510539F48881833021F42E853F8511
:100ED00048895989F6012087318742875387211530
:100EE00031054105510581F18EEFE82E8FEFF82E87
:100EF0008FEF082F8FEF182FE20EF31E041F151F20
:100F00008E819F81A885B9850297A109B109E8164C
:100F1000F9060A071B0728F020E030E040E050E027
:100F200017C02A8130E040E050E0C801B7010E94BC
:100F30003A129B01AC018A899B89AC89BD89280F33
:100F4000391F4A1F5B1F04C02E853F854889598978
:100F5000F601248735874687578780E001C081E006
:100F6000DF91CF911F910F91FF90EF90DF90CF9085
:100F700008956F927F928F929F92AF92BF92CF927D
:100F8000DF92EF92FF920F931F93DF93CF9300D0E6
:100F900000D0CDB7DEB74B015C01609007017090C7
:100FA000080182E088169104A104B10408F4B4C0D9
:100FB000F30186819781A085B18588169906AA06D6
:100FC000BB0608F0A9C08081823009F45FC083307D
:100FD00009F47BC0813009F09FC0C40196958795C4
:100FE000880D991D9C013170892F992786956C0178
:100FF000EE24FF24F3014285538564857585CE0177
:101000000196F1E02F3F3F0749F0C40ED51EE61EC2
:10101000F71EB701A60102E010E01EC04C0D5D1DD9
:101020006E1D7F1D2FEF31E001E010E00E941D06D4
:10103000882309F071C0F301428553856485758565
:101040004F5F5F4F6F4F7F4F4C0D5D1D6E1D7F1DBE
:10105000CE01029620E030E00E941D06882309F0B0
:101060005BC069817A81C40181709070892B39F0ED
:10107000A4E076956795AA95E1F79B0123C09B01B3
:1010800040E050E03F70407050704AC077276B2DB1
:101090005A2D492DF30182859385A485B585480F86
:1010A000591F6A1F7B1F94013070220F331FCE011E
:1010B000019602E010E00E941D06882369F58981EF
:1010C0009A819C0140E050E02BC0B501A40127E0CB
:1010D00076956795579547952A95D1F7F3018285BF
:1010E0009385A485B585480F591F6A1F7B1F9401FE
:1010F0002F773070220F331F220F331FCE0101963E
:1011000004E010E00E941D06882331F429813A8111
:101110004B815C815F7004C021E030E040E050E032
:10112000B901CA010F900F900F900F90CF91DF91EE
:101130001F910F91FF90EF90DF90CF90BF90AF90F5
:101140009F908F907F906F900895AF92BF92CF92B3
:10115000DF92EF92FF920F931F93CF93DF935C0187
:10116000C0910701D0910801FC01C080D180089492
:10117000C11CD11CC114D10409F48FC0248535854C
:1011800046855785211531054105510509F485C06E
:10119000C6018F709070892B09F07AC02F5F3F4F86
:1011A0004F4F5F4F24873587468757874085518546
:1011B00062857385411551056105710539F48C818E
:1011C0009D81C816D90608F463C067C08A8190E083
:1011D00001979601E4E036952795EA95E1F7822399
:1011E0009323892B09F054C0CB01BA010E94B9079F
:1011F0009B01AC01623071058105910510F481E01D
:101200004DC08E819F81A885B985281739074A0767
:101210005B0708F042C0F50120873187428753877A
:10122000C0910701D09108018EEFE82E8FEFF82EC4
:101230008FEF082F8FEF182FE20EF31E041F151FDC
:101240008E819F81A885B9850297A109B109E81609
:10125000F9060A071B0728F020E030E040E050E0E4
:1012600012C02A8130E040E050E0C801B7010E947E
:101270003A129B01AC018A899B89AC89BD89280FF0
:10128000391F4A1F5B1FF50124873587468757871B
:10129000F501D182C08280E001C083E0DF91CF916F
:1012A0001F910F91FF90EF90DF90CF90BF90AF9084
:1012B00008952F923F924F925F926F927F928F92FA
:1012C0009F92AF92BF92CF92DF92EF92FF920F93D5
:1012D0001F93CF93DF93E82FC0910701D0910801AE
:1012E000209711F486E002C1898180FD02C085E06B
:1012F000FDC0EA8CFB8C0C8D1D8D4E2F592FCB0120
:10130000DA013C014D01E614F7040805190510F453
:1013100037014801EE88FF88088D198D1E8A1F8AC3
:10132000188E198E611471048104910409F4DAC0D5
:101330008A81A82EBB24CC24DD24B9E0AA0CBB1CD6
:10134000CC1CDD1CBA95D1F7E114F104010511059F
:10135000B1F117012801089421083108410851080A
:10136000C401B3016150704080409040A6019501D6
:101370000E94591279018A01C201B101A6019501A9
:101380000E945912E216F30604071507C0F08827D9
:101390009927DC018A199B09AC09BD098221932197
:1013A000A421B5218E8B9F8BA88FB98F681A790ADB
:1013B0008A0A9B0A2AA13BA14CA15DA133C02E8DB4
:1013C0003F8D48A159A12AA33BA34CA35DA32AC0EA
:1013D000CA01B9010E94B9079B01AC0162307105D5
:1013E0008105910508F480C08E819F81A885B9850B
:1013F000281739074A075B0708F076C02AA33BA3E2
:101400004CA35DA38E899F89A88DB98D8A0D9B1DE4
:10141000AC1DBD1D8E8B9F8BA88FB98F6A187B0862
:101420008C089D08A614B704C804D90488F2EE8875
:10143000FF88088D198DE60CF71C081D191DEE8A12
:10144000FF8A088F198F8090070190900801AEEFF6
:10145000AA2EAFEFBA2EAFEFCA2EAFEFDA2EA20E42
:10146000B31EC41ED51EF40186819781A085B18567
:101470000297A109B109A816B906CA06DB06A0F5AC
:10148000228130E040E050E0C601B5010E943A12EE
:101490009B01AC01F40182899389A489B589280F45
:1014A000391F4A1F5B1F2115310541055105E1F028
:1014B000F9E016950795F794E794FA95D1F78A81A4
:1014C00090E00197AA2797FDA095BA2FE822F9226C
:1014D0000A231B232E0D3F1D401F511F2EA33FA388
:1014E00048A759A780E002C0198281E0DF91CF911F
:1014F0001F910F91FF90EF90DF90CF90BF90AF9032
:101500009F908F907F906F905F904F903F902F9023
:101510000895AF92BF92CF92DF92EF92FF920F9316
:101520001F93DF93CF93CDB7DEB7AC970FB6F89488
:10153000DEBF0FBECDBF7C016B0180910701909192
:101540000801892B11F486E0B0C0CE010196D701C5
:1015500013969C938E9312976115710539F083E071
:101560000DE0A02EB12CAC0EBD1E28C0C7010E94FC
:101570003A079BC0F701208131812F70307015E050
:10158000220F331F1A95E1F7C50100E210E00E9417
:101590001D06882311F081E01FC09D85992309F461
:1015A00095C0888D953E29F09E3219F08F7383FF88
:1015B0001DC0C7010E94A508882371F4D7011C969D
:1015C0004D915D916D917C911F974115510561057C
:1015D000710581F6882351F0F70114861586168669
:1015E0001786833019F0882309F05FC09601275FC2
:1015F0003F4FF70184859585A685B7850097A1059E
:10160000B10509F443C0FE013D96AE014B5E5F4F4C
:101610008081803251F0853009F485EED9018D93B7
:101620009D013196E417F50799F78D89803299F07D
:101630008EE2F90181939F01FE017596AE01485E2D
:101640005F4F8081803239F0D9018D939D013196B1
:10165000E417F507B1F7888DF6018087FE013D9606
:10166000448D558D668D778DD6014D935D936D9329
:101670007C931397808D918D15969C938E931497E0
:101680008689978917969C938E931697F9011082F5
:10169000C7010E94A508833041F4D7011C961D9212
:1016A0001D921D921C921F9780E0AC960FB6F89485
:1016B000DEBF0FBECDBFCF91DF911F910F91FF9085
:1016C000EF90DF90CF90BF90AF90089583E084CFEC
:1016D0006F927F928F929F92AF92BF92CF92DF9242
:1016E000EF92FF920F931F93CF93DF93EC016B0167
:1016F0007A0103C00894E11CF11CF701808180325B
:10170000C9F38F3219F40894E11CF11C1C821D826C
:101710001E821F82F7018081813238F4CE010E943F
:101720003A07B82EF6011082A5C0A0E26A2E7724EF
:101730007394FBE08F2E912C8C0C9D1CAA81BB8195
:10174000FD018BE090E001C0619201972FEF8F3F88
:101750009207D1F720E0AA2438E002C028E03BE05D
:10176000F701EA0DF11D9081A3949132B0F09F3200
:10177000A1F09E3211F0231728F0383071F49E3218
:1017800069F30BC0892F81568A3108F49052FD010C
:10179000E20FF11D90832F5FE3CF1B961C921B97E6
:1017A000913210F41B967C92CE010E943A07B82E1B
:1017B0008823D1F54C855D856E857F8528813981AB
:1017C0002F703070E5E0220F331FEA95E1F7C60174
:1017D00000E210E00E941D06882311F081E023C082
:1017E000F6018081882309F455C0F401808183FDCE
:1017F00015C0D6018A819B819C01F9012BE030E064
:10180000215030408FEF2F3F380709F446C09C919C
:101810008081981719F411963196F2CFCE010E946B
:10182000A508882339F2B82EE3E0BE1619F5EA813F
:10183000FB8183858823E1F01DC0F401808184FF52
:1018400017C0EA0CF11CF60184899589A0E0B0E08C
:10185000DC0199278827228D338D40E050E0822BD0
:10186000932BA42BB52B8C839D83AE83BF8366CF34
:1018700094E0B92E8B2DDF91CF911F910F91FF90A6
:10188000EF90DF90CF90BF90AF909F908F907F9020
:101890006F90089583E0B82ECACFEA81FB818385DB
:1018A000882359F2E7CFEF92FF920F931F93DF93B4
:1018B000CF93CDB7DEB7AC970FB6F894DEBF0FBEAF
:1018C000CDBF8C01AB018091070190910801892B5C
:1018D00011F486E031C0CE010196F8019383828332
:1018E0003DE0E32EF12CEC0EFD1EC801B7010E9475
:1018F000680B8823F1F48D858823C1F0888D84FFDF
:101900001AC0F70184899589A0E0B0E0DC0199272D
:101910008827228D338D40E050E0822B932BA42B1F
:10192000B52BF80184839583A683B783C8010E94F1
:101930003A07833009F484E0AC960FB6F894DEBF22
:101940000FBECDBFCF91DF911F910F91FF90EF9010
:101950000895EF92FF920F931F93DF93CF93CDB72C
:10196000DEB7EC970FB6F894DEBF0FBECDBFAC016B
:1019700000910701109108010115110511F466E0AD
:1019800040C0F8011182CE010196988B8F876DE1DE
:10199000E62EF12CEC0EFD1ECE010D96B7010E9435
:1019A000680B682F882369F58D8D882349F188A5F8
:1019B00084FD26C0F70184899589A0E0B0E0DC01B0
:1019C00099278827228D338D40E050E0822B932B7E
:1019D000A42BB52BF801868F978FA0A3B1A3F70195
:1019E000848D958DA68DB78DF801828F938FA48FEE
:1019F000B58F168A178A108E118E81E0818301C0FF
:101A000063E0862FEC960FB6F894DEBF0FBECDBF15
:101A1000CF91DF911F910F91FF90EF9008954F921A
:101A20005F926F927F928F929F92AF92BF92CF926E
:101A3000DF92EF92FF920F931F93CF93DF933C01BE
:101A40006B014A01C0910701D0910801FA0111828E
:101A50001082209711F486E0CAC0898180FD02C0FF
:101A600085E0C5C02A8D3B8D4C8D5D8D8E899F890B
:101A7000A88DB98D281B390B4A0B5B0BCB01A0E05D
:101A8000B0E0281739074A075B0708F469015301DA
:101A9000412CE2E05E2EA3C02E893F89488D598DEE
:101AA000DA01C9019170A070B0700097A105B1056D
:101AB00009F060C0DA01C90179E0B695A79597955C
:101AC00087957A95D1F7FA80FA94F822D1F4211506
:101AD00031054105510529F46E8D7F8D88A199A1AD
:101AE00006C06AA17BA18CA19DA10E94B9076230AA
:101AF00071058105910508F478C06AA37BA38CA3C6
:101B00009DA300910701109108012AA13BA14CA1BE
:101B10005DA12250304040405040F80186819781BD
:101B2000A085B1850297A109B109281739074A078D
:101B30005B0708F05AC0628170E080E090E00E948C
:101B40003A129B01AC01F80182899389A489B58975
:101B5000280F391F4A1F5B1F21153105410551050B
:101B600009F443C02F0D311D411D511D2EA33FA36C
:101B700048A759A72E893F893170C201821B930B58
:101B800076018C159D0508F47C016114710419F42B
:101B900080E090E001C0C5014EA15FA168A579A5D4
:101BA00087010E941D06882301F5C701A0E0B0E06F
:101BB0002E893F89488D598D280F391F4A1F5B1F79
:101BC0002E8B3F8B488F598FAE0CBF1CCE18DF0871
:101BD000F401808191818E0D9F1D91838083C114BA
:101BE000D10409F059CF80E002C0198281E0DF9171
:101BF000CF911F910F91FF90EF90DF90CF90BF900A
:101C0000AF909F908F907F906F905F904F900895CE
:101C1000AF92BF92CF92DF92EF92FF920F931F93FA
:101C2000CF93DF93B82EA92E6A017B012EEF31E00E
:101C300002E010E00E941D06882311F023E033C06B
:101C4000CB2DDA2D8881998185559A4A11F022E0B1
:101C50002AC08B2D9A2DB701A60126E330E002E0C1
:101C600010E00E941D06882339F4888199818654EA
:101C7000914411F420E017C08B2D9A2DB701A601D5
:101C800022E530E002E010E00E941D06882311F0FA
:101C900021E009C020E0888199818654914409F4AB
:101CA00021E081E02827822FDF91CF911F910F91B2
:101CB000FF90EF90DF90CF90BF90AF9008954F923C
:101CC0005F926F927F928F929F92AF92BF92CF92CC
:101CD000DF92EF92FF920F931F93CF93DF93FC015C
:101CE0005B013A01C0910701D0910801DA011D9210
:101CF0001C92209711F486E0FDC0898190E080FD60
:101D000002C085E0F7C0807490706115710589F498
:101D1000892B59F080E090E040E050E060E070E016
:101D20000E94A905882309F0E3C089818F7B8983FC
:101D3000DDC0892B51F48E899F89A88DB98D807063
:101D40009E7F8E8B9F8BA88FB98F2A8D3B8D4C8D5C
:101D50005D8D8E899F89A88DB98D281B390B4A0B03
:101D60005B0BC501A0E0B0E0281739074A075B0705
:101D700008F459014F01412CA2E05A2EB3C02E891C
:101D80003F89488D598DC9019170892B09F06CC02C
:101D9000DA01C901F9E0B695A79597958795FA9567
:101DA000D1F7FA80FA94F822D1F4211531054105D2
:101DB000510529F46E8D7F8D88A199A106C06AA175
:101DC0007BA18CA19DA10E94B9076230710581059C
:101DD000910508F48DC06AA37BA38CA39DA30091F9
:101DE0000701109108012AA13BA14CA15DA122503D
:101DF000304040405040F80186819781A085B185F0
:101E00000297A109B109281739074A075B0708F0AB
:101E10006FC0628170E080E090E00E943A129B0106
:101E2000AC01F80182899389A489B589280F391FEB
:101E30004A1F5B1F211531054105510509F458C0A2
:101E4000BA01A9014F0D511D611D711D4EA35FA364
:101E500068A779A780E090E00E94A905882309F08F
:101E600047C08981806489838E899F89917092019E
:101E7000281B390B65012A153B0508F46901760119
:101E800000E010E0C401B801A7010E94A905882361
:101E900079F58E899F89A88DB98D8E0D9F1DA01F04
:101EA000B11F9C018E8B9F8BA88FB98FD3018D9111
:101EB0009C9111978C0D9D1D8D939C933170232BBC
:101EC00069F480E090E040E050E060E070E00E9463
:101ED000A905882369F489818F7B89838C0C9D1CDB
:101EE000AC18BD08A114B10409F049CF80E002C0CC
:101EF000198281E0DF91CF911F910F91FF90EF90B8
:101F0000DF90CF90BF90AF909F908F907F906F9019
:101F10005F904F9008956F927F928F929F92AF92B1
:101F2000BF92CF92DF92EF92FF920F931F93DF93B6
:101F3000CF93CDB7DEB7A4970FB6F894DEBF0FBE30
:101F4000CDBF5C011092080110920701009709F4BF
:101F5000ECC00E94790680FF02C082E0EBC04E0117
:101F60000894811C911CC40140E050E060E070E0E6
:101F70000E94080E813021F0CC24DD2476011BC0A4
:101F8000C40140E050E060E070E02EEB31E000E1A1
:101F900010E00E941D06882309F0C9C08D818823A6
:101FA00009F4C7C0C984DA84EB84FC84C401B70196
:101FB000A6010E94080E833009F4B9C0882309F0F5
:101FC000B8C0CE010196B701A6012DE030E004E2D1
:101FD00010E00E941D06882309F0A9C08A859B8510
:101FE000BC0180E090E0611571058105910521F447
:101FF000688D798D8A8D9B8D2C8130E040E050E09A
:102000000E943A123B014C018A819B81A0E0B0E022
:10201000C80ED91EEA1EFB1EF501C286D386E486D1
:10202000F586898182832D813E81358324838F814A
:1020300098857C0100E010E0E114F1040105110530
:1020400021F4EC88FD880E891F898A819B81A0E09C
:10205000B0E0E81AF90A0A0B1B0BE618F7080809A2
:10206000190984E0369527958A95E1F7C901A0E022
:10207000B0E0E81AF90A0A0B1B0BF501228130E0E7
:1020800040E050E0C801B7010E9459122E5F3F4F57
:102090004F4F5F4FF5012683378340875187273F96
:1020A000FFE03F07F0E04F07F0E05F0710F481E04A
:1020B00001C082E0275F3F4F4040504008F083E07E
:1020C000F5018083833029F488A199A1AAA1BBA13D
:1020D00009C0F50182859385A485B585860D971D78
:1020E000A81DB91D86879787A08BB18BF5018481C8
:1020F0009581B4E096958795BA95E1F7A0E0B0E0B8
:102100002285338544855585820F931FA41FB51FF3
:10211000860D971DA81DB91D828B938BA48BB58B43
:102120001182B0920801A092070180E003C081E013
:1021300001C087E0A4960FB6F894DEBF0FBECDBFF6
:10214000CF91DF911F910F91FF90EF90DF90CF9093
:10215000BF90AF909F908F907F906F9008958CE28A
:1021600091E00197F1F7089580E185B980EB84B99A
:1021700081E58CBD08958EBD0DB407FEFDCF8EB5F3
:1021800008958FEF8EBD0DB407FEFDCF8EB5089577
:102190008CE08093C4001092C50088E18093C10058
:1021A00086E08093C20008958091C00087FFFCCF35
:1021B0009091C6008091C00085FFFCCF9093C6002F
:1021C000913610F0975503C0903308F09053892F43
:1021D00008951F930E94D410182F0E94D4101295B6
:1021E000107F810F1F910895982F92959F709A30BC
:1021F00018F0292F295A02C0292F205D8F708A30AC
:1022000018F0982F995A02C0982F905D8091C000C5
:1022100085FFFCCF2093C6008091C00085FFFCCFD6
:102220009093C6000895982F8091C00085FFFCCF41
:102230009093C60008958091C00087FFFCCF8091E5
:10224000C6000895982F07C08091C00087FFFCCF7B
:102250008091C60091509923B9F708958A3019F4F6
:102260008DE001D08AE0FF93EF93E0910901F091B6
:102270000A01309709F00995EF91FF910895FC014B
:102280008591803011F0EADFFBCF0895FF27E0E26F
:1022900030E247FF0CC0419597FF09C0EDE2609521
:1022A000709580959095611D711D811D911D27FF71
:1022B00002C0219530E350E2AA27660F771F881FDE
:1022C000991FAA1FA41710F0A41B63955A95A9F78C
:1022D000AA3008F0A95FA05DAF93F3956115710571
:1022E0008105910541F7ED3211F4EF93F395F21763
:1022F00018F43F93F395FBCF8F91B0DFFA95E1F798
:102300000895DF93CF93CDB7DEB72596E991F99184
:102310008591803021F0853229F0A0DFF9CFCF916F
:10232000DF91089520E0E89455915532B1F3503390
:1023300011F4689455915A3348F4505380F3220FA6
:10234000022E220F220F200D250FF4CF0EF421951F
:1023500089919991533609F3533729F1533559F13E
:10236000BC0188279927E8945C3621F489919991DA
:1023700068945591543639F446EF7EF077FF0DC0DE
:102380008FEF9FEF0AC055374AE039F0583540E1EA
:1023900021F0523642E009F0C2CFFF93EF9376DF8F
:1023A000EF91FF91B5CFFF93EF93FC0181918030C6
:1023B000B9F354DFFBCFFF93EF9361DFF1CF0B0154
:1023C000DC01ED91FD912227332744275527E8941E
:1023D0009AE001C0319660816032E1F3A8F16D327C
:1023E00011F46894F7CF6A3378F5603368F171F4CB
:1023F00098E031966081613248F1623611F492E0E2
:1024000003C0683719F490E1319660816132F0F0D1
:10241000613608F060526053B8F06A3018F06750C7
:102420006A3090F0691780F481E2771B08F4790F25
:10243000769557954795379527958A95B9F7260F3D
:10244000381F481F581FE0CF80E001C081E04EF4E4
:1024500066272095309540955095261F361F461FBC
:10246000561FFE93EE93D0012D933D934D935D93B4
:1024700011240895629FD001739FF001829FE00DA7
:10248000F11D649FE00DF11D929FF00D839FF00DF3
:10249000749FF00D659FF00D9927729FB00DE11D9F
:1024A000F91F639FB00DE11DF91FBD01CF0111247C
:1024B0000895A1E21A2EAA1BBB1BFD010DC0AA1F85
:1024C000BB1FEE1FFF1FA217B307E407F50720F09D
:1024D000A21BB30BE40BF50B661F771F881F991F18
:1024E0001A9469F760957095809590959B01AC0161
:1024F000BD01CF010895FB01DC010D900020E9F73B
:10250000119701900D920020E1F70895F894FFCF04
:042510000D0A0000B0
:00000001FF
