:100000000C943E000C945D000C945B000C945B001F
:100010000C945B000C945B000C945B000C945B00F4
:100020000C945B000C945B000C945B000C945B00E4
:100030000C945B000C945B000C945B000C945B00D4
:100040000C945B000C945B000C945B000C945B00C4
:100050000C94AD020C945B000C945B000C945B0060
:100060000C945B000C945B000C94F9010C945B0005
:100070000C945B000C945B000C945B0011241FBE7D
:10008000CFEFD0E1DEBFCDBF13E0A0E0B1E0E2E30F
:10009000F8E002C005900D92A632B107D9F713E03F
:1000A000A6E2B3E001C01D92A033B107E1F70E94C0
:1000B0000C030C9417040C9400001F920F920FB6BF
:1000C0000F9211248F939F9380912E0390912F0371
:1000D0008130910559F45E9A80912E0390912F03FF
:1000E000019690932F0380932E030DC080912E03D1
:1000F00090912F038230910511F45E9804C0109204
:100100002F0310922E039F918F910F900FBE0F908F
:100110001F901895CF93DF9300D000D0CDB7DEB7F6
:1001200092E499838A836B83CE01019663E00E94F7
:10013000A1010E9496018823E1F780912603817036
:100140000F900F900F900F90DF91CF9108950F9324
:100150001F93CF93DF9300D000D0CDB7DEB78B01D4
:1001600092E499838A83CE01019662E00E94A10104
:1001700083E48983CE01019662E00E94A101CE0151
:10018000019662E00E94D7018A81F8018083809104
:10019000260381700F900F900F900F90DF91CF91F9
:1001A0001F910F9108950F931F93CF93DF93109298
:1001B0002F0310922E0352985A9A81E08DBB82E051
:1001C0008093690082E160E80E948A008823F1F050
:1001D0008FE295E70197F1F700C00000C1E0D1E0A0
:1001E00001E612E0FE013197808168810E948A0059
:1001F000882371F087EB9BE00197F1F700C00000C6
:100200002296C017D10771F781E003C080E001C0DA
:1002100080E0DF91CF911F910F9108955B985F98D7
:100220005C9A5C985F9A5B9A089580912E039091F6
:100230002F030097D1F781E090E090932F038093F4
:100240002E0308958AB1886F8AB95B985C985D988F
:100250005F9A5E9888E28A95F1F75C9A88E28A95BF
:10026000F1F75C985F9888E28A95F1F75C9A88E2EA
:100270008A95F1F75C985F9A88E28A95F1F75B9A24
:1002800081E0089511B85C9A80B15C98382F20E025
:100290005C9A80B15C9890E0822B932B0895EF924A
:1002A000FF920F931F93CF93DF9380912E03909132
:1002B0002F038230910541F55F985C9A5C985F9AB4
:1002C00087EB9BE00197F1F700C0000000EF10E022
:1002D0000F2EF0E4EF2EF1E0FF2EF02D09C00E946A
:1002E00042010E94A3022197D1F70150104011F062
:1002F000E701F5CF5F985C9A5C985F9A10922F03A4
:1003000010922E0381E001C080E0DF91CF911F9118
:100310000F91FF90EF90089584E38093B8008FEFE2
:100320008093BB0084E08093BC0008958091BC0062
:10033000817008950E9496018823E1F78091600200
:1003400008950F931F93CF938C01C62F0E9496019F
:100350008823E1F7C0932703F80180818093280365
:1003600080FD0CC0C23050F0D8011196E9E2F3E0F4
:1003700081E09D9191938F5F8C17D9F7109226039E
:1003800088EF8093600285EA8093BC00CF911F9133
:100390000F9108950E9496018823E1F71092260399
:1003A00088EF8093600285EA8093BC0008951F93D4
:1003B000CF93DF93D82F192FC62F0E949601882341
:1003C000E1F78091260380FF0DC0CC2359F0A8E20D
:1003D000B3E09D2FED2FF12F8D9181938E2F891BEF
:1003E0008C17D0F3809126038170DF91CF911F91FC
:1003F00008951F920F920FB60F9211242F933F93DF
:100400008F939F93EF93FF938091B9008832D1F03F
:10041000893240F48031A1F08831A1F0883009F0B0
:1004200061C00EC08034B9F1813420F4883309F002
:1004300059C054C0803519F1883509F053C03DC00A
:1004400010922C0380912C0390912703891770F44C
:10045000E82FF0E0E85DFC4F90819093BB008F5F48
:1004600080932C0385E88093BC0043C080912603D1
:1004700081608093260384E98093BC003AC0809118
:100480002C039091BB00E82FF0E0E85DFC4F9083D7
:100490008F5F80932C0320912C0330E08091270301
:1004A00090E001972817390724F485EC8093BC006D
:1004B00020C085E88093BC001CC08091BB00E09107
:1004C0002C03F0E0E85DFC4F80838091260381607F
:1004D0008093260384E98093BC000BC085EA809357
:1004E000BC0007C08091B9008093600284E08093D3
:1004F000BC00FF91EF919F918F913F912F910F90B1
:100500000FBE0F901F9018959093C5008093C40064
:10051000E1ECF0E088E1808386E08093C200808196
:10052000806880830895E0ECF0E0908195FFFDCF36
:100530008093C6000895E0ECF0E080818823ECF71A
:100540008091C6000895CF93C82F892F0E949302EF
:100550008C2F0E949302CF9108951F920F920FB695
:100560000F9211248F938091C60080932D038F9159
:100570000F900FBE0F901F9018950F931F93CF935E
:100580008C01FC018081882351F0C0E0CF5F0E9484
:100590009302F801EC0FF11D80818823B9F7CF9108
:1005A0001F910F910895CF93DF9300D000D00F9249
:1005B000CDB7DEB790E0BE016F5F7F4F40E150E006
:1005C0000E94D20381E692E00E94BD02CE01019614
:1005D0000E94BD020F900F900F900F900F90DF912F
:1005E000CF910895CF93DF9300D000D00F92CDB775
:1005F000DEB7BE016F5F7F4F4AE050E00E94D2033A
:10060000CE0101960E94BD020F900F900F900F90A7
:100610000F90DF91CF910895CF93DF930F92CDB7D5
:10062000DEB78CE090E00E94840284E692E00E94B3
:10063000BD020E948C0185E792E00E94BD02789481
:100640000E9422018130E1F788E892E00E94BD0219
:1006500082EA92E00E94BD020E94D300813029F418
:1006600085EB92E00E94BD0204C080EC92E00E9403
:10067000BD020F2EF0EEEF2EF2E0FF2EF02D0F2E2A
:10068000F3E08F2EF3E09F2EF02D0F2EFEEE6F2E57
:10069000F2E07F2EF02D0F2EF7ECCF2EF2E0DF2EC2
:1006A000F02D00EC12E00F2EF5ED4F2EF2E05F2E54
:1006B000F02D0F2EF0E1AF2EF3E0BF2EF02D0F2E18
:1006C000F5EB2F2EF2E03F2EF02D80912D0380359B
:1006D00009F453C0813530F4813471F0893409F064
:1006E0005CC035C0843509F443C0813709F44EC07D
:1006F000823509F052C013C0C6010E94BD0282E1DA
:1007000060E80E948A00813021F4C2010E94BD028B
:1007100003C0C8010E94BD0210922D03D6CFC701AD
:100720000E94BD028AE0BE016F5F7F4F0E94A7005A
:10073000813039F4C3010E94BD0289810E94D30235
:1007400003C0C4010E94BD0210922D03BECFC5019B
:100750000E94BD020E94D300813021F4C1010E9499
:10076000BD0203C0C8010E94BD0210922D03ADCF8F
:100770000E948C0110922D03A8CF0E9415010E94A7
:100780004F018130E1F710922D039FCF82E160E8A5
:100790000E948A0010922D0398CF80912D038093A0
:1007A0002D0393CFFB019F01E8944230C4F0453202
:1007B000B4F44A3029F497FB1EF4909581959F4F2D
:1007C000642F77270E940304805D8A330CF0895DD3
:1007D0008193CB010097A1F716F45DE2519310824B
:1007E000C9010C94F303DC01FC01672F719177239D
:1007F000E1F7329704C07C916D9370836291AE17DC
:10080000BF07C8F30895AA1BBB1B51E107C0AA1F6D
:10081000BB1FA617B70710F0A61BB70B881F991FA1
:100820005A95A9F780959095BC01CD010895F8944B
:02083000FFCFF8
:100832003A0440D0121432801716180419021A7B97
:1008420003060C003E007000710072117300A202D8
:1008520011017A207B1C7C287D3C7E557F68807646
:1008620081808288838F849685A386AF87C488D748
:1008720089E813E0000010000D001420A505AB0765
:100882002475256326A59F78A068A103A6DFA7DFAC
:10089200A8F0A990AA9413E50E610F4B16021E3719
:1008A200210222912907330B350B371D3871392A62
:1008B2003C784D404E20690C6B6074198D4F8E0050
:1008C2008F0090009100920096009A80B084B10C43
:1008D200B20EB382B80A431444F04534465847284E
:1008E200483A59885A885B445C675D495E0E6404E5
:1008F20065206605940495086C0A6D556E116F9F0C
:100902006A400140024013E715024F8050805100B7
:100912005222535E5480589E41083F00750576E18D
:100922004C0077013DC24B09C96041385640341131
:100932003B02A48996009730982099309A849B298B
:100942009C039D4C9E3F78047901C8F0790FC80042
:100952007910C87E790AC880790BC801790CC80F52
:10096200790DC8207909C8807902C8C07903C840C6
:100972007905C83079260903550056403B420000EC
:100982000000000000000000000000000000000065
:10099200F83078005374617274696E672055702E56
:1009A2002E2E0A0D0054574920496E697469616CF4
:1009B200697365642E0A0D004649464F20427566EA
:1009C20066657220496E697469616C697365640A4F
:1009D2000D004F563736373020496E697469616CA5
:1009E2006973652000436F6D706C6574650A0D0054
:1009F2004661696C0A0D000A0D5457492053656E11
:100A0200743B0A0D0053756363657373210A0D000D
:100A12000A0D54574920526561643B0A0D00545730
:100A22004920446174612052657475726E65643A3E
:100A32000D0A0052656164204661696C2E0A0D0040
:100A42000A0D4F563736373020496E697469616C2A
:060A52006973652000003D
:00000001FF
