:100000000C943E000C945D000C945B000C945B001F
:100010000C945B000C945B000C945B000C945B00F4
:100020000C945B000C945B000C945B000C945B00E4
:100030000C945B000C945B000C945B000C945B00D4
:100040000C945B000C945B000C945B000C945B00C4
:100050000C949C020C945B000C945B000C945B0071
:100060000C945B000C945B000C945B000C945B00A4
:100070000C94F1020C945B000C945B0011241FBEE5
:10008000CFEFD0E1DEBFCDBF12E0A0E0B1E0EEE9FE
:10009000F7E002C005900D92A436B107D9F712E03F
:1000A000A4E6B2E001C01D92A837B107E1F70E94B3
:1000B00076030C94CD030C9400001F920F920FB6A0
:1000C0000F9211248F939F9380916D0290916E02F5
:1000D0008130910559F45E9A80916D0290916E0283
:1000E000019690936E0280936D020DC080916D0217
:1000F00090916E028230910511F45E9804C01092C6
:100100006E0210926D029F918F910F900FBE0F9013
:100110001F901895CF93DF93C82FD62F0E94B6015A
:1001200082E40E940602882321F40E94D30180E029
:1001300021C08BE291E00197F1F700C000008C2F05
:100140000E940602882321F40E94D30180E012C09D
:100150008BE291E00197F1F700C000008D2F0E9423
:100160000602882321F40E94D30180E003C00E948C
:10017000D30181E0DF91CF9108951F93CF93DF9357
:10018000182FEB010E94B60182E40E940602882328
:1001900021F40E94D30180E030C08BE291E001970E
:1001A000F1F700C00000812F0E940602882321F48D
:1001B0000E94D30180E021C00E94D3018BE291E034
:1001C0000197F1F700C000000E94B60183E40E948D
:1001D0000602882321F40E94D30180E00EC08BE246
:1001E00091E00197F1F700C000000E94500288835F
:1001F0000E94E9010E94D30181E0DF91CF911F911C
:1002000008950F931F93CF93DF9310926E02109275
:100210006D0252985A9A81E08DBB82E0809369000A
:100220000E94AF0182E160E80E948A008823C1F049
:100230008FE295E70197F1F700C00000C1E0D1E03F
:1002400001E612E0FE013197808168810E948A00F8
:10025000882341F02296C017D107A1F781E003C09F
:1002600080E001C080E0DF91CF911F910F91089550
:1002700080916D0290916E020097D1F781E090E03D
:1002800090936E0280936D0208958AB1886F8AB947
:100290005B985C985D985F9A5E9888E28A95F1F722
:1002A0005C9A88E28A95F1F75C985F9888E28A9573
:1002B000F1F75C9A88E28A95F1F75C985F9A88E298
:1002C0008A95F1F75B9A81E0089511B85C9A80B144
:1002D0005C98382F20E05C9A80B15C9890E0822B8B
:1002E000932B0895EF92FF920F931F93CF93DF9379
:1002F00080916D0290916E028230910541F55F9878
:100300005C9A5C985F9A87EB9BE00197F1F700C0DD
:10031000000000EF10E00F2EF0E4EF2EF1E0FF2ED2
:10032000F02D09C00E9465010E9492022197D1F729
:100330000150104011F0E701F5CF5F985C9A5C988E
:100340005F9A10926E0210926D0281E001C080E00F
:10035000DF91CF911F910F91FF90EF90089587B19A
:10036000806C87B988B1806C88B90895479A8BE210
:1003700091E00197F1F700C00000469A8BE291E00E
:100380000197F1F700C0000047988BE291E00197D8
:10039000F1F700C0000046988BE291E00197F1F779
:1003A00000C00000089547988BE291E00197F1F7B3
:1003B00000C00000469A8BE291E00197F1F700C07F
:1003C0000000479A8BE291E00197F1F700C000002E
:1003D0000895479A8BE291E00197F1F700C0000081
:1003E000469A8BE291E00197F1F700C00000469831
:1003F0008BE291E00197F1F700C0000047988BE293
:1004000091E00197F1F700C00000089520E030E08E
:1004100090E0AC01022E02C0440F551F0A94E2F78F
:1004200047FF02C0479A01C04798EBE2F1E03197DD
:10043000F1F700C00000469AEBE2F1E03197F1F7E6
:1004400000C000004698EBE2F1E03197F1F700C000
:1004500000002F5F3F4F28303105D9F68BE291E045
:100460000197F1F700C000003F98EBE2F1E031970F
:10047000F1F700C00000469A87EB9BE00197F1F787
:1004800000C0000086B14698EBE2F1E03197F1F749
:1004900000C000003F9A8095881F8827881F089514
:1004A0003F988BE291E00197F1F700C0000098E0DF
:1004B00080E0EBE2F1E03197F1F700C00000469AEE
:1004C000EBE2F1E03197F1F700C00000880F3799B7
:1004D0008F5F4698EBE2F1E03197F1F700C0000042
:1004E000915039F708959093C5008093C400E1ECD2
:1004F000F0E088E1808386E08093C200808180689C
:1005000080830895E0ECF0E0908195FFFDCF80932B
:10051000C6000895E0ECF0E080818823ECF780913C
:10052000C6000895CF93C82F892F0E9482028C2F76
:100530000E948202CF9108951F920F920FB60F92E0
:1005400011242F933F934F935F936F937F938F93D8
:100550009F93AF93BF93EF93FF93209164023091E9
:10056000C60085E692E0FC01E20FF11D30832F5FAB
:1005700020936402820F911DFC01319780810E94BB
:100580008202FF91EF91BF91AF919F918F917F91E7
:100590006F915F914F913F912F910F900FBE0F90F0
:1005A0001F9018959093CD008093CC00E9ECF0E07B
:1005B00088E1808386E08093CA00808180688083A0
:1005C0000895E8ECF0E0908195FFFDCF8093CE0098
:1005D0000895E8ECF0E080818823ECF78091CE006C
:1005E00008951F920F920FB60F9211242F933F93ED
:1005F0004F935F936F937F938F939F93AF93BF932B
:10060000EF93FF93209177023091C6008FE692E03E
:10061000FC01E20FF11D30832F5F20937702820FE0
:10062000911DFC01319780810E94E102FF91EF91C1
:10063000BF91AF919F918F917F916F915F914F91FA
:100640003F912F910F900FBE0F901F9018950F9311
:100650001F93CF938C01FC018081882351F0C0E06F
:10066000CF5F0E948202F801EC0FF11D8081882388
:10067000B9F7CF911F910F910895CF93DF9300D0D9
:1006800000D00F92CDB7DEB790E0BE016F5F7F4F15
:1006900040E150E00E94880380E692E00E94270338
:1006A000CE0101960E9427030F900F900F900F909C
:1006B0000F90DF91CF910895CF93DF9300D000D0BA
:1006C0000F92CDB7DEB7BE016F5F7F4F4AE050E0BB
:1006D0000E948803CE0101960E9427030F900F907D
:1006E0000F900F900F90DF91CF9108958CE090E0E4
:1006F0000E9473020E9401018130E1F70E944501CE
:100700008130E1F778940E9438010E947201FDCF98
:10071000FB019F01E8944230C4F04532B4F44A3002
:1007200029F497FB1EF4909581959F4F642F7727AE
:100730000E94B903805D8A330CF0895D8193CB01FF
:100740000097A1F716F45DE251931082C9010C9451
:10075000A903DC01FC01672F71917723E1F7329740
:1007600004C07C916D9370836291AE17BF07C8F38C
:100770000895AA1BBB1B51E107C0AA1FBB1FA617E8
:10078000B70710F0A61BB70B881F991F5A95A9F73A
:0E07900080959095BC01CD010895F894FFCF9F
:10079E003A0440D0121432801716180419021A7B2C
:1007AE0003060C003E007000710072117300A2026D
:1007BE0011017A207B1C7C287D3C7E557F688076DB
:1007CE0081808288838F849685A386AF87C488D7DD
:1007DE0089E813E0000010000D001420A505AB07FA
:1007EE002475256326A59F78A068A103A6DFA7DF41
:1007FE00A8F0A990AA9413E50E610F4B16021E37AE
:10080E00210222912907330B350B371D3871392AF6
:10081E003C784D404E20690C6B6074198D4F8E00E4
:10082E008F0090009100920096009A80B084B10CD7
:10083E00B20EB382B80A431444F0453446584728E2
:10084E00483A59885A885B445C675D495E0E640479
:10085E0065206605940495086C0A6D556E116F9FA0
:10086E006A400140024013E715024F80508051004C
:10087E005222535E5480589E41083F00750576E122
:10088E004C0077013DC24B09C960413856403411C6
:10089E003B02A48996009730982099309A849B2920
:1008AE009C039D4C9E3F78047901C8F0790FC800D7
:1008BE007910C87E790AC880790BC801790CC80FE7
:1008CE00790DC8207909C8807902C8C07903C8405B
:1008DE007905C83079260903550056403B42000081
:1008EE0000000000000000000000000000000000FA
:0408FE00307800004E
:00000001FF
