:100000000C943E000C945B000C945B000C945B0021
:100010000C945B000C945B000C945B000C945B00F4
:100020000C945B000C945B000C945B000C945B00E4
:100030000C945B000C945B000C945B000C945B00D4
:100040000C945B000C945B000C945B000C945B00C4
:100050000C945B000C945B000C945B000C945B00B4
:100060000C945B000C945B000C945B000C945B00A4
:100070000C945B000C945B000C945B0011241FBE7D
:10008000CFEFD0E1DEBFCDBF11E0A0E0B1E0E2ED07
:10009000F0E002C005900D92A030B107D9F711E051
:1000A000A0E0B1E001C01D92A030B107E1F70E94CD
:1000B00061000C9467000C94000080E48CBD84B94E
:1000C000089585E58EBD0DB407FEFCCFFCCFF894F6
:0200D000FFCF60
:00000001FF
