:100000000C943E000C945B000C945B000C945B0021
:100010000C945B000C945B000C945B000C945B00F4
:100020000C945B000C945B000C945B000C945B00E4
:100030000C945B000C945B000C945B000C945B00D4
:100040000C945B000C945B000C945B000C945B00C4
:100050000C945B000C945B000C945B000C945B00B4
:100060000C945B000C945B000C9433010C945B00CB
:100070000C945B000C945B000C945B0011241FBE7D
:10008000CFEFD0E1DEBFCDBF11E0A0E0B1E0E4EC06
:10009000F3E002C005900D92A230B107D9F716E047
:1000A000A2E0B1E001C01D92A630B107E1F70E94C5
:1000B0005D000C94E0010C9400008AE20E94B900FB
:1000C00078940E94F8008FEF84B902E011E00F2EBF
:1000D000F3E0EF2EF1E0FF2EF02DCC24DD24C8EF6D
:1000E000DFE10E94C1008823E1F78091820380FF55
:1000F000F8CF81FF36C0C80162E00E9408018091FC
:10010000820382FF04C0F801808185B92AC0F8010A
:100110008081803119F4F701808185B9F8018081EF
:10012000803229F4D083C80161E00E94CC00F8013C
:1001300080818033B1F4F7016081862F90E018163A
:10014000190664F4D7019601FD0131971082CC9312
:100150002E5F3F4F129628173907B4F3C8010E944B
:10016000CC000E94C100882309F0BBCF0E94F80098
:10017000B8CF8093BA0084E08093BC0010928303D0
:1001800008958091830308950E94C100882319F483
:10019000809100010895FFCF1F93CF93DF93D82F55
:1001A000192FC62F0E94C100882309F5C09384032C
:1001B000CC2371F0AD2FB12FE5E8F3E0CF0101962C
:1001C000C1508C0F911D2D912193E817F907D9F794
:1001D0001092820388EF8093000185EC8093BC002D
:1001E00081E080938303DF91CF911F910895FFCF2A
:1001F0000E94C100882359F41092820388EF8093F3
:10020000000185EC8093BC00109283030895FFCF1A
:100210001F93CF93DF93D82F192FC62F0E94C100B1
:10022000882301F58091820380FF15C0CC2371F0F3
:10023000E5E8F3E0AD2FB12FCF010196C1508C0F4F
:10024000911D21912D93E817F907D9F78091820329
:100250008D7F80938203809182038170DF91CF91A3
:100260001F910895FFCF1F920F920FB60F92112486
:100270008F939F93EF93FF938091B900803909F496
:1002800067C0813998F4803709F44FC0813738F45A
:10029000882309F47BC0803609F080C04BC08038C9
:1002A00009F456C0883809F079C070C0883A91F0D6
:1002B000893A38F4883909F469C0803A09F06EC087
:1002C0005FC0803CE1F0883C09F460C0883B09F0E5
:1002D00065C002C01092050680910506E5E8F3E0CE
:1002E000E80FF11D90819093BB008F5F809305060E
:1002F00085EC8093BC0081E08093830358C090918B
:10030000050680918403981731F4809182038160FF
:100310008093820304C08091B9008093000185EC32
:100320008093BC001092830342C08091820384605A
:100330008093820380918203826080938203109273
:10034000050685EC8093BC0081E0809383032FC079
:10035000809105069091BB00E5E8F3E0E80FF11D00
:1003600090838F5F809305068091820381608093E4
:10037000820385EC8093BC0081E08093830317C0E7
:1003800085EC8093BC001092830311C08091B9006A
:100390008093000180E98093BC0009C08091B9007E
:1003A0008093000185EC8093BC0010928303FF9141
:1003B000EF919F918F910F900FBE0F901F90189506
:0403C000F894FFCFDF
:0203C400F8003F
:00000001FF
