:100000000C9434000C9451000C9451000C94510049
:100010000C9451000C9451000C9451000C9451001C
:100020000C9451000C9451000C9451000C9451000C
:100030000C9451000C9451000C9451000C945100FC
:100040000C9451000C9451000C9451000C945100EC
:100050000C9451000C9451000C9451000C945100DC
:100060000C94FF000C94510011241FBECFEFD4E07C
:10007000DEBFCDBF11E0A0E0B1E0ECE5F3E002C0EF
:1000800005900D92A230B107D9F711E0A2E0B1E0DE
:1000900001C01D92AA30B107E1F70E9453000C94F1
:1000A000AC010C940000CF93DF9300D000D0CDB70B
:1000B000DEB78FEF8AB917B88BE20E948B00789475
:1000C0000E94C7000E9493008823E1F780910201FB
:1000D00080FFF8CF81FF18C0CE01019662E00E9438
:1000E000D7008091020182FD0FC08981803111F417
:1000F0008A818BB98981803239F486B18983CE01B6
:10010000019661E00E949E000E9493008823D1F630
:100110000E94C700D7CF8093BA0084E08093BC00D0
:100120001092030108958091030108950E949300A5
:10013000882319F4809100010895FFCF1F93CF9376
:10014000DF93D82F192FC62F0E9493008823F1F434
:10015000C0930401CC2359F09D2FA5E0B1E0ED2F11
:10016000F12F81918D938E2F891B8C17D0F31092D4
:10017000020188EF8093000185EC8093BC0081E050
:1001800080930301DF91CF911F910895FFCF0E94CB
:100190009300882359F41092020188EF80930001A4
:1001A00085EC8093BC00109203010895FFCF1F934C
:1001B000CF93DF93D82F192FC62F0E949300882347
:1001C000E9F48091020180FF12C0CC2359F0A5E030
:1001D000B1E09D2FED2FF12F8D9181938E2F891BF3
:1001E0008C17D0F3809102018D7F80930201809162
:1001F00002018170DF91CF911F910895FFCF1F926F
:100200000F920FB60F9211248F939F93EF93FF934A
:100210008091B900803909F467C0813998F480373A
:1002200009F44FC0813738F4882309F47BC0803645
:1002300009F080C04BC0803809F456C0883809F0F6
:1002400079C070C0883A91F0893A38F4883909F455
:1002500069C0803A09F06EC05FC0803CE1F0883C24
:1002600009F460C0883B09F065C002C01092090122
:1002700080910901E82FF0E0EB5FFE4F90819093B1
:10028000BB008F5F8093090185EC8093BC0081E007
:100290008093030158C0909109018091040198173F
:1002A00031F48091020181608093020104C0809149
:1002B000B9008093000185EC8093BC00109203018B
:1002C00042C080910201846080930201809102010A
:1002D0008260809302011092090185EC8093BC003A
:1002E00081E0809303012FC0809109019091BB00B0
:1002F000E82FF0E0EB5FFE4F90838F5F8093090162
:100300008091020181608093020185EC8093BC00A2
:1003100081E08093030117C085EC8093BC001092AC
:10032000030111C08091B9008093000180E980939E
:10033000BC0009C08091B9008093000185EC8093D6
:10034000BC0010920301FF91EF919F918F910F904C
:0C0350000FBE0F901F901895F894FFCF7F
:02035C00F800A7
:00000001FF
