:100000000C9487040C94A4040C94A4040C94A404ED
:100010000C94A4040C94A4040C94A4040C94A404C0
:100020000C94A4040C94A4040C94A4040C94A404B0
:100030000C94A4040C94A4040C94A4040C94A404A0
:100040000C94C3280C94A4040C94A4040C94A4044D
:100050000C94A6340C94D0340C94A4040C94A404F2
:100060000C94A4040C94A4040C94A4040C94A40470
:100070000C94A4040C94A4040C94A404E731622905
:100080006229622962296229622962296229622918
:1000900045326229BE2FBC30C52F62290B2D622943
:1000A000112D4834032DFD2C6229F52C9D2F62293A
:1000B00062290A30F02C7032E82CF4312231E22C23
:1000C0000A4661744673206D6F64756C65207465B3
:1000D0007374206D6F6E69746F7220666F72204149
:1000E00056520A004C464E2044697361626C656446
:1000F000002C20436F646520706167653A20257588
:100100000A00525443206973206E6F742073757017
:10011000706F727465642E0A0072633D25640A0074
:10012000536563746F723A256C750A0072633D25DE
:10013000640A0044726976652073697A653A2025FD
:100140006C7520736563746F72730A004572617316
:100150006520626C6F636B3A20256C752073656354
:10016000746F72730A004361726420747970653A27
:100170002025750A004353443A0A004349443A0A89
:10018000004F43523A0A005344205374617475730C
:100190003A0A004D6F64656C3A2025730A00532FAC
:1001A0004E3A2025730A0025303458202530325825
:1001B0002D003F3F3F0A0072633D25750A007263C0
:1001C0003D25750A004641542074797065203D2014
:1001D00025750A42797465732F436C757374657263
:1001E000203D20256C750A4E756D626572206F6624
:1001F0002046415473203D2025750A526F6F7420AC
:1002000044495220656E7472696573203D202575DE
:100210000A536563746F72732F464154203D202545
:100220006C750A4E756D626572206F6620636C7521
:100230007374657273203D20256C750A4641542005
:10024000737461727420286C626129203D20256CD2
:10025000750A44495220737461727420286C62617B
:100260002C636C7573746F7229203D20256C750AA0
:100270004461746120737461727420286C62612916
:10028000203D20256C750A0A2E2E2E000D25752086
:1002900066696C65732C20256C75206279746573B2
:1002A0002E0A257520666F6C646572732E0A256CA4
:1002B00075204B4220746F74616C206469736B20ED
:1002C00073706163652E0A256C75204B4220617640
:1002D00061696C61626C652E0A0025632563256384
:1002E000256325632025752F253032752F25303263
:1002F0007520253032753A253032752025396C75D8
:1003000020202573002534752046696C65287329E3
:100310002C2531306C7520627974657320746F748C
:10032000616C0A25347520446972287329002C20D9
:100330002531306C754B2062797465732066726567
:10034000650A0066707472203D20256C752830782F
:10035000256C58290A00256C752062797465732014
:1003600072656164207769746820256C75206279F4
:100370007465732F7365632E0A00256C752062798E
:10038000746573207772697474656E207769746818
:1003900020256C752062797465732F7365632E0A4E
:1003A000004F70656E696E672022257322000A4334
:1003B00072656174696E672022257322000A436F9B
:1003C0007079696E672E2E2E000A256C7520627971
:1003D00074657320636F7069656420776974682041
:1003E000256C752062797465732F7365632E0A001E
:1003F0005B4469736B20636F6E746F726C735D0A1C
:10040000206469203C7064233E202D20496E69746D
:1004100069616C697A65206469736B0A2064642081
:100420005B3C7064233E203C736563743E5D202D0D
:100430002044756D7020612073656372746F720A59
:10044000206473203C7064233E202D2053686F7716
:10045000206469736B207374617475730A5B4275F1
:100460006666657220636F6E74726F6C735D0A20CE
:100470006264203C6F66733E202D2044756D7020B1
:10048000776F726B696E67206275666665720A20A7
:100490006265203C6F66733E205B3C646174613E24
:1004A0005D202E2E2E202D204564697420776F72DA
:1004B0006B696E67206275666665720A20627220DB
:1004C0003C7064233E203C736563743E205B3C6E4D
:1004D000756D3E5D202D2052656164206469736BEB
:1004E00020696E746F20776F726B696E672062751A
:1004F000666665720A206277203C7064233E203C69
:10050000736563743E205B3C6E756D3E5D202D20EF
:10051000577269746520776F726B696E67206275B8
:100520006666657220696E746F206469736B0A2059
:100530006266203C76616C3E202D2046696C6C2002
:10054000776F726B696E67206275666665720A5BAB
:1005500046696C652073797374656D20636F6E7482
:10056000726F6C735D0A206669203C6C64233E20C8
:100570002D20466F72636520696E697469616C69CC
:100580007A65642074686520766F6C756D650A20E5
:100590006673205B3C706174683E5D202D2053685B
:1005A0006F7720766F6C756D6520737461747573E9
:1005B0000A20666C205B3C706174683E5D202D20D3
:1005C00053686F772061206469726563746F727914
:1005D0000A20666F203C6D6F64653E203C66696C46
:1005E000653E202D204F70656E20612066696C6528
:1005F0000A206663202D20436C6F73652074686544
:100600002066696C650A206665203C6F66733E2033
:100610002D204D6F766520667020696E206E6F729A
:100620006D616C207365656B0A206664203C6C65A7
:100630006E3E202D205265616420616E64206475D9
:100640006D70207468652066696C650A206672208A
:100650003C6C656E3E202D20526561642074686597
:100660002066696C650A206677203C6C656E3E20CA
:100670003C76616C3E202D20577269746520746F42
:10068000207468652066696C650A20666E203C6F80
:100690007267206E616D653E203C6E6577206E61ED
:1006A0006D653E202D2052656E616D6520616E2066
:1006B0006F626A6563740A206675203C6F626A2007
:1006C0006E616D653E202D20556E6C696E6B2061EC
:1006D0006E206F626A6563740A206676202D20544E
:1006E00072756E63617465207468652066696C65F7
:1006F0002061742063757272656E742066700A20C2
:10070000666B203C646972206E616D653E202D2011
:100710004372656174652061206469726563746FFA
:1007200072790A206661203C617472723E203C6DD1
:1007300061736B3E203C6F626A656374206E616D0D
:10074000653E202D204368616E6765206F626A6593
:100750006374206174747269627574650A206674CA
:10076000203C796561723E203C6D6F6E74683E205E
:100770003C6461793E203C686F75723E203C6D6937
:100780006E3E203C7365633E203C6F626A65637415
:10079000206E616D653E202D204368616E67652087
:1007A00074696D657374616D70206F6620616E2071
:1007B0006F626A6563740A206678203C73726320F6
:1007C00066696C653E203C6473742066696C653EA6
:1007D000202D20436F707920612066696C650A20A6
:1007E0006667203C706174683E202D204368616E0E
:1007F00067652063757272656E74206469726563E3
:10080000746F72790A20666A203C6C64233E202D46
:10081000204368616E67652063757272656E74202F
:1008200064726976650A206671202D2053686F779F
:100830002063757272656E74206469726563746F8B
:1008400072790A20666D203C6C64233E203C7275F0
:100850006C653E203C636C75737465722073697AB5
:10086000653E202D204372656174652066696C6564
:100870002073797374656D0A5B4D69736320636FD0
:100880006D6D616E64735D0A2070203C77617666E1
:10089000696C653E202D20506C6179205249464696
:1008A0002D574156452066696C650A2074205B3CD3
:1008B000796561723E203C6D6F6E74683E203C6DC0
:1008C0006461793E203C686F75723E203C6D696EB4
:1008D0003E203C7365633E5D202D205365742F538D
:1008E000686F772063757272656E742074696D65C8
:1008F0000A0A002530386C58200020253032580074
:1009000072633D25752046525F25530A000011246D
:100910001FBECFEFD0E1DEBFCDBF11E0A0E0B1E060
:10092000E8E1FDE602C005900D92A03FB107D9F7BE
:100930001DE0A0EFB1E001C01D92A737B107E1F7BC
:100940000E94F0280C948A360C9400001CBC8FEE98
:1009500085B98FE484B908958EBD0DB407FEFDCF2F
:100960008EB5089582E38093F0018FEF0E94AC046E
:100970008F3F21F09091F0019923B9F721E030E009
:100980008F3F11F020E030E0822F932F08952C9AB2
:100990008FEF0E94AC0408952C988FEF0E94AC0456
:1009A0000E94B204009729F40E94C70480E090E0FE
:1009B000089581E090E008950F931F93CF93DF9304
:1009C000EC018B0184E18093F1018FEF0E94AC0474
:1009D0008F3F39F48091F1018823B9F780E090E0EE
:1009E0001EC08E3FD1F48FEF8EBD0DB407FEFDCF3C
:1009F0009EB598838EBD0DB407FEFDCF9EB599833D
:100A000022960250104081F78FEF0E94AC048FEFC6
:100A10000E94AC0481E090E002C080E090E0DF91B1
:100A2000CF911F910F9108951F93CF93DF93EC0106
:100A3000162F0E94B204009741F1812F0E94AC044E
:100A40001D3F31F1CE0180509E4F28812EBD0DB447
:100A500007FEFDCF29812EBD22960DB407FEFDCFE6
:100A60008C179D0791F78FEF0E94AC048FEF0E94C7
:100A7000AC048FEF0E94AC048F7121E030E0853030
:100A800011F020E030E0C90105C080E090E002C034
:100A900081E090E0DF91CF911F910895FF920F9335
:100AA0001F93CF93DF93C82FD42F152F062FF72E28
:100AB00088234CF487E340E050E0BA010E944E05E1
:100AC000823068F5CF770E94C7040E94CC0400975B
:100AD00029F18C2F80640E94AC048F2D0E94AC04FD
:100AE000802F0E94AC04812F0E94AC048D2F0E94A5
:100AF000AC04CC23F1F0C830C1F081E00E94AC041A
:100B0000CC3019F48FEF0E94AC04CAE08FEF0E9442
:100B1000AC04882324F4C150C9F701C08FEFDF91E2
:100B2000CF911F910F91FF90089587E80E94AC0428
:100B3000ECCF85E90E94AC04E8CFCF92DF92EF9230
:100B4000FF920F931F93CF93DF9300D000D0CDB7C8
:100B5000DEB7882309F0A8C00E94A6048091000196
:100B600081FF03C080910001A0C080E185B980EBC6
:100B700084B981E58CBD82E58CBD0AE08FEF0E94CF
:100B8000AC040150D9F780E040E050E0BA010E9487
:100B90004E05813009F09CC084E68093F10188E025
:100BA0004AEA51E060E070E00E944E05813009F0B1
:100BB00042C06E010894C11CD11C8E010B5F1F4FF7
:100BC00076018FEF0E94AC04F70181937F01E0175B
:100BD000F107B9F78B81813009F07AC08C818A3AAC
:100BE00009F076C08091F101882349F089EA40E05C
:100BF00050E060E070E40E944E05882399F78091F0
:100C0000F101882309F464C08AE340E050E0BA01AE
:100C10000E944E05882309F05BC004E08FEF0E941C
:100C2000AC04F60181936F010150C1F7898186FD03
:100C300049C084E048C089EA40E050E0BA010E941F
:100C40004E05823018F412E009EA02C011E001E01A
:100C50008091F101882341F0802F40E050E0BA01FB
:100C60000E944E058823A1F78091F101882381F12C
:100C700080E140E052E060E070E00E944E05882391
:100C800039F51093F2010E94C704112341F08091BD
:100C900000018E7F8093000180E58CBD02C00E9420
:100CA000A6048091000101C081E00F900F900F9089
:100CB0000F90DF91CF911F910F91FF90EF90DF90F8
:100CC000CF9008958CE08093F2010E94C704DFCF9B
:100CD0001092F2010E94C704E2CF882319F4809198
:100CE0000001089581E008950F93CF93DF93EB0106
:100CF000882309F046C0002309F445C08091000113
:100D000080FD43C08091F20183FD09C0012E19E0EE
:100D1000220F331F441F551F1A95D1F7102D013094
:100D200079F481E1BA01A9010E944E05882311F5E9
:100D3000CE0160E072E00E94DC040097D1F41AC09A
:100D400082E1BA01A9010E944E05882399F4CE01DF
:100D500060E072E00E94DC04009721F0C050DE4F9A
:100D60000150A9F78CE040E050E0BA010E944E0526
:100D700001C000E00E94C70481E0002339F480E054
:100D800005C084E003C084E001C083E0DF91CF911F
:100D90000F910895CF92DF92EF92FF920F93CF932E
:100DA000DF93EB0169017A01882309F057C0002322
:100DB00009F456C08091000180FD54C0809100016B
:100DC00082FD52C08091F20190E083FD09C00B2E9C
:100DD000B9E0CC0CDD1CEE1CFF1CBA95D1F7B02D90
:100DE000013071F488E1B701A6010E944E05882305
:100DF00071F5CE016EEF0E941405009729F527C00A
:100E000086709070009739F0402F50E060E070E0FD
:100E100087E90E944E0589E1B701A6010E944E05AF
:100E20008823A9F4CE016CEF0E941405009721F0ED
:100E3000C050DE4F0150B1F780E090E06DEF0E94AE
:100E40001405009719F003C000E001C001E00E9402
:100E5000C70481E0002349F480E007C084E005C0B6
:100E600084E003C083E001C082E0DF91CF910F9165
:100E7000FF90EF90DF90CF900895EF92FF920F9345
:100E80001F93CF93DF93CDB7DEB760970FB6F8947B
:100E9000DEBF0FBECDBF7A01882309F0CEC1653019
:100EA00089F4FA018081882321F0813009F0C7C1DB
:100EB00004C00E94A60400E0C5C181E0FA0181835C
:100EC00000E0C0C18091000180FDBBC16A3009F41F
:100ED0003EC16B3058F46130F9F06130A0F06230FF
:100EE00009F496C0633009F088C199C06C3009F4E8
:100EF00047C16C3008F431C16D3009F454C16E3013
:100F000009F07BC166C10E94CC04009709F477C147
:100F10000E94C70400E08EC189E040E050E0BA01C1
:100F20000E944E05882309F06CC1CE01019660E154
:100F300070E00E94DC04009709F465C18981829504
:100F4000869586958370813051F5488550E060E044
:100F500070E04F73507060707070BA01552744276D
:100F60004F5F5F4F6F4F7F4F998580E02A85820FDB
:100F7000911DA0E0B0E0840F951FA61FB71F072E9C
:100F80007AE0880F991FAA1FBB1F7A95D1F7702DA1
:100F9000F70180839183A283B38300E04BC129854D
:100FA0002295269526952370888590E0880F991FB5
:100FB000880F991F820F911D01962F8130E02370B9
:100FC0003070322F2227330F330F820F931FAC0163
:100FD00060E070E09E819F708B85881F8827881F46
:100FE000980F9E5F8A858370880F890F90E009971C
:100FF0008A019B0104C0000F111F221F331F8A9515
:10100000D2F7F701008311832283338300E012C1FA
:1010100080E092E0FA019183808300E00BC10091AF
:10102000F20102FF2FC08DE840E050E0BA010E94BB
:101030004E05882309F0E9C08FEF0E94AC04CE0171
:10104000019660E170E00E94DC04009709F4DFC0C3
:1010500000E38FEF0E94AC040150D9F72B85229555
:101060002F7080E190E0A0E0B0E004C0880F991FED
:10107000AA1FBB1F2A95D2F7F70180839183A28311
:10108000B383D8C089E040E050E0BA010E944E0529
:10109000882309F0BEC0CE01019660E170E00E9495
:1010A000DC04009709F4B7C001FF25C08C85881FB8
:1010B0008827881F90E001962B8530E02F733070D1
:1010C000220F331F280F391F8E85829586958695AE
:1010D000837090E00197890102C0000F111F8A956B
:1010E000E2F7C801A0E0B0E0F70180839183A2831A
:1010F000B38300E09FC08C85482F50E04370507050
:10110000440F551F440F551F440F551F8295869558
:101110008770480F511D4F5F5F4F2B8530E02C7754
:10112000307035952795359527952F5F3F4F429F16
:10113000C001439F900D529F900D1124A0E0B0E09C
:10114000F70180839183A283B38300E073C0809111
:10115000F201FA01808300E06DC089E040E050E0D8
:10116000BA010E944E05882309F057C0C70160E10B
:1011700070E00E94DC04009709F051C001E05AC001
:101180008AE040E050E0BA010E944E05882309F051
:1011900048C0C70160E170E00E94DC04009709F0DC
:1011A00042C001E047C08AE340E050E0BA010E943B
:1011B0004E058823D1F587010C5F1F4F8FEF0E94EA
:1011C000AC04F70181937F01E017F107B9F700E064
:1011D00031C08DE840E050E0BA010E944E058823FE
:1011E00031F58FEF0E94AC04C70160E470E00E940B
:1011F000DC040097F1F401E01DC004E01BC001E035
:1012000019C001E017C001E015C001E013C001E002
:1012100011C001E00FC001E00DC001E00BC000E013
:1012200009C001E007C000E005C001E003C001E023
:1012300001C000E00E94C70405C004E003C004E050
:1012400001C003E0802F60960FB6F894DEBF0FBE9A
:10125000CDBFDF91CF911F910F91FF90EF90089537
:101260008091F101882319F081508093F1018091E0
:10127000F001882319F081508093F00180910001E2
:10128000189B02C0846001C08B7F199902C08D7FBA
:1012900001C083608093000108954115510549F014
:1012A000A62FB72FE82FF92F8D91819341505040F1
:1012B000D9F708954115510531F0E82FF92F6193C1
:1012C00041505040E1F708950F931F93DC01FB015B
:1012D000938D80E0028D10E0082B192B20E030E088
:1012E0008C91833079F4558940E0848990E0842B97
:1012F000952BA0E0B0E0DC0199278827082B192B5B
:101300002A2B3B2B602F712F822F932F1F910F9130
:101310000895FC01428F538FAB0166277727448BDA
:10132000558B0895EF92FF920F931F93CF93DF9306
:10133000FC017B018B01075F1F4F86859785A08984
:10134000B1890097A105B10509F465C0C289D389A7
:101350002881203299F0DE011196F80180E090E0BA
:1013600035EE03C02D91203249F0253009F4232FAA
:1013700021938F01019688309105A1F788858032ED
:1013800081F08EE2F80180838885803209F04CC0BC
:101390000F5F1F4F06C08C0104C0F80123830C5F50
:1013A0001F4F8B85F70180878F8D90E0A0E0B0E024
:1013B000B82FAA27992788274E8D50E060E070E06B
:1013C000BA0155274427482B592B6A2B7B2B8C8D30
:1013D00090E0A0E0B0E0482B592B6A2B7B2B9D8D31
:1013E00080E0A0E0B0E0842B952BA62BB72B808368
:1013F0009183A283B383398D20E0888D90E0822B86
:10140000932B958384839F8980E02E8930E0822B03
:10141000932B97838683F8011082DF91CF911F91E0
:101420000F91FF90EF900895F8018183C801029613
:101430002985203209F4AFCF2283C80103962A857B
:10144000203209F0AACFA7CFDC01ED91FC911197D2
:10145000309799F08081882391F026813781129608
:101460008D919C9113972817390759F481810E9417
:101470006D0680FF08C083E0089589E0089589E043
:10148000089589E0089580E008950F93CF93DF9346
:10149000EC019A01AB01BC016E5C7F4F898101E0D8
:1014A0000E947406882309F083C0FE01EF5CFD4FA3
:1014B000908180E0FE01E05DFD4F208130E0822BD5
:1014C000932B2AEA8535920709F074C0FE01E5598D
:1014D000FF4F808190E0A0E0B0E0B82FAA279927C5
:1014E0008827FE01E659FF4F408150E060E070E040
:1014F000BA0155274427482B592B6A2B7B2BFE0119
:10150000E859FF4F808190E0A0E0B0E0482B592BD4
:101510006A2B7B2BFE01E759FF4F908180E0A0E012
:10152000B0E0482B592B6A2B7B2B7070463481E43A
:10153000580784E5680780E07807F1F1FE01E95774
:10154000FF4F808190E0A0E0B0E0B82FAA27992754
:101550008827FE01EA57FF4F408150E060E070E0CD
:10156000BA0155274427482B592B6A2B7B2BFE01A8
:10157000EC57FF4F808190E0A0E0B0E0482B592B62
:101580006A2B7B2BCB57DF4F988180E0A0E0B0E047
:10159000482B592B6A2B7B2B707081E0463491E4E9
:1015A000590794E5690790E0790739F480E005C0B0
:1015B00083E003C082E001C080E0DF91CF910F9112
:1015C00008952F923F924F925F926F927F928F92E7
:1015D0009F92AF92BF92CF92DF92EF92FF920F93C2
:1015E0001F93CF93DF93CDB7DEB72F970FB6F89445
:1015F000DEBF0FBECDBF142FDC01ED91FC91119722
:10160000808190E0C0978A30910540F421812A338F
:1016100029F432961196FC93EE9303C08091F50164
:1016200090E0FB0111821082009709F0D2C3209153
:10163000F3013091F4013F872E872115310509F41C
:10164000CAC331832083D9018C91882369F0119614
:101650008C910E946D0680FD07C0112309F4BDC363
:1016600082FDBDC380E0DCC3EE85FF851082118260
:1016700080E00E949D0580FDB4C3112311F082FD1E
:10168000B2C38E859F8540E050E0BA010E94450AB2
:10169000813009F043C0EE85FF85EC50FE4F80811C
:1016A000882309F4A2C3EE85FF85E550FE4F8081B3
:1016B00090E0A0E0B0E0B82FAA2799278827EE8510
:1016C000FF85E650FE4F408150E060E070E0BA01D7
:1016D00055274427842B952BA62BB72BEE85FF850A
:1016E000E850FE4F408150E060E070E0482B592BFD
:1016F0006A2B7B2BEE85FF85E750FE4F908180E0C3
:101700006C01EE24FF24C42AD52AE62AF72A8E8506
:101710009F85B701A6010E94450A03C0CC24DD24A1
:101720007601833009F463C3882309F062C3AE8570
:10173000BF85DE969C91DE9780E0DD962C91DD974B
:1017400030E0822B932BB2E080309B0709F053C32B
:10175000EE85FF85E75BFF4F308120E0EE85FF855A
:10176000E85BFF4F808190E0822B932B4C01AA24F1
:10177000BB2481149104A104B104A9F5EE85FF8571
:10178000E75AFF4F408150E060E070E0742F662719
:1017900055274427EE85FF85E85AFF4F808190E06A
:1017A000A0E0B0E0DC0199278827482B592B6A2B51
:1017B0007B2BEE85FF85EA5AFF4F808190E0A0E009
:1017C000B0E0482B592B6A2B7B2BEE85FF85E95A1D
:1017D000FF4F908180E0A0E0B0E04A015B01882AE1
:1017E000992AAA2ABB2AEE85FF85868E978EA0A20B
:1017F000B1A2EE5BFF4F00810983AE85BF851396D2
:101800000C931397802F8150823008F0F6C2DF9638
:101810000C91DF970D8312960C931297002309F415
:10182000EEC2802F90E09C01215030408223932310
:10183000009709F0E6C2FD01EC5BFF4F308120E02C
:10184000FD01ED5BFF4F808190E01901282A392AC4
:1018500019963C922E921897C1018F709070009744
:1018600009F0D1C2FD01EA5BFF4F308120E0FD01AC
:10187000EB5BFF4F808190E0822B932B2C01662441
:1018800077244114510461047104A1F5FD01EB5A60
:10189000FF4F808190E0A0E0B0E0782F66275527C9
:1018A0004427EE85FF85EC5AFF4F808190E0A0E051
:1018B000B0E0DC0199278827482B592B6A2B7B2B1A
:1018C000EE85FF85EE5AFF4F808190E0A0E0B0E00A
:1018D000482B592B6A2B7B2BEE85FF85ED5AFF4F4A
:1018E000908180E0A0E0B0E02A013B01482A592A1B
:1018F0006A2A7B2AEE85FF85EF5BFF4F308120E06F
:10190000EE85FF85E05CFF4F808190E08901082B28
:10191000192B0115110509F478C28981282F30E0AF
:1019200040E050E0C501B4010E9415366A877B870C
:101930008C879D87980140E050E02E833F83488745
:101940005987C101929582958F7089279F70892749
:10195000A0E0B0E0820F931FA41FB51F0A851B856E
:101960002C853D85080F191F2A1F3B1F09831A83E9
:101970002B833C83401651066206730608F447C267
:10198000C301B201601B710B820B930B1D81212FD0
:1019900030E040E050E00E94343689019A01D901DC
:1019A000C801011511052105310509F432C2063FB0
:1019B0004FE0140740E0240740E0340718F44424C3
:1019C000439403C04424689441F8863F5FEF950731
:1019D00050E0A50750E0B50708F03BC2B901A801E7
:1019E0004E5F5F4F6F4F7F4FAE85BF855A964D93C9
:1019F0005D936D937C935D9789819A81AB81BC8166
:101A00008C0D9D1DAE1DBF1DEE85FF8582A793A782
:101A1000A4A7B5A78E819F81A885B9858C0D9D1D32
:101A2000AE1DBF1D82A393A3A4A3B5A3F3E04F16DD
:101A300009F046C02114310409F0EDC1EE85FF859F
:101A4000EF59FF4F808190E0A0E0B0E0382F2227CF
:101A500011270027EE85FF85E05AFF4F808190E037
:101A6000A0E0B0E0DC0199278827082B192B2A2B4E
:101A70003B2BEE85FF85E25AFF4F808190E0A0E08E
:101A8000B0E0082B192B2A2B3B2BEE85FF85E15A62
:101A9000FF4F908180E0A0E0B0E0802B912BA22B43
:101AA000B32BEE85FF8586A397A3A0A7B1A7440F0C
:101AB000551F661F771F440F551F661F771F30C0C5
:101AC0002114310409F4A9C10A851B852C853D85A3
:101AD000800F911FA21FB31FEE85FF8586A397A3DA
:101AE000A0A7B1A7F2E04F1629F4440F551F661FB7
:101AF000771F16C0DB01CA01880F991FAA1FBB1FE1
:101B0000840F951FA61FB71FB695A7959795879524
:101B10004170507060707070480F591F6A1F7B1FB2
:101B2000DB01CA0181509E4FAF4FBF4F072E79E0B6
:101B3000B695A795979587957A95D1F7702D8816C4
:101B40009906AA06BB0608F46AC18FEF9FEFDC0175
:101B5000EE85FF8586879787A08BB18B12861386CB
:101B600014861586B3E04B1609F015C11582ED59A0
:101B7000FF4F308120E0EE85FF85EE59FF4F8081D9
:101B800090E0822B932BA0E0B0E0A7019601280FF4
:101B9000391F4A1F5B1FAE85BF8552962D933D931B
:101BA0004D935C935597BD016E5C7F4F11968C9160
:101BB00001E00E947406882309F0EDC0EE85FF85E0
:101BC000EF5CFD4F308120E0EE85FF85E05DFD4F4D
:101BD000808190E0822B932BBAEA85359B0709F030
:101BE000DAC0EE85FF8545A950E060E070E0742F13
:101BF00066275527442784A990E0A0E0B0E0DC01E7
:101C000099278827482B592B6A2B7B2B82A990E098
:101C1000A0E0B0E0482B592B6A2B7B2B93A980E0E6
:101C2000A0E0B0E0842B952BA62BB72B8235F2E5F4
:101C30009F07F1E6AF07F1E4BF0709F0ACC0EE85FE
:101C4000FF85E75EFD4F808190E0A0E0B0E0B82F17
:101C5000AA2799278827EE85FF85E85EFD4F4081FA
:101C600050E060E070E0BA0155274427842B952BA3
:101C7000A62BB72BEE85FF85EA5EFD4F408150E035
:101C800060E070E0482B592B6A2B7B2BEE85FF859B
:101C9000E95EFD4F908180E0A0E0B0E0842B952BC1
:101CA000A62BB72B823702E7900701E4A00701E6D5
:101CB000B00709F070C0EE85FF85EF5DFD4F8081B4
:101CC00090E0A0E0B0E0B82FAA2799278827EE85FA
:101CD000FF85E05EFD4F408150E060E070E0BA01BA
:101CE00055274427842B952BA62BB72BEE85FF85F4
:101CF000E25EFD4F408150E060E070E0482B592BE0
:101D00006A2B7B2BEE85FF85E15EFD4F908180E0A5
:101D1000A0E0B0E0842B952BA62BB72BEE85FF859A
:101D200082879387A487B587E35EFD4F808190E02B
:101D3000A0E0B0E0B82FAA2799278827EE85FF8575
:101D4000E45EFD4F408150E060E070E0BA0155274D
:101D50004427842B952BA62BB72BEE85FF85E65EBB
:101D6000FD4F408150E060E070E0482B592B6A2B1A
:101D70007B2BEE85FF85E55EFD4F908180E0A0E046
:101D8000B0E0842B952BA62BB72BEE85FF8586879D
:101D90009787A08BB18BAE85BF854C928091F60161
:101DA0009091F70101969093F7018093F6011796B1
:101DB0009C938E931697FD0116A617A610AA11AA3A
:101DC000148256961D921D921D921C92599780E086
:101DD00027C08BE025C08CE023C080E021C08AE0D2
:101DE0001FC083E01DC08AE01BC08DE019C081E0E8
:101DF00017C08DE015C08DE013C08DE011C08DE0DF
:101E00000FC08DE00DC08DE00BC08DE009C08DE0EE
:101E100007C08DE005C08DE003C08DE001C08DE0FE
:101E20002F960FB6F894DEBF0FBECDBFDF91CF91D6
:101E30001F910F91FF90EF90DF90CF90BF90AF90E8
:101E40009F908F907F906F905F904F903F902F90DA
:101E50000895B901A8014E5F5F4F6F4F7F4FEE8528
:101E6000FF85428F538F648F758F89819A81AB81F3
:101E7000BC818C0D9D1DAE1DBF1D82A793A7A4A77D
:101E8000B5A78E819F81A885B9858C0D9D1DAE1D3E
:101E9000BF1D82A393A3A4A3B5A30F2EF3E04F2EDF
:101EA000F02DC8CD4F925F926F927F928F929F924A
:101EB000AF92BF92CF92DF92EF92FF920F93CF93A8
:101EC0005C012A013B01FC01C6A4D7A4E0A8F1A84B
:101ED000C416D506E606F70609F454C084818823A3
:101EE000D1F10F2EF2E38F2E9924F02D8A0C9B1C3A
:101EF0008181B401A701960101E00E94CA068823EE
:101F000009F042C0F5011482468D578D60A171A180
:101F100082A193A1A4A1B5A1840F951FA61FB71FED
:101F2000C816D906EA06FB06B0F4C381C23098F0A1
:101F3000F501868D978DA0A1B1A1C80ED91EEA1E0C
:101F4000FB1E8181B401A701960101E00E94CA062F
:101F5000C150C13069F74114510461047104B1F0FA
:101F6000B5016E5C7F4FF5018181A301920101E013
:101F70000E947406882361F4F50146A657A660AA5C
:101F800071AA07C080E005C081E003C080E001C005
:101F900081E0CF910F91FF90EF90DF90CF90BF90B5
:101FA000AF909F908F907F906F905F904F9008952B
:101FB000EF92FF920F931F93CF937C0140E050E08C
:101FC000BA010E94520FC82F882309F076C0F7018A
:101FD0008081833009F068C08581882309F464C05A
:101FE00016A617A610AA11AA87010E5C1F4FC801DA
:101FF00060E070E040E052E00E945A09F701E05DC5
:10200000FD4F85E58083F701EF5CFD4F8AEA808311
:1020100082E5F70182AB83AB81E684AB91E495ABBB
:10202000EA5EFD4F22E72083F701E95EFD4F208342
:10203000F701E85EFD4F9083F701E75EFD4F808377
:10204000F7013685278590898189E65EFD4F3083CB
:10205000F701E55EFD4F2083F701E45EFD4F9083BD
:10206000F701E35EFD4F8083F70132852385948578
:102070008585E25EFD4F3083F701E15EFD4F2083F1
:10208000F701E05EFD4F9083F701EF5DFD4F808328
:10209000F70122893389448955898181B80101E09A
:1020A0000E94CA06F7011582F701818160E040E0D5
:1020B00050E00E943D078111C1E08C2FCF911F910C
:1020C0000F91FF90EF90089560E070E0CB010895CC
:1020D0000F931F93CF93DF93EC01DB01CA010297AB
:1020E000A109B1094A8D5B8D6C8D7D8D42505040A8
:1020F0006040704084179507A607B70798F42A81B7
:1021000030E040E050E0BC01CD010E9415368B016B
:102110009C018AA59BA5ACA5BDA5080F191F2A1F68
:102120003B1F03C000E010E09801602F712F822F49
:10213000932FDF91CF911F910F910895BF92CF926E
:10214000DF92EF92FF920F931F93CF93DF93EC01F7
:102150006A017B01423051056105710508F4CFC069
:102160008A8D9B8DAC8DBD8D481759076A077B07FB
:1021700008F0CAC08881823009F45CC0833009F459
:102180007BC0813009F0C5C09A0136952795890139
:10219000040F151FA801452F5527469560E070E0F4
:1021A0008AA19BA1ACA1BDA1480F591F6A1F7B1F2B
:1021B000CE010E94520F882309F0AFC0F801F170E0
:1021C000EC0FFD1FB2A80F5F1F4FA801452F552729
:1021D000469560E070E08AA19BA1ACA1BDA1480F2B
:1021E000591F6A1F7B1FCE010E94520F882309F0DE
:1021F00098C02B2D30E0F801F170EC0FFD1F92A973
:1022000080E0822B932B21E0C222DD24C114D10473
:1022100051F0929582958F7089279F7089278C0144
:1022200020E030E089C08C0120E030E01F70207099
:10223000307082C0452F562F672F77278AA19BA128
:10224000ACA1BDA1480F591F6A1F7B1FCE010E9480
:10225000520F882309F069C0F601EE0FFF1FF170DD
:10226000CE0FDF1F9BA980E00AA910E0802B912BE5
:102270008C0120E030E060C0689416F87695679590
:10228000579547951694D1F78AA19BA1ACA1BDA102
:10229000480F591F6A1F7B1FCE010E94520F8823CF
:1022A00009F047C0F601EE0FFF1FEE0FFF1FF170A0
:1022B000CE0FDF1F0DA910E020E030E0302F2227E5
:1022C000112700278CA990E0A0E0B0E0DC0199275D
:1022D0008827082B192B2A2B3B2B8AA990E0A0E0FA
:1022E000B0E0082B192B2A2B3B2B9BA980E0A0E008
:1022F000B0E0082B192B2A2B3B2B3F701DC001E0AF
:1023000010E020E030E018C001E010E020E030E014
:1023100013C00FEF1FEF98010FC00FEF1FEF9801D1
:102320000BC00FEF1FEF980107C00FEF1FEF9801D1
:1023300003C00FEF1FEF9801602F712F822F932F93
:10234000DF91CF911F910F91FF90EF90DF90CF9091
:10235000BF900895EF92FF920F931F93CF93DF9357
:10236000EC018B017D836C834E815F81688579856B
:10237000413051056105710509F49FC0E881F9817B
:10238000828D938DA48DB58D481759076A077B07F9
:1023900008F095C0411551056105710569F5808109
:1023A000833049F446A157A160A571A54115510597
:1023B0006105710509F51A861B861C861D868085B8
:1023C00091850817190708F07CC0C801929582957D
:1023D0008F7089279F708927AC0160E070E086A12B
:1023E00097A1A0A5B1A5840F951FA61FB71F8E8723
:1023F0009F87A88BB98B4EC0828190E07C01EE0C48
:10240000FF1CEE0CFF1CEE0CFF1CEE0CFF1C0E154F
:102410001F0528F1888199810E949E10AB01BC01A3
:102420004F3F8FEF58078FEF68078FEF780709F45A
:102430004AC0423051056105710508F446C0E88183
:10244000F981828D938DA48DB58D481759076A0740
:102450007B07E8F50E191F090E151F05D8F64A87E8
:102460005B876C877D87888199810E946810AB01AA
:10247000BC01C801929582958F7089279F7089272A
:10248000A0E0B0E0840F951FA61FB71F8E879F871F
:10249000A88BB98B88819981C2960F701070000F3C
:1024A000111F02951295107F1027007F1027800FB3
:1024B000911F9B8B8A8B80E00BC082E009C082E079
:1024C00007C082E005C081E003C082E001C082E075
:1024D000DF91CF911F910F91FF90EF900895CF93CF
:1024E000DF93EC016C817D810E94AA11882391F415
:1024F0004E855F8568897989888199810E94520F0C
:10250000882341F4EA89FB8995EE9083E881F9817B
:1025100091E09483DF91CF9108958F929F92AF9233
:10252000BF92CF92DF92EF92FF920F931F93CF93C0
:10253000DF93EC016A017B014801590142305105EA
:102540006105710508F4CAC08A8D9B8DAC8DBD8D67
:10255000481759076A077B0708F0C2C08881823094
:1025600009F46AC0833009F482C0813009F0B2C036
:102570009A01369527958901040F151FA801452F4B
:102580005527469560E070E08AA19BA1ACA1BDA152
:10259000480F591F6A1F7B1FCE010E94520F8823CC
:1025A00009F099C0C8019170E1E0CE22DD24C11488
:1025B000D10451F0FE01E80FF91F22A92F70382D28
:1025C0003295307F232B01C0282DFE01E80FF91F23
:1025D00022AB0F5F1F4F81E08C83A801452F552749
:1025E000469560E070E08AA19BA1ACA1BDA1480F17
:1025F000591F6A1F7B1FCE010E94520F882309F0CA
:102600006AC01170C114D10449F0689413F8B694EB
:10261000A794979487941694D1F709C0FE01E00F10
:10262000F11F22A9207F992D9F70822E892A0C0FDD
:102630001D1FF80182AA4FC0452F562F672F7727FD
:102640008AA19BA1ACA1BDA1480F591F6A1F7B1F86
:10265000CE010E94520F882309F03DC0F601EE0F13
:10266000FF1FF170EC0FFD1F82AA93AA34C068947B
:1026700016F876956795579547951694D1F78AA1E0
:102680009BA1ACA1BDA1480F591F6A1F7B1FCE01A2
:102690000E94520F8823F9F49601220F331F220F54
:1026A000331F3170FE01E20FF31F45A950E060E0D7
:1026B00070E0742F66275527442740705070607073
:1026C000707F482959296A297B2942AB53AB64ABF7
:1026D00075AB01C082E091E09C8303C082E001C041
:1026E00082E0DF91CF911F910F91FF90EF90DF90EB
:1026F000CF90BF90AF909F908F9008952F923F9270
:102700004F925F926F927F928F929F92AF92BF9201
:10271000CF92DF92EF92FF920F931F93CF93DF93AD
:1027200000D000D0CDB7DEB71C0149835A836B833C
:102730007C834115510561057105C1F4DC011A96D0
:102740008D909D90AD90BC901D9781149104A10433
:10275000B10451F15A968D919D910D90BC91A02D8F
:1027600088169906AA06BB0620F527C049815A811A
:102770006B817C810E949E108B019C0162307105EF
:102780008105910508F4ADC0F101828D938DA48D72
:10279000B58D081719072A073B0708F4B6C08980CA
:1027A0009A80AB80BC8009C088249924540183940A
:1027B00004C088249924540183947501640144243D
:1027C00055243201689441F80894C11CD11CE11CC5
:1027D000F11CF101828D938DA48DB58DC816D9069B
:1027E000EA06FB0648F0F2E08F169104A104B1045A
:1027F00008F47CC073016201C101B701A6010E9407
:102800009E108B019C016115710581059105A9F050
:102810000F3F8FEF18078FEF28078FEF380709F466
:1028200074C0013011052105310509F46EC0C814CA
:10283000D904EA04FB0441F65DC08C2C4D2CBE2C5F
:10284000AF2CC1014C2D5D2D6E2D7F2D0FEF1FEF95
:102850002FEF3FE00E948D128823E9F589819A814C
:10286000AB81BC810097A105B10569F0C101498127
:102870005A816B817C810C2D1D2D2E2D3F2D0E94A8
:102880008D12882341F5D1011A968C921A971B96C6
:102890004C921B971C96BC921C971D96AC921D9750
:1028A0001E968D919D910D90BC91A02D8F3FEFEFC5
:1028B0009E07EFEFAE07EFEFBE0701F10197A10909
:1028C000B109F10186879787A08BB18B81E0858361
:1028D000970186011AC08130A1F40FEF1FEF980114
:1028E00014C001E010E020E030E00FC000E010E094
:1028F00098010BC000E010E0980107C09701860125
:1029000004C001E010E020E030E0602F712F822F42
:10291000932F0F900F900F900F90DF91CF911F91F9
:102920000F91FF90EF90DF90CF90BF90AF909F906E
:102930008F907F906F905F904F903F902F90089571
:102940008F929F92AF92BF92CF92DF92EF92FF92BF
:102950000F931F93CF93DF938C01EB01DC0114964F
:10296000ED90FC9015970894E11CF11CE114F10422
:1029700009F409C11E968D919D910D90BC91A02DD9
:102980000097A105B10509F400C10F2EFFE0CF2E7D
:10299000DD24F02DCE20DF20C114D10409F0D8C0F1
:1029A0000196A11DB11DF80186879787A08BB18B79
:1029B000428553856485758541155105610571050D
:1029C00051F40190F081E02D80859185E816F9069B
:1029D00008F0DDC0BDC00190F081E02D828190E063
:1029E00001979701329522952F7023273F70232757
:1029F00082239323009709F0ABC0CF010E949E1061
:102A00004B015C01623071058105910508F4C1C07C
:102A10006F3FEFEF7E07EFEF8E07EFEF9E0709F4B2
:102A2000BAC0D801ED91FC91828D938DA48DB58DA6
:102A300088169906AA06BB0608F478C0209709F400
:102A4000ACC0D8011A964D915D916D917C911D9706
:102A5000CF010E947E134B015C0161157105810558
:102A6000910509F49CC0613071058105910509F457
:102A700098C06F3FEFEF7E07EFEF8E07EFEF9E07F7
:102A800009F491C0D8018D919C9140E050E0BA01C9
:102A90000E94520F882309F088C0F801808191813B
:102AA000C29660E070E040E052E00E945A09D8010E
:102AB000CD91DC91CE01B501A4010E946810DC012A
:102AC000CB018EA79FA7A8ABB9ABC0E0D1E01BC0DC
:102AD000D483F8018081918140E050E0BA010E94E6
:102AE000520F882309F063C0D801ED91FC9186A5AF
:102AF00097A5A0A9B1A90196A11DB11D86A797A769
:102B0000A0ABB1ABCF5FD801ED91FC911197828161
:102B1000C817F0F286A597A5A0A9B1A98C1B9109A9
:102B2000A109B10986A797A7A0ABB1ABF80182862E
:102B30009386A486B58680819181B501A4010E9407
:102B40006810DC01CB01F80186879787A08BB18BD9
:102B5000D8011596FC92EE9214978D919C91119745
:102B6000C296CC0CDD1CCC0CDD1CCC0CDD1CCC0CC2
:102B7000DD1CCC0CDD1C8C0D9D1D53969C938E93FF
:102B8000529780E015C084E013C084E011C084E057
:102B90000FC082E00DC081E00BC084E009C087E077
:102BA00007C082E005C081E003C081E001C081E090
:102BB000DF91CF911F910F91FF90EF90DF90CF9019
:102BC000BF90AF909F908F9008952F923F924F9219
:102BD0005F926F927F928F929F92AF92BF92CF92AD
:102BE000DF92EF92FF920F931F93CF93DF9300D06A
:102BF00000D000D0CDB7DEB78C015B01DB018C913A
:102C00008F3211F08C3549F40894A11CB11CF801E5
:102C100016821782108611860CC0D801ED91FC91A6
:102C200086899789A08DB18DF80186839783A087C7
:102C3000B187D5018C91803250F4C80160E070E01A
:102C40000E94AA11482FF801138A128A6BC10F2E15
:102C5000FBE06F2E7724F02DEE24FF24442455242E
:102C6000689443F8882449825A826B827C820F2EB2
:102C7000F3E02F2E3324F02DF5019F0181918F3247
:102C8000E1F38C35D1F33E832D83D8015496CD905A
:102C9000DC905597C60160E270E0A3010E945A09DA
:102CA000ED81FE8180818E3249F5EEE2D601EC9312
:102CB000AD81BE8111962C9111972E3249F4F60107
:102CC000818312962C9112972E3249F0C10102C0D5
:102CD00082E090E02F3241F02C3531F001C0C1018B
:102CE000213208F00EC138C1AD80BE80A80EB91ED9
:102CF00080E2D6011B968C931B973BC1B701A701BD
:102D0000D201982CED81FE81E40FF51F20815A013C
:102D10000894A11CB11C213208F469C02F3209F4B7
:102D200021C12C3509F41EC12E3219F06A177B0718
:102D300078F0A830B10509F0E6C02E3209F0E5C000
:102D4000990C990CA50169817A81AB81BC81DACF9C
:102D5000222314F4F3E09F2A822F81588F3118F038
:102D60008F558D31E8F4ED81FE81EA0DFB1D308138
:102D7000832F80548F3320F080548D3708F0C7C0E4
:102D8000CD0101976817790708F0C3C04E5F5F4F08
:102D9000F601E60FF71F208331836E5F7F4FB2CFBE
:102DA000422F50E04232510509F4B5C0E2E0F1E0B3
:102DB0008191882331F090E048175907C9F746E020
:102DC000B1C0822F81548A3118F4F2E09F2A07C0E3
:102DD000822F81568A3118F481E0982A2052F60118
:102DE000E60FF71F20836F5F7F4FA5018BCFED812B
:102DF000FE81AE0EBF1E892D44E06115710509F4F8
:102E00008CC0F6019081953E11F495E09083A83036
:102E1000B10519F4982E990C990C892D90E09C011C
:102E2000237030702130310509F440618C7090704E
:102E30008430910509F44860D6011B964C931B978A
:102E400098C0F80146855785608971898081918194
:102E50000E94520F882341F5D80152964D915C9102
:102E60005397FA019081992309F492C0938593FDB9
:102E700013C054966D917C9155979A01255F3F4FF1
:102E8000DB016A01482F04C0E217F30709F47AC096
:102E900091918D919817C1F3C801B7010E94A014B8
:102EA000882379F2482F01C0482FD8015496ED911C
:102EB000FC91559783854430A9F585FF0BC0F80137
:102EC0001682178210861186138A128A82FFD4CE48
:102ED00040E028C082FF23C044E024C01B968C91B0
:102EE0001B9784FF1EC0F80180819181BD010E9463
:102EF0006409DC01CB01F80186839783A087B18741
:102F0000BBCE46E00FC046E00DC046E00BC046E039
:102F100009C046E007C046E005C046E003C045E002
:102F200001C045E0842F26960FB6F894DEBF0FBE91
:102F3000CDBFDF91CF911F910F91FF90EF90DF9068
:102F4000CF90BF90AF909F908F907F906F905F9049
:102F50004F903F902F900895AD80BE80A80EB91E6F
:102F600084E2C7CE8D819E81A80EB91E892D482D81
:102F700044CFC801B7010E94AA11482F882309F441
:102F800060CF93CFD601FB01838582FFA7CFCACF45
:102F9000D8015496ED91FC91559783858ECFEF9291
:102FA000FF920F931F93CF938C0160E070E00E941B
:102FB000AA11C82F8823D9F5D8011E964D915D918D
:102FC0006D917C9151978D919C910E94520FC82FC9
:102FD000882369F5D8015296ED91FC915397808131
:102FE000853E61F1882351F1C80161E070E00E94E3
:102FF000A014C82F882301F31AC0F801E288F388CF
:10300000C70160E070E040E250E00E945A09D80138
:1030100054966D917C915597C7014BE050E00E940A
:103020004D09D801ED91FC91119781E084838C2F9B
:10303000CF911F910F91FF90EF900895F801468571
:10304000578560897189808191810E94520FC82FB4
:10305000882369F7D2CFCF93DF93EC0184E017C0C8
:10306000888199810E94520F8823E1F4EA89FB89C3
:1030700090819923F1F0953E19F0938593FF16C046
:10308000CE0160E070E00E94A014882359F44E85C0
:103090005F8568897989411551056105710501F7D9
:1030A000882321F01E861F86188A198ADF91CF9106
:1030B000089584E0F7CF7F928F929F92AF92BF9254
:1030C000CF92DF92EF92FF920F931F93CF93DF93F4
:1030D000EC014A015B01423051056105710508F4BC
:1030E00055C08A8D9B8DAC8DBD8D481759076A07D9
:1030F0007B0708F04DC003C04601570102C077248A
:103100007394CE01B501A4010E949E106B017C0155
:103110006115710581059105E9F191E0C916D104A8
:10312000E104F104C9F18FEFC8168FEFD8068FEFD5
:10313000E8068FEFF80691F1CE01B501A40100E099
:1031400010E098010E948D12882349F54E855F8515
:10315000688979894F3F9FEF59079FEF69079FEF74
:10316000790749F04F5F5F4F6F4F7F4F4E875F8703
:10317000688B798B7D824A8D5B8D6C8D7D8DC416BD
:10318000D506E606F70608F4B7CF09C082E007C007
:1031900082E005C080E003C082E001C081E0DF91F1
:1031A000CF911F910F91FF90EF90DF90CF90BF9044
:1031B000AF909F908F907F900895882391F4E09135
:1031C000F301F091F401309709F010826115710557
:1031D00011F0FB0110827093F4016093F30180E021
:1031E00008958BE008954F925F926F927F928F9235
:1031F0009F92AF92BF92CF92DF92EF92FF920F9386
:103200001F93CF93DF93CDB7DEB7A4970FB6F89493
:10321000DEBF0FBECDBF7C017CA36BA3009709F47A
:10322000EAC0FC0111821082042F0F714E71CE0191
:103230008396BE016F5F7F4F0E94E10A182F88239B
:1032400009F0DAC0CE0147969E8B8D8B6BA17CA1D5
:10325000CE0101960E94E515CB88DC88882321F4F5
:10326000C114D10409F486E0402F50E09A012C717A
:1032700030702115310509F45BC0882371F084306A
:1032800009F0B7C0CE0101960E94CF17CB88DC8829
:10329000882309F0AEC0086007C0F60183858171FC
:1032A00009F0C2C002FDC2C003FFC6C00E94641084
:1032B000F60166877787808B918B1386148E158E27
:1032C000168E178E89819A81B6010E9464094B017E
:1032D0005C01C60140E050E0BA010E948909E98121
:1032E000FA8181E0848381149104A104B10409F47A
:1032F000A3C046A457A460A871A8CF01B501A4013A
:103300000E945B18882309F074C0E981FA81D50115
:10331000C4010197A109B10982879387A487B58762
:10332000CF01B301A2010E94520F882369F061C04E
:10333000882309F05EC0F601838584FD79C001FF12
:103340007BC080FD77C078C00062A980BA80F5019B
:1033500086A597A5A0A9B1A9F701828F938FA48F05
:10336000B58FD78EC68E0483C501B6010E9464094D
:10337000DC01CB01F70186879787A08BB18BF60123
:10338000878D90E0A0E0B0E0782F6627552744278E
:10339000868D90E0A0E0B0E0DC0199278827482BDB
:1033A000592B6A2B7B2B848D90E0A0E0B0E0482B5A
:1033B000592B6A2B7B2B958D80E0A0E0B0E0842B0D
:1033C000952BA62BB72BF70182879387A487B58708
:1033D0001682178210861186168A178A108E118E11
:1033E000B182A082F50186819781F7019383828360
:1033F00003C0182F01C019E0812FA4960FB6F894CE
:10340000DEBF0FBECDBFDF91CF911F910F91FF9017
:10341000EF90DF90CF90BF90AF909F908F907F9074
:103420006F905F904F90089587E0E3CF88E0E1CF01
:1034300084E0DFCF87E0DDCF03FF87CF85CF2F92FA
:103440003F924F925F926F927F928F929F92AF9234
:10345000BF92CF92DF92FF920F931F93CF93DF9390
:1034600000D000D000D0CDB7DEB79E838D83062F6D
:10347000172F6A011901D9011D921C920E94240A7A
:10348000F82E882309F0A0C1ED81FE818481882374
:103490000CF492C180FF94C182859385A485B58583
:1034A0004681578160857185841B950BA60BB70BF0
:1034B000A60160E070E084179507A607B70708F437
:1034C0006C01C114D10409F47FC109831A832D81D1
:1034D0003E81205E3F4F3C832B83AD81BE8116969B
:1034E0004D915D916D917C911997DB01CA019170AD
:1034F000A070B0700097A105B10509F01AC1AD81A7
:10350000BE81ED91FC91DB01CA01072E79E0B695F1
:10351000A795979587957A95D1F7702D12811150BF
:10352000182309F041C0411551056105710539F4B1
:10353000ED81FE8186859785A089B1890DC0AD8119
:10354000BE8152964D915D916D917C915597CF01C1
:103550000E949E10DC01CB0182309105A105B105CE
:1035600048F4ED81FE81848180688483FF2468941F
:10357000F1F82AC18F3FFFEF9F07FFEFAF07FFEF83
:10358000BF0761F4AD81BE8114968C911497806859
:1035900014968C931497FF24F39416C1ED81FE8149
:1035A000828B938BA48BB58BAD81BE814D905C904B
:1035B000119752964D915D916D917C915597C201F5
:1035C0000E946810DC01CB010097A105B10549F408
:1035D000ED81FE81848180688483FF246894F1F802
:1035E000F3C04C015D01810E911CA11CB11C360180
:1035F000672C772466946114710409F44EC0D201DB
:1036000012964C911297C301810F911D242F30E027
:103610002817390720F4C9013C01611A7108F20129
:10362000818169817A81A5019401062D0E94740629
:10363000882361F0AD81BE8114968C9114978068C7
:1036400014968C931497FF24F394BEC0ED81FE81F1
:10365000848186FF1DC086899789A08DB18D8819C8
:103660009909AA09BB09A30160E070E084179507D6
:10367000A607B70768F4982F8827990F29813A8100
:10368000820F931F6B817C8140E052E00E944D09C4
:103690008301102F0027110F6AC0AD81BE8156969D
:1036A0000D911D912D913C915997081519052A05E9
:1036B0003B05B9F114968C91149786FF1CC0F2015A
:1036C00081816B817C81A901980101E00E94CA0679
:1036D000882361F0AD81BE8114968C911497806827
:1036E00014968C931497FF24F3946EC0ED81FE81A1
:1036F00084818F7B8483AD81BE81ED91FC9181813A
:103700006B817C81A501940101E00E9474068823ED
:1037100041F0ED81FE81848180688483FF24F394ED
:1037200053C0AD81BE8156968D929D92AD92BC9252
:103730005997ED81FE814681578160857185CA0167
:10374000917020E032E0281B390B86012C153D05D5
:1037500008F48901BA017170605E7F4F8D819E818E
:10376000680F791F89819A81A8010E944D09A9815A
:10377000BA81A00FB11FBA83A983A80160E070E0ED
:10378000ED81FE8186819781A085B185840F951F8B
:10379000A61FB71F86839783A087B187D1018D911C
:1037A0009C911197800F911F11969C938E93C01A34
:1037B000D10A09F092CE08C0FF246894F1F804C041
:1037C0000F2EF7E0FF2EF02D8F2D26960FB6F894D2
:1037D000DEBF0FBECDBFDF91CF911F910F91FF9044
:1037E000DF90CF90BF90AF909F908F907F906F9021
:1037F0005F904F903F902F9008952F923F924F925D
:103800005F926F927F928F929F92AF92BF92CF9270
:10381000DF92EF92FF920F931F93CF93DF9300D02D
:1038200000D00F92CDB7DEB77C01862E672E6A01DD
:103830002901D9011D921C920E94240A182F882365
:1038400009F0C6C1F701848188230CF4BEC181FF51
:10385000BEC14285538564857585C601A0E0B0E090
:10386000840F951FA61FB71F84179507A607B707D4
:1038700008F490C1C114D10409F48CC189826A8210
:103880009701205E3F4F3C832B83D70116964D91C5
:103890005D916D917C911997DB01CA019170A070C7
:1038A000B0700097A105B10509F030C1F701208182
:1038B0003181DB01CA01072E79E0B695A79597956E
:1038C00087957A95D1F7702DF9018280E82DE15026
:1038D000E823ED83EE2309F04FC041155105610542
:1038E0007105B9F4F70186859785A089B18900979C
:1038F000A105B105F9F4C90140E050E0BA010E9408
:103900007E13DC01CB01F70186879787A08BB18BF3
:103910000CC0D70152964D915D916D917C91559758
:10392000C9010E947E13DC01CB010097A105B105FE
:1039300009F430C181309105A105B10531F4F701D9
:1039400084818068848312E043C18F3FFFEF9F072B
:10395000FFEFAF07FFEFBF0751F4D70114968C912B
:103960001497806814968C93149711E031C1F70175
:10397000828B938BA48BB58BD70114968C91149763
:1039800086FF1EC0ED91FC91119756962D913D91A9
:103990004D915C91599781816B817C8101E00E94FE
:1039A000CA06882331F0F70184818068848311E09E
:1039B0000FC1D70114968C9114978F7B14968C931A
:1039C000F701208031804289538964897589C1015A
:1039D0000E946810DC01CB010097A105B10551F4EC
:1039E000D70114968C911497806814968C93149731
:1039F00012E0EEC04C015D01ED818E0E911CA11C08
:103A0000B11C3601672C772466946114710409F4A3
:103A10004DC0D10112964C911297C3018E0F911D8A
:103A2000242F30E02817390720F4C9013C016E1A11
:103A30007108D10111968C9169817A81A501940157
:103A4000062D0E94CA06882331F0F7018481806820
:103A5000848311E0BDC0F70186899789A08DB18D5F
:103A600088199909AA09BB09A30160E070E08417CD
:103A70009507A607B707B0F4BC01762F6627770F26
:103A800029813A81620F731F8B819C8140E052E053
:103A90000E944D09D70114968C9114978F7B149630
:103AA0008C931497762C6624770C51C0F701868985
:103AB0009789A08DB18D88159905AA05BB05F9F0E8
:103AC00086819781A085B1854285538564857585FA
:103AD00084179507A607B70790F4D10111968C912A
:103AE0006B817C81A501940101E00E94740688230A
:103AF00031F0F70184818068848311E069C0D701C7
:103B000056968D929D92AD92BC925997F70146813F
:103B1000578160857185CA01917020E032E0281BD1
:103B2000390B36012C153D0508F43901CA01917095
:103B300080968E0D9F1D69817A81A3010E944D0997
:103B4000D70114968C911497806414968C93E98114
:103B5000FA81E60DF71DFA83E983A30160E070E0C6
:103B6000F70186819781A085B185840F951FA61FD7
:103B7000B71F86839783A087B187D2018D919C91CF
:103B80001197860D971D11969C938E93C618D70892
:103B900009F07BCEF70186819781A085B1854285AA
:103BA000538564857585481759076A077B0720F494
:103BB00082879387A487B587D70114968C91149731
:103BC000806214968C93149703C012E001C017E032
:103BD000812F0F900F900F900F900F90DF91CF914A
:103BE0001F910F91FF90EF90DF90CF90BF90AF901B
:103BF0009F908F907F906F905F904F903F902F900D
:103C000008950F931F93CF93DF93EC010E94240A32
:103C1000882309F04CC09C8195FF49C096FF12C0D3
:103C2000E881F981BE01605E7F4F2E893F89488D12
:103C3000598D818101E00E94CA068823B9F58C81E3
:103C40008F7B8C834A8D5B8D6C8D7D8D8881998176
:103C50000E94520F882359F50E8D1F8DF801838520
:103C6000806283878A85848F8B85858F8C85868FFC
:103C70008D85878F4E855F8568897989C8010E9407
:103C800089090E946410F801668B778B808F918F71
:103C9000128A138A8C818F7D8C83E881F98181E07F
:103CA0008483888199810E94D80F01C081E0DF91CF
:103CB000CF911F910F910895CF93DF93EC010E9454
:103CC000011E882311F419821882DF91CF91089583
:103CD000882319F41092F50108958BE00895EF926E
:103CE000FF921F93CF93DF93CDB7DEB7A4970FB6A4
:103CF000F894DEBF0FBECDBF9CA38BA3CE018396ED
:103D0000BE016F5F7F4F40E00E94E10A182F8823B9
:103D100081F5CE0147969E8B8D8B6BA17CA1CE0148
:103D200001960E94E515182F882301F5EB89FC897F
:103D3000309759F4E981FA818F819885A985BA85F0
:103D4000868B978BA08FB18F14C0838584FF1EC094
:103D5000E980FA80C701BF010E946409DC01CB0140
:103D6000F701868B978BA08FB18F03C0843009F445
:103D700015E0812FA4960FB6F894DEBF0FBECDBF1D
:103D8000DF91CF911F91FF90EF90089515E0F1CF53
:103D90002F923F924F925F926F927F928F929F925B
:103DA000AF92BF92CF92DF92EF92FF920F931F9349
:103DB000CF93DF9300D000D000D0CDB7DEB79E8385
:103DC0008D836A017B010E94240A182F882309F041
:103DD000E6C1AD81BE8114962C91149722230CF478
:103DE000DDC11A968D919D910D90BC91A02D8C15E1
:103DF0009D05AE05BF0520F421FD02C06C017D01CB
:103E0000ED81FE814681578160857185168217821A
:103E100010861186C114D104E104F10409F4BFC174
:103E200020803180F101828190E0A0E0B0E04C017F
:103E30005D01072E79E0880C991CAA1CBB1C7A95A1
:103E4000D1F7702D4115510561057105F1F12A0178
:103E50003B0108944108510861087108C701B60187
:103E60006150704080409040A50194010E9434361A
:103E700029833A834B835C83C301B201A50194017A
:103E80000E94343689819A81AB81BC818217930765
:103E9000A407B507D0F088279927DC01881999096C
:103EA000AA09BB0984219521A621B721ED81FE81B4
:103EB00086839783A087B187C81AD90AEA0AFB0AC2
:103EC000428953896489758942C0AD81BE811E963D
:103ED0004D915D916D917C91519741155105610511
:103EE000710569F5C10140E050E0BA010E947E13FE
:103EF000AB01BC01413051056105710539F4ED811B
:103F0000FE8184818068848312E049C14F3FFFEFC6
:103F10005F07FFEF6F07FFEF7F0759F4AD81BE81A9
:103F200014968C911497806814968C93149711E0D2
:103F300036C1ED81FE8146875787608B718BAD81DD
:103F4000BE8152964D935D936D937C935597411529
:103F500051056105710509F4AAC08C149D04AE04D5
:103F6000BF0408F068C04D805E80F201848181FF4B
:103F70000CC0808191810E947E13AB01BC01411570
:103F800051056105710539F452C0808191810E940B
:103F90009E10AB01BC014F3FBFEF5B07BFEF6B074C
:103FA000BFEF7B0741F45E824D82F201848180681D
:103FB000848311E0F4C0423051056105710560F061
:103FC000D201ED91FC91828D938DA48DB58D481712
:103FD00059076A077B0740F05E824D82F2018481B7
:103FE0008068848312E0DBC0D20152964D935D93CA
:103FF0006D937C93559716968D919D910D90BC91E4
:10400000A02D880D991DAA1DBB1DF20186839783E3
:10401000A087B187C818D908EA08FB088C149D044A
:10402000AE04BF0408F4A1CF5E824D8204C05E825C
:104030004D8275016401ED81FE8186819781A085A5
:10404000B1858C0D9D1DAE1DBF1D86839783A087F6
:10405000B187D701C6019170A070B0700097A1051B
:10406000B10549F1808191810E946810DC01CB018A
:104070000097A105B10559F4AD81BE8114968C91CC
:104080001497806814968C93149712E088C04601A8
:104090005701072E79E0B694A794979487947A9560
:1040A000D1F7702D880E991EAA1EBB1E07C088244A
:1040B0009924540103C0882499245401ED81FE8180
:1040C00086819781A085B1859170A070B0700097AE
:1040D000A105B10509F44BC0C688D788E08CF18CE6
:1040E000C814D904EA04FB0409F441C0848186FFA2
:1040F0001FC00190F081E02D6D817E81605E7F4F59
:104100008181A701960101E00E94CA06882359F027
:10411000AD81BE8114968C911497806814968C930F
:10412000149711E03CC0ED81FE8184818F7B8483F4
:10413000AD81BE81ED91FC911197BD01605E7F4F15
:104140008181A501940101E00E947406882339F061
:10415000ED81FE8184818068848311E020C0AD817F
:10416000BE8156968D929D92AD92BC925997ED81EB
:10417000FE8186819781A085B185428553856485BE
:104180007585481759076A077B0748F48287938724
:10419000A487B58784818062848301C012E0812F67
:1041A00026960FB6F894DEBF0FBECDBFDF91CF913C
:1041B0001F910F91FF90EF90DF90CF90BF90AF9045
:1041C0009F908F907F906F905F904F903F902F9037
:1041D0000895EF92FF920F931F93CF93DF93CDB784
:1041E000DEB72E970FB6F894DEBF0FBECDBF8C01A1
:1041F0007E876D87009709F44CC0CE010D96B801FB
:1042000040E00E94E10AD801ED90FC9011978823CC
:10421000E1F5CE01019655969C938E9354976D854A
:104220007E85C8010E94E515882311F5D8015296B4
:10423000ED91FC915397309771F0838584FF1BC0FB
:10424000C701BF010E946409DC01CB01F80186832C
:104250009783A087B187D70116968D919C91179768
:10426000F80193838283C80160E070E00E94AA1184
:10427000843011F404C085E0882361F001C085E03A
:10428000D80111961C921E9205C0F801118210826D
:1042900001C089E02E960FB6F894DEBF0FBECDBFE9
:1042A000DF91CF911F910F91FF90EF900895CF92E2
:1042B000DF92EF92FF921F93CF93DF93CDB7DEB7DC
:1042C0002C970FB6F894DEBF0FBECDBF7C016B01FB
:1042D0000E94240A182F882381F5C114D10439F4CF
:1042E000C70160E070E00E94AA11182F26C0CE011D
:1042F0000196F701958B848BC7010E942B1884309F
:1043000031F4F70116861786108A118A02C08823B5
:1043100089F4C701B6010E949209C70160E070E00C
:104320000E94A014843041F4F70116861786108A83
:10433000118A03C0182F01C0182F812F2C960FB699
:10434000F894DEBF0FBECDBFDF91CF911F91FF90DC
:10435000EF90DF90CF900895EF92FF921F93CF934D
:10436000DF93CDB7DEB7A4970FB6F894DEBF0FBECC
:10437000CDBF9CA38BA37B01CE018396BE016F5F53
:104380007F4F40E00E94E10A182F8823C1F4CE013C
:1043900047969E8B8D8B6BA17CA1CE0101960E94CE
:1043A000E515182F882359F48B899C89009731F0E3
:1043B000CE010196B7010E94920901C016E0812F3B
:1043C000A4960FB6F894DEBF0FBECDBFDF91CF919C
:1043D0001F91FF90EF9008952F923F924F925F921E
:1043E0006F927F928F929F92AF92BF92CF92DF9205
:1043F000EF92FF920F931F93CF93DF93CDB7DEB76A
:104400002C970FB6F894DEBF0FBECDBF9A83898379
:104410001B018A01CE010196BA0140E00E94E10A27
:10442000B82ED8010D911C911197882309F002C173
:10443000F80186859785A089B189C28CD38CE48CDC
:10444000F58CB701A60142505040604070404817BB
:1044500059076A077B0730F0F10180839183A283BB
:10446000B383E8C0A080B1E0AB16D9F5CC24DD243D
:1044700076016894C1F8442455243201C801B7017B
:10448000A6010E949E10DC01CB018F3FEFEF9E073B
:10449000EFEFAE07EFEFBE0709F4AEC08130910534
:1044A000A105B10509F4ABC00097A105B10529F438
:1044B0000894411C511C611C711C0894C11CD11C26
:1044C000E11CF11CF801828D938DA48DB58DC81669
:1044D000D906EA06FB0690F246865786608A718AFC
:1044E000A4C082A193A1A4A1B5A18B839C83AD8319
:1044F000BE83E0E0F0E020E030E0442455243201C7
:10450000A8014E5C5F4F5A8749873C862B8618016D
:104510000A2D21153105C9F4C1014B815C816D81E2
:104520007E810E94520F882309F06DC08B819C818F
:10453000AD81BE810196A11DB11D8B839C83AD838E
:10454000BE83E985FA8520E032E00230A1F4918152
:1045500098871F82808190E0AF81B8858A2B9B2B42
:10456000009729F40894411C511C611C711C32965F
:104570002250304031C0838190E0A0E0B0E0782F3D
:10458000662755274427828190E0A0E0B0E0DC0157
:1045900099278827482B592B6A2B7B2B808190E009
:1045A000A0E0B0E0842B952BA62BB72B918088241C
:1045B000A40160E070E0842B952BA62BB72BBF7075
:1045C0000097A105B10529F40894411C511C611CF8
:1045D000711C3496245030400894C108D108E10879
:1045E000F108C114D104E104F10409F092CFA02E26
:1045F00081012B843C840CC0BB24B39409C0BB2430
:104600006894B1F805C0A02E81012B843C84B82E9B
:10461000F80146865786608A718AF3E0AF1629F45E
:1046200081E0D80115968C931597F1014082518253
:10463000628273828B2D2C960FB6F894DEBF0FBE6C
:10464000CDBFDF91CF911F910F91FF90EF90DF9041
:10465000CF90BF90AF909F908F907F906F905F9022
:104660004F903F902F900895CF92DF92EF92FF925C
:104670000F931F93CF93DF93EC01009709F469C068
:104680000E94240A882309F065C09C81992324F0A4
:1046900091FD69C087E05EC082E05CC04A875B87AD
:1046A0006C877D878C8180628C8341155105610503
:1046B000710569F44E855F8568897989888199815A
:1046C0000E945B181E861F86188A198A3CC04A8978
:1046D0005B896C897D89888199810E949E106B011C
:1046E0007C0181E0C816D104E104F10409F44AC058
:1046F00081E09FEFC9169FEFD9069FEFE9069FEF74
:10470000F90609F080E0882301F5E881F981428DFE
:10471000538D648D758DC416D506E606F706D0F464
:104720004A895B896C897D89CF010FEF1FEF2FEFDD
:104730003FE00E948D12882341F488819981B7015E
:10474000A6010E945B18882329F09C8190689C83B5
:1047500001C089E0DF91CF911F910F91FF90EF9001
:10476000DF90CF9008954E815F81688579850A85B5
:104770001B852C853D85401751076207730708F498
:104780008DCFE8CF82E0E1CFCF92DF92EF92FF9220
:104790001F93CF93DF93CDB7DEB7EA970FB6F894A8
:1047A000DEBF0FBECDBF9AAF89AFCE01C996BE01A5
:1047B0006F5F7F4F41E00E94E10A882309F061C0EA
:1047C000CE018D969E8B8D8B69AD7AADCE01019613
:1047D0000E94E515882309F054C0ED89FE89838580
:1047E00085FF5DC086E04DC0FB01138510FF5EC0F4
:1047F00087E047C086E045C0F2E0CF16D104E1046F
:10480000F10408F45CC0CE014796BE016F5F7F4F94
:1048100046E150E00E944D09CD8EDE8EEF8EF8A26B
:10482000CE01479662E070E00E94AA11882349F504
:10483000CE0147960E942B18882371F0E981FA81F6
:1048400046895789608D718D4C155D056E057F0514
:1048500029F08430B1F115C087E013C087E011C0A2
:10486000C114D104E104F10441F089819A81B701B6
:10487000A6010E945B18882321F489819A810E94F5
:10488000D80FEA960FB6F894DEBF0FBECDBFDF910A
:10489000CF911F91FF90EF90DF90CF9008956B899B
:1048A0007C896115710509F09FCFA4CF89819A8118
:1048B0000E9464096B017C0114FD9ECF02C082E05E
:1048C000E0CFCE0101960E946F12882349F2D9CF22
:1048D0002F923F924F925F926F927F928F929F9210
:1048E000AF92BF92CF92DF92EF92FF920F931F93FE
:1048F000CF93DF93CDB7DEB7A8970FB6F894DEBF9E
:104900000FBECDBF9CA38BA30E9464106B017C01E2
:10491000CE018396BE016F5F7F4F41E00E94E10AA6
:10492000182F882309F0EEC0CE0147969E8B8D8B01
:104930006BA17CA1CE0101960E94E515882349F068
:10494000843041F4ED89FE89838585FFF5C086E0DA
:1049500001C088E0182FD6C081E0481651046104D8
:10496000710409F4F9C0EFEF4E16EFEF5E06EFEFBA
:104970006E06EFEF7E0609F4F1C001C017E01123C7
:1049800009F0A0C089819A8140E050E0BA010E94FC
:10499000520F182F882309F095C009811A81C80188
:1049A000B301A2010E9468104B015C010F2EF2E3DB
:1049B0002F2E3324F02D200E311EC10160E070E057
:1049C00040E052E00E945A09C10160E270E04BE011
:1049D00050E00E945A098EE2F80182AB80E185AF77
:1049E000CDA2E85BFF4FC0828D2D99278EA3F801E1
:1049F000E75BFF4F8083C701AA27BB278FA3F8017E
:104A0000E65BFF4F8083CF2CDD24EE24FF24C8A675
:104A1000F801E55BFF4FC082C101B301A2010E9412
:104A200089090F2EF2E5CF2EDD24F02DC00ED11E08
:104A3000C601B10140E250E00E944D09F801ED5A73
:104A4000FF4F8EE280834F81588569857A85E981A1
:104A5000FA818081833061F486A197A1A0A5B1A5D8
:104A600084179507A607B70719F440E050E0BA018C
:104A7000C6010E948909E981FA810281002309F4B3
:104A80006FC0CC24C39489819A81FC0186A697A625
:104A9000A0AAB1AA0894811C911CA11CB11CC482BB
:104AA00040E050E0BA010E94520F182F882351F4C1
:104AB000C10160E070E040E052E00E945A090150FC
:104AC00011F74EC089819A81B301A2010E945B183F
:104AD00019C0EB89FC8980E183878DA1868B8EA12B
:104AE000878B8FA1808F88A5818FCF01B301A20111
:104AF0000E94890989819A8121E0FC0124830E9416
:104B0000D80F182F812FA8960FB6F894DEBF0FBECE
:104B1000CDBFDF91CF911F910F91FF90EF90DF906C
:104B2000CF90BF90AF909F908F907F906F905F904D
:104B30004F903F902F90089589819A8140E050E0F6
:104B4000BA010E947E132B013C016115710581059C
:104B5000910509F413CF00CF12E0B4CF11E0B2CF2A
:104B6000CE0101960E94CF17182F882309F4B1CFE8
:104B7000A9CF0F931F93CF93DF93CDB7DEB7A49741
:104B80000FB6F894DEBF0FBECDBF9CA38BA3062F3C
:104B9000142FCE018396BE016F5F7F4F41E00E94CC
:104BA000E10A882329F5CE0147969E8B8D8B6BA158
:104BB0007CA1CE0101960E94E5158823C9F4ED89F8
:104BC000FE89838585FF1FC086E012C01772912F72
:104BD0009095838589230123182F102B13878981B2
:104BE0009A8121E0FC0124830E94D80F01C086E055
:104BF000A4960FB6F894DEBF0FBECDBFDF91CF9164
:104C00001F910F910895EB89FC893097F9F6EFCF4A
:104C10000F931F93CF93DF93CDB7DEB7A4970FB653
:104C2000F894DEBF0FBECDBF9CA38BA38B01CE013A
:104C30008396BE016F5F7F4F41E00E94E10A8823A7
:104C400061F5CE0147969E8B8D8B6BA17CA1CE0129
:104C500001960E94E515882301F5ED89FE8983857B
:104C600085FF26C086E019C0D80116968C9116974C
:104C7000868B17968C911797878B14968C91149727
:104C8000808F15968C91818F89819A8121E0FC011A
:104C900024830E94D80F01C086E0A4960FB6F89432
:104CA000DEBF0FBECDBFDF91CF911F910F91089551
:104CB000EB89FC893097C1F6EFCFEF92FF920F930B
:104CC0001F93CF93DF93CDB7DEB7CF54D0400FB64D
:104CD000F894DEBF0FBECDBF60969FAF8EAF6097DA
:104CE0008B01CE01825B9F4FBE016F5F7F4F41E022
:104CF0000E94E10A882309F0B1C089819A81988FC6
:104D00008F8BCE018E5B9F4F9E8B8D8B60966EAD91
:104D10007FAD6097CE0101960E94E515882309F0CA
:104D20009DC0ED89FE89838585FFA6C086E096C07B
:104D3000655F7F4FCE018D9645E150E00E944D09A1
:104D4000CE014796BE016F5F7F4F46E150E00E9463
:104D50004D09CE014796B8010E94E515882309F454
:104D60007AC0843009F07AC0CE0147960E94CF17EE
:104D7000882309F073C009A51AA5C8010D96BE01C4
:104D8000615D7F4F43E150E00E944D098DA5806237
:104D9000F8018387E980FA8081E0F70184834F81FD
:104DA000588569857A858D8D9E8DAF8DB8A1481700
:104DB00059076A077B0709F443C0F801838584FF1C
:104DC0003FC0C701B8010E946409AB01BC01C70123
:104DD0000E946810AB01BC014115510561057105C8
:104DE00009F451C0C7010E94520FE981FA8188235A
:104DF000A9F5DF01AD5ABF4F8C918E3209F5808144
:104E0000833069F44D8D5E8D6F8D78A186A197A159
:104E1000A0A5B1A5481759076A077B0729F04D8D52
:104E20005E8D6F8D78A103C040E050E0BA01CF01E4
:104E30008E5A9F4F0E948909E981FA8181E084831B
:104E4000CE0101960E946F12882341F489819A81D4
:104E50000E94D80F03C088E001C084E0C15BDF4F2F
:104E60000FB6F894DEBF0FBECDBFDF91CF911F917B
:104E70000F91FF90EF9008956B897C896115710502
:104E800009F056CFEACF82E0E9CF8823B1F0EFE115
:104E9000F1E0E491EE23A1F090E02FE131E0F9019F
:104EA0002F5F3F4FE491EE23D1F79F5F891751F0B9
:104EB000F9014491442399F705C02FE131E002C084
:104EC0002FE131E000D000D000D0EDB7FEB7319631
:104ED00040E059E0ADB7BEB712965C934E93119780
:104EE00082831382358324830E94B135EDB7FEB7E8
:104EF00036960FB6F894FEBF0FBEEDBF0895CF9261
:104F0000DF92EF92FF920F931F93CF93DF93C82FFF
:104F1000E92ED22F00D000D000D083EF98E0ADB7BB
:104F2000BEB712969C938E931197EDB7FEB743834D
:104F30005483658376830E94B1358DB79EB70696FC
:104F40000FB6F8949EBF0FBE8DBFDD2309F440C09D
:104F50000C2F1E2D7801C0E00F2EFAEFCF2EF8E0B7
:104F6000DF2EF02DD7018D917D0100D000D0EDB75F
:104F7000FEB73196ADB7BEB71296DC92CE921197BE
:104F8000828313820E94B135CF5F0F900F900F90F4
:104F90000F90CD1739F780E20E940735C0E0F80185
:104FA00081918F01982F90529F3508F08EE20E94D8
:104FB0000735CF5FCD1799F78AE00E940735DF915B
:104FC000CF911F910F91FF90EF90DF90CF900895B8
:104FD00080E20E940735F0CFEF92FF920F931F936C
:104FE000CF93DF937C01C0E0D0E08B0101501040F3
:104FF0000E9472348D30A9F0883031F42097C1F3CB
:1050000021970E948B34F4CF803290F3C017D107E0
:105010007CF7F701EC0FFD1F808321960E94073576
:10502000E7CFCE0DDF1D18828AE00E948B34DF911E
:10503000CF911F910F91FF90EF9008954F925F9243
:105040007F928F929F92AF92BF92CF92DF92EF9218
:10505000FF920F931F93CF93DF93CDB7DEB7669781
:105060000FB6F894DEBF0FBECDBF5C01CE01019636
:10507000B5010E94E920882309F06FC0EA2DFB2DBD
:10508000DF010D900020E9F7CD0101978E1B9F0BEA
:1050900002EB14E00F2EFBEBEF2EF4E0FF2EF02DD1
:1050A0000F2EFAEBCF2EF4E0DF2EF02D4501880E07
:1050B000991E0F2EFFE27F2EF02D01962501480E3E
:1050C000591E3FC09E32E9F1F601808184FF17C06E
:1050D0008091730D9091740D01969093740D80934F
:1050E000730DD4017C92C201B7010E948336C501C1
:1050F0000E941E28F4011082882319F12EC080918D
:10510000750D9091760D01969093760D8093750DA7
:1051100080910B0990910C09A0910D09B0910E0995
:10512000F8014081518162817381840F951FA61F10
:10513000B71F80930B0990930C09A0930D09B093AE
:105140000E09CE010196B8010E945721882329F447
:10515000D7019C91992309F0B5CF66960FB6F894C4
:10516000DEBF0FBECDBFDF91CF911F910F91FF909A
:10517000EF90DF90CF90BF90AF909F908F907F90F7
:105180005F904F9008951F920F920FB60F921124C7
:105190002F933F934F935F936F937F938F939F933F
:1051A000AF93BF93EF93FF938091090990910A0900
:1051B000019690930A09809309090E943009FF9192
:1051C000EF91BF91AF919F918F917F916F915F917F
:1051D0004F913F912F910F900FBE0F901F901895F8
:1051E000CF93DF93CDB7DEB7EB970FB6F894DEBF62
:1051F0000FBECDBF8FEF82B985B988B98BB9EEE606
:10520000F0E080818260808384B5826084BD85E720
:1052100087BD85B5856085BD78948CE090E00E945F
:1052200060348BE894E390937F0280937E0280EC5D
:1052300090E00E94183584EE90E00E94183500D06E
:1052400000D081EF90E0ADB7BEB712969C938E93DD
:10525000119784EA93E014969C938E9313970E947F
:10526000B1350F900F900F900F9082E091E00E9467
:1052700018351AAA1BAA1CAA1DAA0F2EFFE08F2EF2
:10528000FDE09F2EF02D0F2EF6EB4F2EF4E05F2E5B
:10529000F02D0F2EFAEB6F2EF4E07F2EF02DF201A1
:1052A0003497FFA7EEA73996F9ABE8AB23E23DE0D0
:1052B000245130403FAB2EAB47E35DE048525040B5
:1052C00059AF48AF8EE30E9407359A828982C401A4
:1052D00064E670E00E94EC2729813A81F90181910E
:1052E000FA83E983843661F0853638F48F3311F41C
:1052F0000C945A34823631F7C8C1863619F748C340
:10530000D90111964C911197C90102969A8389830C
:10531000493609F486C0433709F4A6C0443691F6ED
:10532000CE010196BE016D5F7F4F0E94BA35882382
:1053300049F2CE010196BE01695F7F4F0E94BA35E6
:10534000882341F42AA93BA94CA95DA92F8338875A
:1053500049875A872F81388549855A858B816FE027
:1053600079E001E00E9474068823B1F000D000D0FB
:10537000EDB7FEB7319629E131E0ADB7BEB7129671
:105380003C932E931197828313820E94B1350F9024
:105390000F900F900F9096CF8F819885A985BA8531
:1053A0009C01AD012F5F3F4F4F4F5F4F2AAB3BAB8F
:1053B0004CAB5DAB00D000D000D020E231E0EDB7C7
:1053C000FEB73283218383839483A583B6830E94AF
:1053D000B1350F2EFFE0AF2EFBE0BF2EF02D2DB725
:1053E0003EB72A5F3F4F0FB6F8943EBF0FBE2DBFAA
:1053F000CC24DD2476010FE019E0C801B701A60135
:1054000020E10E947F27005F1F4F80E190E0A0E035
:10541000B0E0C80ED91EEA1EFB1E0A151B0569F76F
:1054200051CFCE010196BE016D5F7F4F0E94BA350C
:10543000882309F447CF8B810E949D0500D000D0BE
:10544000EDB7FEB731962CE231E0ADB7BEB712969C
:105450003C932E931197828313820E94B1350F9053
:105460000F900F900F902ECFCE010196BE016D5F71
:105470007F4F0E94BA35882309F424CF8B8161E0E5
:10548000AE01495F5F4F0E943D078823E1F400D0E1
:1054900000D000D083E391E0EDB7FEB79283818323
:1054A0008F819885A985BA8583839483A583B683E4
:1054B0000E94B1352DB73EB72A5F3F4F0FB6F89423
:1054C0003EBF0FBE2DBF8B8163E0AE01495F5F4FD2
:1054D0000E943D07882301F500D000D000D08CE465
:1054E00091E0ADB7BEB712969C938E9311978F81C2
:1054F0009885A985BA85EDB7FEB783839483A58384
:10550000B6830E94B1352DB73EB72A5F3F4F0FB625
:10551000F8943EBF0FBE2DBF8B816AE0AE01415FA4
:105520005F4F0E943D078823B1F400D000D0EDB753
:10553000FEB7319686E691E0ADB7BEB712969C9362
:105540008E9311978F85828313820E94B1350F90BD
:105550000F900F900F908B816BE04FE059E00E940D
:105560003D07882361F485E791E00E9418358FE0BC
:1055700099E040E050E0BA0120E10E947F278B8152
:105580006CE04FE059E00E943D07882361F48BE70F
:1055900091E00E9418358FE099E040E050E0BA01B8
:1055A00020E10E947F278B816DE04FE059E00E944F
:1055B0003D07882361F481E891E00E9418358FE06F
:1055C00099E040E050E0BA0124E00E947F278B81FF
:1055D0006EE04FE059E00E943D078823C1F487E860
:1055E00091E00E941835198A188A80E090E0AC0199
:1055F00060E070E0815F964F20E10E947F278889FC
:1056000099894096998B888B8034910580F38B81A2
:1056100065E1A4010E943D078823C9F4E7E3FDE0AA
:10562000108200D000D083E991E0ADB7BEB71296EA
:105630009C938E931197E8ADF9AD1496FC93EE937D
:1056400013970E94B1350F900F900F900F908B81A0
:1056500066E1A4010E943D07882309F033CEA3E24E
:10566000BDE01C9200D000D08EE991E0EDB7FEB70E
:10567000928381832EA93FA9348323830E94B1356D
:105680000F900F900F900F901DCED90111964C9155
:105690001197C90102969A838983463609F465C138
:1056A000473630F4443659F0453609F00BCE3CC04D
:1056B000423709F4D0C0473709F004CE11C1CE01FA
:1056C0000196BE016D5F7F4F0E94BA35882309F4B1
:1056D000F9CD8B819C81AD81BE818C01015F164F1C
:1056E0006C017D0180E290E09D8B8C8BC801B7013D
:1056F000A60120E10E947F278C899D899C01215071
:1057000030403D8B2C8B89819A8140969A83898386
:1057100080E190E0A0E0B0E0C80ED91EEA1EFB1EBA
:105720002115310519F7CECDCE010196BE016D5F71
:105730007F4F0E94BA35882309F4C4CDCE0101966B
:10574000BE01695F7F4F0E94BA358823E1F00FE008
:1057500019E08B819C81AD81BE81F801E80FF91FB2
:105760002F8120830196A11DB11D8B839C83AD8366
:10577000BE83CE010196BE01695F7F4F0E94BA359C
:10578000882339F79FCD0F2EF7EAEF2EF1E0FF2E99
:10579000F02D0FE019E00F2EF2EBCF2EF1E0DF2E0F
:1057A000F02D8B819C81AD81BE8100D000D000D0D6
:1057B0002DB73EB72F5F3F4FEDB7FEB7F282E182C4
:1057C000F90193838283800F911FDC018C91848384
:1057D00015820E94B135EDB7FEB736960FB6F89434
:1057E000FEBF0FBEEDBFC40164E670E00E94EC276F
:1057F0009A828982D4018C918E3209F463CD8032F1
:1058000060F48B819C81AD81BE810196A11DB11D8B
:105810008B839C83AD83BE83C4CFCE010196BE0132
:10582000695F7F4F0E94BA35882389F08B819C8104
:10583000AD81BE81F801E80FF91F2F812083019609
:10584000A11DB11D8B839C83AD83BE83AACFC601EE
:105850000E941835A6CFCE010196BE016D5F7F4F25
:105860000E94BA35882309F42DCDCE010196BE01E0
:10587000695F7F4F0E94BA35882309F423CDCE019A
:105880000196BE01655F7F4F0E94BA35882341F4BF
:1058900081E090E0A0E0B0E08B879C87AD87BE8779
:1058A0002F81388549855A858B816FE079E00B859A
:1058B0000E94740600D000D0EDB7FEB7319627EBFA
:1058C00031E0ADB7BEB712963C932E931197828309
:1058D00013820E94B1350F900F900F900F90F2CC71
:1058E000CE010196BE016D5F7F4F0E94BA358823BD
:1058F00009F4E8CCCE010196BE01695F7F4F0E949A
:10590000BA35882309F4DECCCE010196BE01655F6D
:105910007F4F0E94BA35882341F481E090E0A0E0F7
:10592000B0E08B879C87AD87BE872F8138854985FE
:105930005A858B816FE079E00B850E94CA0600D002
:1059400000D0EDB7FEB731962EEB31E0ADB7BEB764
:1059500012963C932E931197828313820E94B13545
:105960000F900F900F900F90ADCCCE010196BE011D
:105970006D5F7F4F0E94BA35882309F4A3CC6B81F9
:105980008FE099E070E040E054E00E9471369ACCDC
:10599000D9011196EC911197B9016E5F7F4F7A830F
:1059A00069838E2F90E0FC01E755F040E232F1056B
:1059B00008F088CCE25CFF4FEE0FFF1F0590F491DA
:1059C000E02D0994F9018281803209F44BC653C657
:1059D000D90112968C911297803209F436C53EC5D2
:1059E000F90182818032E1F144C0D90112968C9193
:1059F0001297803209F400C508C5F901828180320E
:105A000009F444C14CC1D90112968C91129780328D
:105A100009F42BC533C5F9018281803209F428C706
:105A200030C7CE010196BE016D5F7F4F0E94BA352F
:105A3000882309F447CC0B811C812D813E8182E3B0
:105A400092E0089FB001099F700D189F700D1124FE
:105A500060587D4F802F0E94DD180E94452732CC70
:105A6000F90133966F5F7F4F7A836983819180322A
:105A7000C9F3CB01BE01695F7F4FAE014A5E5F4F44
:105A80000E94EC21882319F00E9445271BCC2E8907
:105A90003F894DB75EB7405250400FB6F8945EBF95
:105AA0000FBE4DBFEDB7FEB7319685EC91E0ADB7B7
:105AB000BEB712969C938E931197D9018C918283D5
:105AC000138212968C9190E0A0E0B0E0072E79E06E
:105AD000880F991FAA1FBB1F7A95D1F7702D848359
