:100000000C943E000C945B000C945B000C945B0021
:100010000C945B000C945B000C945B000C945B00F4
:100020000C945B000C945B000C945B000C945B00E4
:100030000C945B000C945B000C945B000C945B00D4
:100040000C945B000C945B000C9403010C945B001B
:100050000C945B000C945B000C945B000C94AA0065
:100060000C9483000C945B000C945B000C945B007C
:100070000C945B000C945B000C945B0011241FBE7D
:10008000CFEFD0E1DEBFCDBF11E0A0E0B1E0E4EC06
:10009000F3E002C005900D92A631B107D9F711E047
:1000A000A6E1B1E001C01D92A132B107E1F70E94C3
:1000B00032010C94E0010C94000081E880938000F0
:1000C0008DE0809381008091190190E090938900E8
:1000D00080938800089580E480937C0087EC80936F
:1000E0007A000895EAE7F0E080818064808380816F
:1000F00084FFFDCF80917800909179009695879547
:100100009695879508951F920F920FB60F9211241E
:100110008F939F93EF93FF93809178009091790054
:10012000969587959695879580931601EAE7F0E076
:10013000808180648083FF91EF919F918F910F90D8
:100140000FBE0F901F9018958AE080BF83E08093C8
:100150007F0008951F920F920FB60F9211248F9374
:10016000809117018F5F8093170180B7877F80BFD1
:100170008AE0809318018F910F900FBE0F901F900F
:10018000189584B1836084B985B18C7F85B910924C
:10019000170180E880931901109218010E945D00F8
:1001A0000E94A4000895813059F0813028F08230F7
:1001B00051F0833071F40AC085B18C7F85B9089500
:1001C0002998289A08952898299A089585B18360D6
:1001D00085B908959091170180911A01981718F028
:1001E00080E00E94D3000895109217018AE0809366
:1001F0001A0181E00E94D300089585E085BD81E069
:1002000080936E0008951F920F920FB60F921124E3
:100210002F933F934F935F936F937F938F939F930E
:10022000AF93BF93EF93FF930E94EA008091180170
:10023000882321F480B7886080BF03C081508093F9
:100240001801FF91EF91BF91AF919F918F917F9195
:100250006F915F914F913F912F910F900FBE0F9033
:100260001F90189587E091E090931E0180931D01E7
:100270000E944C0180E091E00E94B20183E084B9C9
:1002800081E087B98FEF8AB90E94C1000E94FD000A
:1002900078940E94F400FFCF1092C5008CE0809308
:1002A000C40088E18093C10086E08093C200089575
:1002B000E0ECF0E0908195FFFDCF8093C6000895BB
:1002C000E0ECF0E080818823ECF78091C60008958F
:1002D000CF93C82F8A3019F48DE00E9458018C2FDB
:1002E0000E94580180E090E0CF910895EF92FF9234
:1002F0000F931F93CF93DF937C01C0E0D0E08B017D
:10030000015010400E9460018D30A9F0883031F416
:100310002097C1F321970E945801F4CF803290F3C7
:10032000C017D1077CF7F701EC0FFD1F80832196E2
:100330000E945801E7CFCE0DDF1D18828AE00E948F
:100340005801DF91CF911F910F91FF90EF90089589
:10035000CF93C82F892F0E9458018C2F0E945801DB
:10036000CF9108950F931F93CF93DF938C01E0916A
:100370001D01F0911E01838181FF1AC0C0E0D0E011
:1003800005C00995009711F0CFEFDFEFF8018191DB
:100390008F0160911D0170911E01DB011896ED9196
:1003A000FC911997882369F78AE00995009711F065
:1003B000CFEFDFEFCE01DF91CF911F910F91089525
:0403C000F894FFCFDF
:1003C40048656C6C6F0A00000000020000000068C1
:0603D40001000000000022
:00000001FF
