:100000000C943E000C945B000C945B000C945B0021
:100010000C945B000C945B000C945B000C945B00F4
:100020000C945B000C945B000C945B000C945B00E4
:100030000C945B000C945B000C945B000C945B00D4
:100040000C945B000C945B000C94C2000C945B005D
:100050000C945B000C945B000C945B000C945B00B4
:100060000C945B000C945B000C945B000C945B00A4
:100070000C945B000C945B000C945B0011241FBE7D
:10008000CFEFD0E1DEBFCDBF11E0A0E0B1E0EEE701
:10009000F9E002C005900D92AE33B107D9F711E037
:1000A000AEE3B1E001C01D92A834B107E1F70E94B0
:1000B000FD000C94BD040C94000081E88093800046
:1000C0008DE0809381008091410190E090938900C0
:1000D00080938800089580E480937C0080EC809376
:1000E0007A000895EAE7F0E080818064808380816F
:1000F00084FFFDCF80917800909179009695879547
:1001000096958795089581B1866081B982B1897F7E
:1001100082B910923E0110923F0184EB809340011E
:1001200080E8809341010E945D000E946B00089569
:10013000813059F0813028F0823051F0833071F4F1
:100140000AC082B1897F82B908951298119A0895E0
:100150001198129A089582B1866082B908950E941A
:10016000720080933E0190914001891728F480919C
:100170003F018F5F80933F01089581E085BD8093AB
:100180006E0008951F920F920FB60F9211242F93B5
:100190003F934F935F936F937F938F939F93AF930F
:1001A000BF93EF93FF930E94AF0000D000D0EDB754
:1001B000FEB7319680E091E0ADB7BEB712969C9342
:1001C0008E93119780913F01828313820E94C50113
:1001D0000F900F900F900F90FF91EF91BF91AF9103
:1001E0009F918F917F916F915F914F913F912F914F
:1001F0000F900FBE0F901F901895CF93DF93CDB740
:10020000DEB764970FB6F894DEBF0FBECDBF80E3B4
:1002100091E090934501809344010E945D018EE03E
:1002200091E00E94DA018FEF8AB90E9483000E9458
:10023000BD0078940DE111E00F2EFBE2EF2EF1E00E
:10024000FF2EF02D0F2EF5E2CF2EF1E0DF2EF02D58
:100250000F2EF5E1AF2EF1E0BF2EF02DCE0101966D
:1002600064E170E00E9487018981863451F087340F
:1002700018F4823499F713C0823551F0833571F741
:1002800015C0C5010E94DA0181E00E949800E6CF06
:10029000C8010E94DA0182E00E949800DFCFC60107
:1002A0000E94DA0183E00E949800D8CFC7010E9423
:1002B000DA0180E00E949800D1CF1092C5008CE056
:1002C0008093C40088E18093C10086E08093C200DF
:1002D0000895E0ECF0E0908195FFFDCF8093C6009B
:1002E0000895E0ECF0E080818823ECF78091C6006F
:1002F0000895CF93C82F8A3019F48DE00E946901C8
:100300008C2F0E94690180E090E0CF910895EF92D8
:10031000FF920F931F93CF93DF937C01F894C0E07B
:10032000D0E08B01015010400E9471018D30A9F086
:10033000883031F42097C1F321970E946901F4CFEE
:10034000803290F3C017D1077CF7F701EC0FFD1F47
:10035000808321960E946901E7CFCE0DDF1D1882B0
:100360008AE00E9469017894DF91CF911F910F91EB
:10037000FF90EF900895CF93C82F892F0E946901B5
:100380008C2F0E946901CF910895A0E0B0E0EBECC2
:10039000F1E00C949604FE01359661917191809183
:1003A000440190914501AF010E9408022096E2E0CD
:1003B0000C94B2040F931F93CF93DF938C01E091C1
:1003C0004401F0914501838181FF1AC0C0E0D0E073
:1003D00005C00995009711F0CFEFDFEFF80181918B
:1003E0008F016091440170914501DB011896ED91F8
:1003F000FC911997882369F78AE00995009711F015
:10040000CFEFDFEFCE01DF91CF911F910F910895D4
:10041000ADE0B0E0EEE0F2E00C9486043C017D87B4
:100420006C875A01FC0117821682838181FFC8C143
:100430002E010894411C511CF3019381EC85FD852C
:1004400093FD859193FF8191FD87EC87882309F4C3
:10045000B3C1853241F493FD859193FF8191FD876E
:10046000EC87853229F490E0B3010E94FC03E4CFCD
:10047000FF24EE2410E01032B0F48B3269F08C329D
:1004800028F4803251F0833271F40BC08D3239F090
:10049000803349F411602CC01260146029C01860C8
:1004A00027C0106125C017FD2EC0282F20532A30E9
:1004B00098F416FF08C08F2D880FF82EFF0CFF0C44
:1004C000F80EF20E15C08E2D880FE82EEE0CEE0CF5
:1004D000E80EE20E10620CC08E3221F416FD6CC1E3
:1004E000106406C08C3611F4106802C0883659F4C6
:1004F000EC85FD8593FD859193FF8191FD87EC87C8
:10050000882309F0B8CF982F9554933018F0905263
:10051000933038F424E030E0A20EB31E3FE3398379
:100520000FC0833631F0833781F0833509F05AC02C
:1005300022C0F5018081898322E030E0A20EB31E43
:1005400021E0C22ED12C420114C092E0292E312C80
:100550002A0C3B1CF5018080918016FF03C06F2D93
:1005600070E002C06FEF7FEFC4010E94F1036C01E5
:1005700051011F7715C082E0282E312C2A0C3B1C1C
:10058000F5018080918016FF03C06F2D70E002C0DE
:100590006FEF7FEFC4010E94E6036C011068510108
:1005A00013FD1CC006C080E290E0B3010E94FC0372
:1005B000EA948E2D90E0C816D906A8F30FC0F40176
:1005C00017FD859117FF81914F0190E0B3010E94C3
:1005D000FC03E110EA940894C108D108C114D104C5
:1005E00071F7E7C0843611F0893651F5F50117FF30
:1005F00007C080819181A281B38124E030E008C0EE
:1006000080819181AA2797FDA095BA2F22E030E042
:10061000A20EB31E012F0F76B7FF08C0B095A095AC
:10062000909581959F4FAF4FBF4F0068BC01CD01A2
:10063000A2012AE030E00E942804D82ED4183FC03E
:10064000853721F41F7E2AE030E020C0197F8F36E5
:10065000A9F0803720F4883509F0AEC00BC0803790
:1006600021F0883709F0A8C001C0106114FF09C04B
:10067000146007C014FF08C0166006C028E030E010
:1006800005C020E130E002C020E132E0F50117FFB3
:1006900007C0608171818281938144E050E006C08F
:1006A0006081718180E090E042E050E0A40EB51ED0
:1006B000A2010E942804D82ED418012F0F7706FF1C
:1006C00009C00E7FDF1430F404FF06C002FD04C031
:1006D0000F7E02C01D2D01C01F2D802F90E004FF52
:1006E0000CC0FE01ED0DF11D2081203311F4097EB7
:1006F00009C002FF06C01E5F05C086789070009793
:1007000009F01F5F802E992403FD12C000FF0DC069
:10071000FD2C1E1550F4FE0CF11A1E2D06C080E2B1
:1007200090E0B3010E94FC031F5F1E15C0F304C0DC
:100730001E1510F4E11A01C0EE2484FE0FC080E300
:1007400090E0B3010E94FC0382FE1FC081FE03C043
:1007500088E590E010C088E790E00DC0C40186787D
:100760009070009791F081FC02C080E201C08BE2A2
:1007700007FD8DE290E0B3010E94FC0306C080E318
:1007800090E0B3010E94FC03FA94DF14C0F3DA9402
:10079000F201ED0DF11D808190E0B3010E94FC0398
:1007A000DD20A9F706C080E290E0B3010E94FC03BF
:1007B000EA94EE20C1F740CEF3018681978102C012
:1007C0008FEF9FEF2D96E2E10C94A204FC010590BF
:1007D000615070400110D8F7809590958E0F9F1F43
:1007E0000895FC016150704001900110D8F7809588
:1007F00090958E0F9F1F08950F931F93CF93DF93B4
:100800008C01EB018B8181FF1BC082FF0DC02E810B
:100810003F818C819D812817390764F4E881F98133
:100820000193F983E88306C0E885F985802F09954F
:10083000009731F48E819F8101969F838E8302C041
:100840000FEF1FEFC801DF91CF911F910F91089516
:10085000FA01AA27283051F1203181F1E8946F93F1
:100860006E7F6E5F7F4F8F4F9F4FAF4FB1E03ED097
:10087000B4E03CD0670F781F891F9A1FA11D680F35
:10088000791F8A1F911DA11D6A0F711D811D911D68
:10089000A11D20D009F468943F912AE0269F1124DD
:1008A0003019305D3193DEF6CF010895462F477041
:1008B000405D4193B3E00FD0C9F7F6CF462F4F709C
:1008C000405D4A3318F0495D31FD4052419302D0FA
:1008D000A9F7EACFB4E0A6959795879577956795A0
:1008E000BA95C9F700976105710508959B01AC01A0
:1008F0000A2E06945795479537952795BA95C9F7C7
:10090000620F731F841F951FA01D08952F923F92A1
:100910004F925F926F927F928F929F92AF92BF920F
:10092000CF92DF92EF92FF920F931F93CF93DF93BB
:10093000CDB7DEB7CA1BDB0B0FB6F894DEBF0FBE18
:10094000CDBF09942A88398848885F846E847D8465
:100950008C849B84AA84B984C884DF80EE80FD8067
:100960000C811B81AA81B981CE0FD11D0FB6F894DD
:0E097000DEBF0FBECDBFED010895F894FFCF9E
:10097E00436F756E746572203D2025640A004865CC
:10098E006C6C6F0A00466F72776172640052657606
:10099E006572736500427265616B0053746F70000F
:0E09AE000000000200000000790100000000BF
:00000001FF
