:100000000C943E000C945B000C945B000C945B0021
:100010000C945B000C945B000C945B000C945B00F4
:100020000C945B000C945B000C945B000C945B00E4
:100030000C945B000C945B000C945B000C945B00D4
:100040000C945B000C945B000C945F010C945B00BF
:100050000C945B000C945B000C945B000C94AA0065
:100060000C9483000C945B000C945B000C945B007C
:100070000C945B000C945B000C945B0011241FBE7D
:10008000CFEFD0E1DEBFCDBF11E0A0E0B1E0E0EB0B
:10009000F4E002C005900D92A631B107D9F711E046
:1000A000A6E1B1E001C01D92A232B107E1F70E94C2
:1000B00083010C9456020C94000081E88093800028
:1000C0008DE08093810080911A0190E090938900E7
:1000D00080938800089580E480937C0087EC80936F
:1000E0007A000895EAE7F0E080818064808380816F
:1000F00084FFFDCF80917800909179009695879547
:100100009695879508951F920F920FB60F9211241E
:100110008F939F93EF93FF93809178009091790054
:10012000969587959695879580931701EAE7F0E075
:10013000808180648083FF91EF919F918F910F90D8
:100140000FBE0F901F9018958AE080BF83E08093C8
:100150007F0008951F920F920FB60F9211242F93D4
:100160005F936F937F938F939F93AF93BF93809190
:1001700018018F5F8093180190B7977F90BF9AE026
:100180009093190120911A01829FC001112460915E
:100190001B0170E00E940102261B203538F480E527
:1001A00090E0909389008093880006C0822F90E0B1
:1001B0009093890080938800BF91AF919F918F9118
:1001C0007F916F915F912F910F900FBE0F901F90B5
:1001D000189584B1836084B985B18C7F85B91092FC
:1001E000180186E980931A01109219010E945D009E
:1001F0000E94A400089580911601813059F0813049
:1002000028F0823051F0833071F40AC085B18C7FC0
:1002100085B908952998289A08952898299A0895C3
:1002200085B1836085B9089580911601813090F081
:10023000833018F0833071F40AC0909118018091D6
:100240001B01981748F083E08093160105C01092B7
:10025000160102C0109216010E94FB008091190144
:10026000882321F480B7886080BF089581508093EF
:10027000190108959C0166E770E00E940102462F73
:1002800060931B01109218011216130624F481E0EA
:100290008093160103C082E08093160150E026E7A8
:1002A00030E0429FC001439F900D529F900D11245A
:1002B000089585E085BD81E080936E0008951F92CA
:1002C0000F920FB60F9211242F933F934F935F938A
:1002D0006F937F938F939F93AF93BF93EF93FF930E
:1002E0000E941401FF91EF91BF91AF919F918F9167
:1002F0007F916F915F914F913F912F910F900FBE22
:100300000F901F90189587E091E090931F018093C4
:100310001E010E949B0180E091E00E94280283E080
:1003200084B981E087B98FEF8AB90E94E9000E9401
:1003300059017894FFCF1092C5008CE08093C400DF
:1003400088E18093C10086E08093C2000895E0ECCC
:10035000F0E0908195FFFDCF8093C6000895E0EC1A
:10036000F0E080818823ECF78091C6000895CF9358
:10037000C82F8A3019F48DE00E94A7018C2F0E94AB
:10038000A70180E090E0CF910895EF92FF920F9344
:100390001F93CF93DF937C01C0E0D0E08B0101502D
:1003A00010400E94AF018D30A9F0883031F42097C1
:1003B000C1F321970E94A701F4CF803290F3C017B8
:1003C000D1077CF7F701EC0FFD1F808321960E9477
:1003D000A701E7CFCE0DDF1D18828AE00E94A7019A
:1003E000DF91CF911F910F91FF90EF900895CF93E0
:1003F000C82F892F0E94A7018C2F0E94A701CF919F
:10040000089597FB092E07260AD077FD04D00CD05B
:1004100006D000201AF4709561957F4F0895F6F785
:10042000909581959F4F0895AA1BBB1B51E107C072
:10043000AA1FBB1FA617B70710F0A61BB70B881F74
:10044000991F5A95A9F780959095BC01CD01089503
:100450000F931F93CF93DF938C01E0911E01F091D6
:100460001F01838181FF1AC0C0E0D0E005C009955B
:10047000009711F0CFEFDFEFF80181918F016091CC
:100480001E0170911F01DB011896ED91FC911997E7
:10049000882369F78AE00995009711F0CFEFDFEF25
:1004A000CE01DF91CF911F910F910895F894FFCF66
:1004B00048656C6C6F0A000000000200000000B785
:0604C00001000000000035
:00000001FF
