:100000000C943E000C945B000C945B000C945B0021
:100010000C945B000C945B000C945B000C945B00F4
:100020000C945B000C945B000C945B000C945B00E4
:100030000C945B000C945B000C945B000C945B00D4
:100040000C945B000C945B000C945B000C945B00C4
:100050000C945B000C945B000C945B000C945B00B4
:100060000C9471000C945B000C945B000C945B008E
:100070000C945B000C945B000C945B0011241FBE7D
:10008000CFEFD0E1DEBFCDBF11E0A0E0B1E0E8E509
:10009000F1E002C005900D92A030B107D9F711E050
:1000A000A0E0B1E001C01D92A030B107E1F70E94CD
:1000B000A2000C94AA000C94000081EA80938000B6
:1000C00089E0809381008FEF90E090938900809386
:1000D0008800089580E480937C0088EC80937A0007
:1000E00008951F920F920FB60F9211242F933F93F2
:1000F0008F939F93EF93FF93809178009091790075
:100100009695879596958795E8E8F0E091838083AA
:10011000208131818FEF90E0821B930B90938B00B5
:1001200080938A00EAE7F0E0808180648083FF9119
:10013000EF919F918F913F912F910F900FBE0F9054
:100140001F9018958FEF8AB90E945D000E946A0087
:080150007894FFCFF894FFCF73
:00000001FF
