:100000000C946E060C9412140C948B060C948B06B4
:100010000C948B060C948B060C948B060C948B061C
:100020000C948B060C948B060C948B060C948B060C
:100030000C948B060C948B060C948B060C948B06FC
:100040000C948B060C948B060C948B060C948B06EC
:100050000C948B060C948B060C948B060C948B06DC
:100060000C948B060C948B060C948B060C948B06CC
:100070000C948B060C948B060C948B063A0440D09F
:10008000121432801716180419021A7B03060C008A
:100090003E007000710072117300A20211017A20FB
:1000A0007B1C7C287D3C7E557F68807681808288A1
:1000B000838F849685A386AF87C488D789E813E0A9
:1000C000000010000D001420A505AB072475256362
:1000D00026A59F78A068A103A6DFA7DFA8F0A990B6
:1000E000AA9413E50E610F4B16021E2721022291DE
:1000F0002907330B350B371D3871392A3C784D40B1
:100100004E20690C6B6074198D4F8E008F0090002B
:100110009100920096009A80B084B10CB20EB38226
:10012000B80A431444F0453446584728483A598899
:100130005A885B445C675D495E0E64046520660511
:10014000940495086C0A6D556E116F9F6A400140CA
:10015000024013E715024F80508051005222535E37
:100160005480589E41083F00750576E14C007701A8
:100170003DC24B09C9604138564034113B02A48945
:1001800096009730982099309A849B299C039D4C27
:100190009E3F78047901C8F0790FC8007910C87EB5
:1001A000790AC880790BC801790CC80F790DC8206D
:1001B0007909C8807902C8C07903C8407905C83078
:1001C00079260903550056403B420000000000001C
:1001D000000000000000000000000000000000001F
:1001E000000000000000000000000000000000000F
:1001F000000007D000000000000000000000000028
:1002000007000000070000000000000000000128B7
:1002100003F0052803F005200000000000000000A6
:10022000012002B806A0024000000000000000000B
:100230000000028005A002D000A0000000000060C5
:100240000190025002700010000000000000000049
:100250000000070000000000000000000000000097
:1002600001E006180000000000000000000000008F
:1002700000000000061801E000000000000000007F
:1002800002000280070002800200000000000080DF
:10029000008007F0008000800000000000000000E7
:1002A000000C00180010000000000000000000809A
:1002B000008000800080008000000000000000003E
:1002C000000000100010000000000000000000000E
:1002D0000008003000C0030004000000000000001F
:1002E00003E004100410041003E00000000000000C
:1002F0000010041007F000100010000000000000C3
:1003000002300450049005100210000000000000AC
:10031000022004100490049003600000000000C05C
:100320000140025007F000500000000000000000F3
:10033000002007900490049004600000000001E099
:10034000029004900490046000000000000000008F
:1003500006000400043004C0070000000000036031
:10036000049004900490036000000000000003105B
:100370000490049004A003C00000000000000000EE
:10038000011001100000000000000000000000004B
:1003900000180130012000000000000000000000F3
:1003A00000800080014001400220000000000000A9
:1003B00001400140014001400140000000000220D6
:1003C00001400140008000800000000000000000AB
:1003D0000200041004D00300000000000000000030
:1003E00003F0040804C8052803E8000000100030EA
:1003F00005D0064001D000300010000000000410BD
:1004000007F004900490049003600000000003E0F3
:100410000410041004100620000000000000041066
:1004200007F004100410022001C0000000000000CA
:10043000041007F0049005D00630000000000410FE
:1004400007F0049005C0060000000000000003E073
:10045000041004100450066000400000041007F06F
:1004600004900080049007F00410000000000410C5
:10047000041007F0041004100000000000000060E9
:100480000410041007E0040000000000041007F04E
:1004900004900080054006300410000000000410A5
:1004A00007F00410001000700000000000000410AD
:1004B00007F007100080071007F004100000041078
:1004C00007F0071000C0043007F00400000003E04C
:1004D00004100410041003E00000000000000000FD
:1004E000041007F0045004400380000000000000E6
:1004F00003E004100418041803E8000000000410CE
:1005000007F00450044003A00010000000000000A9
:100510000330049004900290066000000000000088
:100520000600041007F0041006000000000004009C
:1005300007E004100010041007E004000400078026
:100540000470001004E0070004000000040007E04D
:10055000041001E0041007E0040000000000041093
:1005600006300140008001400630041004000600FF
:10057000051000F005100600040000000000063021
:100580000450049005100630000000000000000038
:10059000000007F804080000000000000000000050
:1005A0000400030000E0001800000000000000004C
:1005B0000000040807F80000000000000000000030
:1005C000010002000400020001000000000000041D
:1005D0000004000400040004000400040000000003
:1005E000000003000080000000000000000000B0D8
:1005F00001500150015000F00010000000000410F4
:1006000007F000900110011000E00000000000E081
:10061000011001100110019000000000000000E036
:1006200001100110049007F000100000000000000D
:1006300000E001500150015000D000000000000017
:10064000011003F00510051000000000000000E09C
:1006500001140114009401F80100000000000410CE
:1006600007F000900100011000F0001000000110E0
:10067000011005F00010001000000000000001044F
:100680000104050401F8000000000000000004104F
:1006900007F00040015001B0011000000000000010
:1006A0000010041007F0001000100000011001F00D
:1006B000011000F0011000F0001000000000011017
:1006C00001F000900100011000F000100000000097
:1006D00000E001100110011000E000000000000027
:1006E000010401FC00940110011000E0000000E092
:1006F00001100110009401FC010400000000000042
:10070000011001F0009001100100000000000090B5
:1007100001500150015001200000000000000100C4
:1007200003E0011001100110002000000000010092
:1007300001E000100010012001F000100000010095
:1007400001C00130001001600180010000000100C3
:1007500001E001100060011001E001000000000054
:10076000011001B0004001B00110000000000100C4
:1007700001840164001C0160018001000000000090
:100780000190013001500190013000000000000094
:10079000008007F0080800000000000000000000D2
:1007A000000007F80000000000000000000000004A
:1007B0000000080807F00080000000000000004072
:1007C000008000C000400080000000000000000029
:1007D000000000000000000000000000000000E039
:1007E00001100110011000E000000000000000E016
:1007F00001100170011000E00000000007F000107F
:1008000001D0011000D0011001E0000000E0011053
:100810000130010000F0010000F0000000600090D5
:1008200000900110017001500610000000E00090DF
:100830000710061002D002E00410000000000000C3
:10084000040003600170011000E0000000E00110EE
:1008500001300080011005F0023001C000E00110FD
:1008600001200120009000B000B00700006003905C
:10087000029002B002B00600000000000000030079
:1008800005F00500040003F00000000000000380F4
:100890000580040007F0001007F00000000003804E
:1008A00004F005800200040003F000000000038053
:1008B000047004C0040003F0000000000000038086
:1008C00004F005800200040003F0000003800280B1
:1008D00005B003F00020002003F00000000000003D
:1008E00000C00060063007F00000000000000000BB
:1008F00004C004F0041003F00000000000000180B8
:1009000005F00420042003F0003000000000070080
:10091000050007F0021003E004000000000003805F
:100920000580020007F0021005F00000033005F01A
:100930000500043003F0002007F00000030005F07C
:100940000530040003E60016001207E60000000070
:10095000033005F6050E040C03FE00000000000045
:10096000033005F6050E040A03FE00000000000037
:10097000000206630675061705F70000078003806E
:10098000040007F00300040003F0000003C0063079
:1009900006C00300043003F0002007F0030005F058
:1009A0000530040003F0002007F000300000038051
:1009B000067005400580040003F00000000003807D
:1009C0000470062003C0040003F0000000000000D3
:1009D000030005F00530040003F0000000000600ED
:1009E00007F001800600040007F00000000000008E
:1009F0000000071005F0029006F000000000000063
:100A0000060007F00020007007F000000000000062
:100A1000061007F00010001007F0000000000000B2
:100A2000060007F0001000107FF00000000000003A
:100A300007F006400080004007F0000000000000C2
:100A400007F00640008000403FF000000000060074
:100A500007F001C0070000C007F00000000006001A
:100A600007F001C0070000C03FF0000000000000D8
:100A7000033005F00500040003F000000000000052
:100A8000063007F00020001007F000000000000012
:100A900007F006900010001007F0000000000000B2
:100AA000000002000500053005F000000000000015
:100AB000040005F00530050003F000000000000010
:100AC000020004000400043003F0000000000000F5
:100AD000030005F00580050007F00000000000009D
:100AE000061007F000D0005007F0000000000400DE
:100AF00005F00530050003F00600000000000000CE
:100B0000060007F00080070007F000000000060064
:100B100003F00060038004E007F004000000000020
:100B200004F004D0041003E0000000000000000006
:100B300005E00590041007E000000000000003300D
:100B4000033001100110022000000000000000002E
:100B500004000400040003F0000000000000300066
:100B60005000500050003000000000000000000065
:100B70003000500050005000F00000000000000065
:100B80000000000000000006000700000000000058
:100B90000000000600070001000700000000200020
:100BA00050002FF060300000000000000000000046
:100BB000000007F00030000000000000000000000E
:100BC00007F00030000007F00030000000000000D7
:100BD00000000000000030003000000000000000B5
:100BE000000003F00530040003FE000000000000D8
:100BF000038000800380040007F000000000000074
:100C00000000000000000000038000000000000061
:100C100000000000068007800100060000000000C0
:100C20000000038002000380008003000000000039
:100C30000000000003000280028006800000000027
:100C4000000001000380010000000000000000001F
:100C50000000000000C0034004000000000000008D
:100C60000000000000000000000000000000000084
:100C70000000000000000000000000000000000074
:100C80000000000000000000000000000000000064
:100C90000000000000000000000000000000000054
:100CA0000000000000000000000000000000000044
:100CB0000000000000000000000000000000000034
:100CC0000000000000000000000000000000000024
:100CD00000000000000000000000000011241FBE02
:100CE000CFEFD0E1DEBFCDBF11E0A0E0B1E0EEED8F
:100CF000FBE202C005900D92AE31B107D9F711E0C9
:100D0000AEE1B1E001C01D92A633B107E1F70E9448
:100D100079140C94ED150C940000DF93CF9300D060
:100D2000CDB7DEB79A838983000021E089819A815B
:100D3000009709F420E089819A8101979A83898339
:100D4000222399F70F900F90CF91DF910895DF93B1
:100D5000CF9300D0CDB7DEB79A83898304C084E6F1
:100D600090E00E948D0621E089819A81009709F424
:100D700020E089819A8101979A838983222379F7D8
:100D80000F900F90CF91DF910895DF93CF9300D014
:100D9000CDB7DEB789836A830E94900882E40E94FF
:100DA0003409882321F40E94CB0880E01DC084E62A
:100DB00090E00E948D0689810E943409882321F4E5
:100DC0000E94CB0880E010C084E690E00E948D066F
:100DD0008A810E943409882321F40E94CB0880E094
:100DE00003C00E94CB0881E00F900F90CF91DF915C
:100DF0000895DF93CF9300D00F92CDB7DEB78983EC
:100E00007B836A830E94900882E40E9434098823CD
:100E100021F40E94CB0880E02EC084E690E00E947E
:100E20008D0689810E943409882321F40E94CB0811
:100E300080E021C00E94CB0884E690E00E948D06ED
:100E40000E94900883E40E943409882321F40E94C0
:100E5000CB0880E010C084E690E00E948D060E94DE
:100E6000CA09282F8A819B81FC0120830E94F908EE
:100E70000E94CB0881E00F900F900F90CF91DF91EF
:100E800008951F93DF93CF93CDB7DEB729970FB6A1
:100E9000F894DEBF0FBECDBF1A8219820E94770878
:100EA00080E88B8382E16B810E94C506882311F460
:100EB00080E03BC08AE090E00E94A7061A82198277
:100EC0002EC02CE730E089819A81880F991F820F0C
:100ED000931F9D838C838C819D81FC0114911E83C3
:100EE0004E812CE730E089819A81880F991F019605
:100EF000820F931F98878F838F819885FC011491AF
:100F000019879985842F692F0E94C506882311F4BB
:100F100080E00BC089819A8101969A8389838981B7
:100F20009A81803B910568F281E029960FB6F8948A
:100F3000DEBF0FBECDBFCF91DF911F910895DF932C
:100F4000CF93CDB7DEB78AE290E02AE230E0F90134
:100F50002081206DFC01208387E290E027E230E0D1
:100F6000F90120812062FC0120838BE290E02BE2DA
:100F700030E0F90120812F7EFC01208388E290E09F
:100F800028E230E0F90120812F7DFC0120838BE2F3
:100F900090E02BE230E0F90120812068FC01208301
:100FA0008BE290E02BE230E0F90120812F7BFC0105
:100FB00020838AE090E00E948D068BE290E02BE295
:100FC00030E0F90120812061FC0120838AE090E07B
:100FD0000E948D068BE290E02BE230E0F901208147
:100FE0002F7EFC0120838BE290E02BE230E0F901C0
:100FF00020812F77FC0120838AE090E00E948D06FB
:101000008BE290E02BE230E0F90120812061FC01CD
:10101000208381E090E00E948D068BE290E02BE23D
:1010200030E0F90120812F7EFC0120838BE290E0EB
:101030002BE230E0F90120812068FC0120838AE066
:1010400090E00E948D0681E0CF91DF910895DF93BB
:10105000CF9300D0CDB7DEB71A82198281E290E03B
:10106000FC0110828BE290E02BE230E0F90120815C
:101070002061FC01208380E290E0FC018081882FC8
:1010800090E09A8389838BE290E02BE230E0F901D3
:1010900020812F7EFC01208389819A81982F8827C7
:1010A0009A8389838BE290E02BE230E0F901208182
:1010B0002061FC01208380E290E0FC018081882F88
:1010C00090E029813A81822B932B9A8389838BE24A
:1010D00090E02BE230E0F90120812F7EFC0120839B
:1010E00089819A810F900F90CF91DF910895DF93BE
:1010F000CF93CDB7DEB787E290E027E230E0F90189
:101100002081206CFC01208388E290E028E230E01E
:10111000F9012081206CFC012083CF91DF9108959B
:10112000DF93CF93CDB7DEB788E290E028E230E0DE
:10113000F90120812068FC01208384E690E00E9470
:101140008D0688E290E028E230E0F90120812064F9
:10115000FC01208384E690E00E948D0688E290E006
:1011600028E230E0F90120812F77FC01208384E61A
:1011700090E00E948D0688E290E028E230E0F901DC
:1011800020812F7BFC01208384E690E00E948D0665
:10119000CF91DF910895DF93CF93CDB7DEB788E28B
:1011A00090E028E230E0F90120812F77FC012083D4
:1011B00084E690E00E948D0688E290E028E230E02C
:1011C000F90120812064FC01208384E690E00E94E4
:1011D0008D0688E290E028E230E0F9012081206865
:1011E000FC01208384E690E00E948D06CF91DF9180
:1011F0000895DF93CF93CDB7DEB788E290E028E281
:1012000030E0F90120812068FC01208384E690E031
:101210000E948D0688E290E028E230E0F90120810A
:101220002064FC01208384E690E00E948D0688E221
:1012300090E028E230E0F90120812F7BFC0120833F
:1012400084E690E00E948D0688E290E028E230E09B
:10125000F90120812F77FC01208384E690E00E9431
:101260008D06CF91DF910895DF93CF9300D00F9239
:10127000CDB7DEB78B83198244C08B81882F90E075
:101280002981222F30E0022E02C0880F991F0A9474
:10129000E2F780789070009751F088E290E028E2C1
:1012A00030E0F90120812068FC01208309C088E238
:1012B00090E028E230E0F90120812F77FC012083C3
:1012C00084E690E00E948D0688E290E028E230E01B
:1012D000F90120812064FC01208384E690E00E94D3
:1012E0008D0688E290E028E230E0F90120812F7B32
:1012F000FC01208384E690E00E948D0689818F5F47
:1013000089838981883008F4B8CF84E690E00E9410
:101310008D0687E290E027E230E0F90120812F7707
:10132000FC01208384E690E00E948D0688E290E034
:1013300028E230E0F90120812064FC01208388EE5E
:1013400093E00E948D0686E290E0FC018081882374
:1013500014F41A8202C081E08A8388E290E028E2D5
:1013600030E0F90120812F7BFC01208384E690E0AE
:101370000E948D0687E290E027E230E0F9012081AB
:101380002068FC0120838A810F900F900F90CF91ED
:10139000DF910895DF93CF9300D0CDB7DEB71982E8
:1013A00087E290E027E230E0F90120812F77FC010D
:1013B000208384E690E00E948D0688E08A832DC019
:1013C00084E690E00E948D0688E290E028E230E01A
:1013D000F90120812064FC01208384E690E00E94D2
:1013E0008D068981880F898386E290E0FC018081E7
:1013F00088231CF489818F5F898388E290E028E24A
:1014000030E0F90120812F7BFC01208384E690E00D
:101410000E948D068A8181508A838A81882381F681
:1014200089810F900F90CF91DF9108951F93DF93E3
:10143000CF93CDB7DEB728970FB6F894DEBF0FBEB7
:10144000CDBF88878885882F90E082959295907F80
:101450009827807F98279C838B8319822AC01A82C1
:1014600022C08981282F30E08A81882F90E04B812B
:101470005C8144525E4F5E834D834D815E81FA01F3
:1014800014911F834F81220F331F820F931F805EA1
:101490009E4FFC0140838B819C8101969C838B83B2
:1014A0008A818F5F8A838A818230D8F289818F5FB7
:1014B00089838981883098F228960FB6F894DEBF28
:1014C0000FBECDBFCF91DF911F910895DF93CF93D2
:1014D00000D00F92CDB7DEB78A836B838B818830C3
:1014E000E8F48A81882F90E0880F991F805E9E4FD4
:1014F000FC018081882F90E02B81222F30E047E093
:1015000050E0BA01621B730B9B01022E02C095953D
:1015100087950A94E2F7817089831FC08B81885078
:101520008B838A81882F90E0880F991F8F5D9E4F53
:10153000FC018081882F90E02B81222F30E047E052
:1015400050E0BA01621B730B9B01022E02C09595FD
:1015500087950A94E2F78170898389810F900F90B3
:101560000F90CF91DF910895DF93CF93CDB7DEB782
:1015700028970FB6F894DEBF0FBECDBF9A8389833C
:101580007C836B835E834D8338872F8387E490E071
:101590000E94820B8D819E810E94180B86E490E050
:1015A0000E94820B8F8198850E94180B80E290E048
:1015B0000E94820B8D819E810E94180B85E490E031
:1015C0000E94820B89819A810E94180B84E490E02A
:1015D0000E94820B8B819C810E94180B81E290E01B
:1015E0000E94820B89819A810E94180B28960FB65F
:1015F000F894DEBF0FBECDBFCF91DF910895DF938A
:10160000CF9300D000D0CDB7DEB79A8389837C8397
:101610006B8389819A810E94820B8B819C810E94BD
:10162000180B0F900F900F900F90CF91DF910895AE
:10163000DF93CF9300D0CDB7DEB79A83898388E25A
:1016400090E028E230E0F90120812260FC01208353
:1016500088E290E028E230E0F90120812860FC0176
:10166000208388E290E028E230E0F90120812F7E9B
:10167000FC01208381E290E02FEFFC01208382E2D5
:1016800090E029813A81232F3327FC01208388E2CF
:1016900090E028E230E0F90120812B7FFC012083DB
:1016A00088E290E028E230E0F90120812460FC012A
:1016B000208382E290E02981FC01208388E290E08F
:1016C00028E230E0F90120812B7FFC01208388E2B1
:1016D00090E028E230E0F90120812460FC012083C1
:1016E00088E290E028E230E0F90120812061FC01ED
:1016F000208381E290E0FC0110820F900F90CF9147
:10170000DF910895DF93CF9300D0CDB7DEB79A83F2
:10171000898388E290E028E230E0F90120812D7F82
:10172000FC01208388E290E028E230E0F90120818A
:101730002860FC01208388E290E028E230E0F90193
:1017400020812F7EFC01208381E290E02FEFFC01BD
:10175000208382E290E029813A81232F3327FC0104
:10176000208388E290E028E230E0F90120812B7F9D
:10177000FC01208388E290E028E230E0F90120813A
:101780002460FC01208382E290E02981FC01208317
:1017900088E290E028E230E0F90120812B7FFC0113
:1017A000208388E290E028E230E0F9012081246083
:1017B000FC01208388E290E028E230E0F9012081FA
:1017C0002061FC01208381E290E0FC0110820F90F7
:1017D0000F90CF91DF910895DF93CF9300D0CDB7D5
:1017E000DEB71A82198281E290E0FC01108288E261
:1017F00090E028E230E0F90120812260FC012083A2
:1018000088E290E028E230E0F90120812061FC01CB
:10181000208388E290E028E230E0F9012081277FF0
:10182000FC01208388E290E028E230E0F901208189
:101830002B7FFC01208380E290E0FC018081882FD7
:1018400090E09A83898388E290E028E230E0F90111
:1018500020812460FC01208389819A81982F882728
:101860009A83898388E290E028E230E0F9012081C0
:101870002B7FFC01208380E290E0FC018081882F97
:1018800090E029813A81822B932B9A83898388E285
:1018900090E028E230E0F90120812460FC012083FF
:1018A00088E290E028E230E0F90120812860FC0124
:1018B000208389819A810F900F90CF91DF910895B5
:1018C000DF93CF9300D0CDB7DEB71A82198281E2C1
:1018D00090E0FC01108288E290E028E230E0F9011B
:1018E00020812D7FFC01208388E290E028E230E017
:1018F000F90120812061FC01208388E290E028E248
:1019000030E0F9012081277FFC01208388E290E00C
:1019100028E230E0F90120812B7FFC01208380E266
:1019200090E0FC018081882F90E09A83898388E28F
:1019300090E028E230E0F90120812460FC0120835E
:1019400089819A81982F88279A83898388E290E0F9
:1019500028E230E0F90120812B7FFC01208380E226
:1019600090E0FC018081882F90E029813A81822BD0
:10197000932B9A83898388E290E028E230E0F90192
:1019800020812460FC01208388E290E028E230E09E
:10199000F90120812860FC01208389819A810F90C0
:1019A0000F90CF91DF910895DF93CF93CDB7DEB73E
:1019B00087E290E027E230E0F90120812160FC011C
:1019C000208387E290E027E230E0F9012081226065
:1019D000FC01208387E290E027E230E0F9012081DA
:1019E0002460FC01208387E290E027E230E0F901E7
:1019F00020812860FC01208387E290E027E230E02C
:101A0000F90120812061FC01208388E290E028E236
:101A100030E0F90120812E7FFC01208382E390E0F9
:101A20000E94A70688E290E028E230E0F9012081D8
:101A30002160FC01208388E290E028E230E0F90197
:101A400020812460FC01208384E690E00E94A706A8
:101A5000CF91DF910895DF93CF93CDB7DEB782E3C7
:101A600090E00E94A70681E090E06CE370E00E94A5
:101A7000FF0A82E090E060E071E00E94FF0A83E0EC
:101A800090E060E370E10E94FF0A88E090E060E08F
:101A900070E00E94FF0A8AE090E060E075E00E943A
:101AA000FF0A8BE090E060E070E00E94FF0A8CE0AB
:101AB00090E060E777E00E94FF0A8DE090E060E050
:101AC00070E00E94FF0A8EE090E061E070E00E940A
:101AD000FF0A81E190E066E074E00E94FF0A82E183
:101AE00090E06EE070E00E94FF0A83E190E062E225
:101AF00072E00E94FF0A84E190E065E170E00E94DC
:101B0000FF0A85E190E067E772E40E94FF0A86E140
:101B100090E060E070E00E94FF0A80E390E060E502
:101B20007AE60E94FF0A81E390E069EC70E00E948F
:101B3000FF0A82E390E06EEB77EC0E94FF0A83E3FA
:101B400090E063E070E00E94FF0A86E390E063E4C7
:101B500074E30E94FF0A8BE390E060E070E00E9473
:101B6000FF0A8CE390E060E070E00E94FF0A8CE2E4
:101B700090E060E57AE60E94FF0A8DE290E069EC71
:101B800070E00E94FF0A8EE290E06EEB77EC0E941C
:101B9000FF0A8FE290E063E070E00E94FF0A85E3B5
:101BA00090E063E474E30E94FF0A89E390E060E060
:101BB00070E00E94FF0A8AE390E060E070E00E941B
:101BC000FF0A88E290E060E57AE60E94FF0A89E277
:101BD00090E069EC70E00E94FF0A8AE290E06EEB10
:101BE00077EC0E94FF0A8BE290E063E070E00E94D5
:101BF000FF0A84E390E063E474E30E94FF0A87E352
:101C000090E060E070E00E94FF0A88E390E060E00E
:101C100070E00E94FF0A84E190E00E94A70682E142
:101C200090E06EE070E20E94FF0A80EA90E00E947D
:101C3000A70682E190E063E070E20E94FF0A88E27A
:101C400090E00E94A70684E490E06FE371E00E94B8
:101C5000FF0A85E490E060E070E00E94FF0A86E4FD
:101C600090E06FED71E00E94FF0A87E490E060E091
:101C700070E00E94FF0A80E290E060E070E00E9465
:101C8000FF0A81E290E06FE371E00E94FF0A87E6BD
:101C900090E060E072E00E94FF0A84E090E060E083
:101CA00070E70E94FF0A85E090E062E070E00E9429
:101CB000FF0A88E490E060E97BE40E94FF0A89E47F
:101CC00090E060EA75E90E94FF0A8AE490E06CEA1D
:101CD00070EA0E94FF0A8BE490E06EEC75EB0E94C4
:101CE000FF0A87E090E062E170E00E94FF0A88E26C
:101CF00090E00E94A70687E090E067E170E00E9414
:101D0000FF0ACF91DF910895DF93CF9300D000D0E9
:101D1000CDB7DEB79A8389837C836B8389819A816F
:101D200090933301809332018B819C8190931F01AA
:101D300080931E010F900F900F900F90CF91DF9125
:101D40000895DF93CF9300D0CDB7DEB79A83898310
:101D500089819A8190933501809334010F900F907F
:101D6000CF91DF910895DF93CF9300D0CDB7DEB749
:101D70009A83898389819A8190933101809330017C
:101D80000F900F90CF91DF910895EF92FF920F93F4
:101D90001F93DF93CF93CDB7DEB7A1970FB6F8941B
:101DA000DEBF0FBECDBF988F8F8B7A8F698F5C8F10
:101DB0004B8F3E8F2D8F18A30F8FE9A219821A82A5
:101DC0001B821C828F89988D698D7A8D4B8D5C8DDD
:101DD0002D8D3E8D0E94B40A82E290E00E94820B1B
:101DE00089A1882F90E08130910509F4D8C0823014
:101DF000910521F0009709F455C0D2C018861F82C2
:101E000040C01E821D8229C089819A81880F991F36
:101E10002F8D38A1820F931F9A87898789859A858C
:101E20008C01F801E590F4908F01FC86EB861A870F
:101E300009878B859C850E94180B89819A81AB81CB
:101E4000BC810196A11DB11D89839A83AB83BC839C
:101E50008D819E8101969E838D83298D3A8D8F89F8
:101E6000988DA901481B590BCA0101969C018D81CF
:101E70009E818217930740F28F81988501969887FB
:101E80008F832D8D3E8D8B8D9C8DF901E81BF90B79
:101E9000CF0101969C018F8198858217930708F4E2
:101EA000B0CF7EC018861F8269C01E821D8251C0BD
:101EB00089819A81880F991F2F8D38A1820F931FD6
:101EC0009E878D878D859E858C01F801E590F49025
:101ED0008F01F88AEF861E870D878F859889FFEF1F
:101EE0008F3F9F0769F40E94EC0B9A8B898B0E94AD
:101EF000EC0B9A8B898B89899A890E94180B19C0DF
:101F000089819A81880F991F2F8D38A1820F931F85
:101F10009C8B8B8B8B899C898C01F801E590F490CC
:101F20008F01FE8AED8A1C8B0B8B8D899E890E9406
:101F3000180B89819A81AB81BC810196A11DB11DCD
:101F400089839A83AB83BC838D819E8101969E8316
:101F50008D83298D3A8D8F89988DA901481B590B46
:101F6000CA0101969C018D819E818217930708F416
:101F70009FCF8F819885019698878F832D8D3E8D79
:101F80008B8D9C8DF901E81BF90BCF0101969C010B
:101F90008F8198858217930708F487CF01C00000CE
:101FA000A1960FB6F894DEBF0FBECDBFCF91DF91E3
:101FB0001F910F91FF90EF900895EF920F931F9351
:101FC000DF93CF93CDB7DEB72F970FB6F894DEBF70
:101FD0000FBECDBF9E838D8378876F835A874987D5
:101FE0003C872B871E870D87EF868D819E816F81B1
:101FF000788549855A852B853C850E94B40A82E202
:1020000090E00E94820B8F85882F90E081309105AF
:10201000C9F18230910519F0009709F070C01C8257
:102020001B8220C01A82198209C08D859E850E945C
:10203000180B89819A8101969A8389832F8138852B
:102040008D819E81A901481B590BCA0101969C01F3
:1020500089819A818217930740F38B819C81019635
:102060009C838B832B853C8589859A85A901481B98
:10207000590BCA0101969C018B819C8182179307A1
:1020800088F23DC01C821B822AC01A82198213C0AA
:102090000E94EC0B9E878D870E94EC0B9E878D879C
:1020A0008D859E85809590950E94180B89819A81D7
:1020B00001969A8389832F8138858D819E81A9011C
:1020C000481B590BCA0101969C0189819A8182178C
:1020D0009307F0F28B819C8101969C838B832B85E7
:1020E0003C8589859A85A901481B590BCA0101962F
:1020F0009C018B819C818217930738F200002F96F8
:102100000FB6F894DEBF0FBECDBFCF91DF911F9108
:102110000F91EF9008950F93DF93CF93CDB7DEB774
:1021200061970FB6F894DEBF0FBECDBF9A8789873F
:102130007C876B875E874D87388B2F87098B4D8512
:102140005E852D853E85429FC001439F900D529F25
:10215000900D11249E838D8329853A858D859E85DA
:10216000A901481B590BCA0149855A852D853E8511
:10217000BA01620F731F4B855C852D853E85421B1E
:10218000530BEB85FC852D853E852E0F3F1F0E944E
:10219000B40A82E290E00E94820B8989882F90E045
:1021A0008130910509F458C08230910509F4B8C016
:1021B000009709F008C18D859E85909581959F4F68
:1021C0009C838B8340C08D859E85909581959F4F84
:1021D0009A8389832CC049815A8189819A81489F39
:1021E0009001499F300D589F300D11246B817C81E7
:1021F0004B815C81649FC001659F900D749F900D21
:102200001124820F931F9C018D819E81281739070D
:1022100028F48F8598890E94180B04C00E94EC0B4B
:1022200098878F8389819A8101969A8389832981EE
:102230003A818D859E85821793076CF68B819C81F0
:1022400001969C838B832B813C818D859E85821793
:1022500093070CF0B8CFB7C08D859E85909581957A
:102260009F4F9C838B8353C08D859E8590958195D0
:102270009F4F9A8389833EC049815A8189819A817F
:10228000489F9001499F300D589F300D11246B815C
:102290007C814B815C81649FC001659F900D749F20
:1022A000900D1124820F931F9C018D819E81281710
:1022B000390778F40E94EC0B98878F830E94EC0B0F
:1022C00098878F838F819885809590950E94180BB1
:1022D0000CC00E94EC0B98878F830E94EC0B9887B0
:1022E0008F838F8198850E94180B89819A8101962E
:1022F0009A83898329813A818D859E8582179307E8
:102300000CF0BACF8B819C8101969C838B832B81AF
:102310003C818D859E85821793070CF0A5CF53C015
:102320008D859E85909581959F4F9C838B8342C020
:102330008D859E85909581959F4F9A8389832EC028
:1023400049815A8189819A81489F9001499F300D26
:10235000589F300D11246B817C814B815C81649F7F
:10236000C001659F900D749F900D1124820F931FE3
:102370009C018D819E812817390728F48F859889C3
:102380000E94180B06C080913001909131010E948B
:10239000180B89819A8101969A83898329813A81D0
:1023A0008D859E85821793075CF68B819C810196B3
:1023B0009C838B832B813C818D859E85821793071F
:1023C0000CF0B6CF000061960FB6F894DEBF0FBEDA
:1023D000CDBFCF91DF910F910895DF93CF93CDB70C
:1023E000DEB760970FB6F894DEBF0FBECDBF8B8708
:1023F0007D876C875F874E87288B8C859D850796A8
:102400009E838D838E859F850F9698878F838B857E
:1024100080520E94160A8C859D856D817E814E8535
:102420005F852F8138850E94B40A82E290E00E9485
:10243000820B8889882F90E08130910509F446C08D
:102440008230910509F489C0009709F0C7C02F8137
:1024500038858E859F85A901481B590BCA019C832D
:102460008B832FC01A82198217C089819B81692FA3
:102470000E94660A882339F08091340190913501D9
:102480000E94180B04C00E94EC0B9A8789878981EF
:102490009A8101969A8389832D813E818C859D85C1
:1024A000A901481B590BCA019C012F5F3F4F89812D
:1024B0009A8182179307CCF28B819C8101979C8330
:1024C0008B838B819C8199236CF688C02F81388502
:1024D0008E859F85A901481B590BCA019C838B835C
:1024E00037C01A8219821FC00E94EC0B9A87898715
:1024F0000E94EC0B9A87898789819B81692F0E94B2
:10250000660A882339F089859A85809590950E947E
:10251000180B04C089859A850E94180B89819A81BD
:1025200001969A8389832D813E818C859D85A901A1
:10253000481B590BCA019C012F5F3F4F89819A812B
:10254000821793078CF28B819C8101979C838B83EC
:102550008B819C8199232CF641C02F8138858E85F3
:102560009F85A901481B590BCA019C838B8331C0ED
:102570001A82198219C089819B81692F0E94660A7B
:10258000882339F080913401909135010E94180B15
:1025900006C080913001909131010E94180B898111
:1025A0009A8101969A8389832D813E818C859D85B0
:1025B000A901481B590BCA019C012F5F3F4F89811C
:1025C0009A8182179307BCF28B819C8101979C832F
:1025D0008B838B819C8199235CF6000060960FB6FB
:1025E000F894DEBF0FBECDBFCF91DF910895DF938A
:1025F000CF93CDB7DEB72B970FB6F894DEBF0FBEE3
:10260000CDBF8F8368875A8749872B871A821982A3
:102610008885882F90E09C01220F331F220F331FE3
:10262000220F331F8091320190913301820F931F4B
:102630009C838B838F81882F90E09C01229532951B
:10264000307F3227207F322780911E0190911F0119
:10265000820F931F9E838D831BC089819A81298558
:102660003A85820F931FFC0180814B815C812D8113
:102670003E81BA01A9012B850E94ED118B819C81BD
:1026800008969C838B8389819A8101969A8389839A
:1026900089819A8129853A85820F931FFC01808167
:1026A0008823D9F62B960FB6F894DEBF0FBECDBFA8
:1026B000CF91DF9108951F93DF93CF93CDB7DEB70E
:1026C00061970FB6F894DEBF0FBECDBF8D876E87C2
:1026D000588B4F87298B1A8219828E85882F90E01C
:1026E0009C01220F331F220F331F220F331F8091B3
:1026F000320190913301820F931F9C838B838D85D0
:10270000882F90E09C0122953295307F3227207FE0
:10271000322780911E0190911F01820F931F9E838B
:102720008D8321C089819A812F853889820F931FDB
:102730009B878A878A859B85FC0114911C878C85E1
:102740004B815C812D813E81BA01A90129890E94BA
:10275000ED118B819C8108969C838B8389819A8162
:1027600001969A83898389819A812F853889820F7E
:10277000931F98878F838F819885FC011491198707
:102780008985882379F661960FB6F894DEBF0FBE6F
:10279000CDBFCF91DF911F910895DF93CF93CDB738
:1027A000DEB728970FB6F894DEBF0FBECDBF8D837E
:1027B0006E834F8328878E81882F90E09C01220FA3
:1027C000331F220F331F220F331F8091320190914C
:1027D0003301820F931F9A8389838D81882F90E024
:1027E0009C0122953295307F3227207F32278091BD
:1027F0001E0190911F01820F931F9C838B8349813F
:102800005A812B813C818F81BA01A90128850E94C0
:10281000ED1128960FB6F894DEBF0FBECDBFCF9155
:10282000DF9108951F920F920FB60F9211242F93EC
:102830003F938F939F93EF93FF93DF93CF93CDB706
:10284000DEB780910001909101018130910599F4EA
:102850008BE290E02BE230E0F90120812064FC0162
:1028600020838091000190910101019690930101D4
:102870008093000131C0809100019091010182306C
:10288000910599F48BE290E02BE230E0F901208190
:102890002F7BFC0120838091000190910101019622
:1028A000909301018093000117C0809100019091E5
:1028B00001018933910554F4809100019091010147
:1028C0000196909301018093000106C081E090E0A1
:1028D0009093010180930001CF91DF91FF91EF91DF
:1028E0009F918F913F912F910F900FBE0F901F904E
:1028F0001895EF920F931F93DF93CF9300D000D0E2
:1029000000D0CDB7DEB784E690E00E94A7060E9413
:10291000D40C0E942B0D80E090E06FE371E040E06A
:1029200050E02FED31E00FE110E0EE240E94DD0FCA
:1029300080E090E06FE371E040E050E026E430E0BA
:102940000FEF1FEFEE240E94DD0F8AE090E06CE3B2
:1029500070E044E650E028EC30E000E018EFEE24B0
:102960000E94DD0F84E190E060E570E04AE550E010
:1029700022E830E000E010E0EE240E94DD0F8EE15E
:1029800090E06AE570E044E650E02CE830E000EECC
:102990001FEFEE240E94DD0F84E190E060E570E01F
:1029A00040EA50E028EC30E000E010E0EE240E9425
:1029B000DD0F8EE190E06AE570E04AEA50E022ED3A
:1029C00030E000E018EFEE240E94DD0F83EC90E091
:1029D0006DEC70E047E450E02FED31E00FEF1FEFBA
:1029E000EE240E94DD0F88EE93E00E94A70688EC9B
:1029F00090E06BE970E04CE350E02FEF3FEF02E036
:102A00000E948B1088EC90E06BE970E042E350E0AC
:102A10002FE130E002E00E948B1088EC90E06BE93F
:102A200070E048E250E020E030E002E00E948B10CD
:102A300088EC90E06BE970E04EE150E020E038EF88
:102A400002E00E948B1088EE93E00E94A70680E0CF
:102A500090E00E94B30E80EE9FEF0E94A10E22E054
:102A600031E082E066E0A90122E00E94F71284E6EC
:102A700090E00E94A70600000E9441078130E1F724
:102A800084E690E00E94A70600000E949F07813024
:102A9000E1F78AE290E02AE230E0F90120812B7F21
:102AA000FC0120838BE290E02BE230E0F9012081F1
:102AB0002460FC0120838DE390E021E0FC01208371
:102AC00089E690E022E0FC012083789480E090E0A9
:102AD0006FE371E040E050E02FED31E00E94B40A76
:102AE00082E290E00E94820B82E090E090930101EC
:102AF000809300011C821B8244C08B819C81803F9B
:102B0000910521F58BE290E02BE230E0F901208184
:102B10002F77FC0120838BE290E02BE230E0F9017B
:102B200020812061FC0120838BE290E02BE230E0E9
:102B3000F90120812F7EFC0120838BE290E02BE2C3
:102B400030E0F90120812068FC0120831A8219827B
:102B50000DC00E9427089E838D838D819E810E94D7
:102B6000180B89819A8101969A83898389819A8138
:102B7000F1E080349F0768F38B819C8101969C83F0
:102B80008B838B819C8121E0803E920708F4B5CF36
:102B90008BE290E02BE230E0F90120812F77FC01FD
:102BA00020838BE290E02BE230E0F901208120616C
:102BB000FC0120838BE290E02BE230E0F9012081E0
:102BC0002F7EFC0120838BE290E02BE230E0F901C4
:0E2BD00020812068FC01208387CFF894FFCF7E
:102BDE0001002A2A204C434420496E697469616CB5
:0E2BEE00205375636365656421202A2A000068
:00000001FF
